{
  "contractName": "GameLottery",
  "abi": [
    {
      "inputs": [],
      "stateMutability": "nonpayable",
      "type": "constructor"
    },
    {
      "anonymous": false,
      "inputs": [
        {
          "indexed": true,
          "internalType": "address",
          "name": "winner",
          "type": "address"
        }
      ],
      "name": "AnnounceWinner",
      "type": "event"
    },
    {
      "anonymous": false,
      "inputs": [
        {
          "indexed": false,
          "internalType": "address",
          "name": "buyer",
          "type": "address"
        },
        {
          "indexed": false,
          "internalType": "uint256",
          "name": "lotteryId",
          "type": "uint256"
        }
      ],
      "name": "BuyTicket",
      "type": "event"
    },
    {
      "anonymous": false,
      "inputs": [
        {
          "indexed": true,
          "internalType": "enum GameLottery.LotteryStates",
          "name": "newState",
          "type": "uint8"
        }
      ],
      "name": "ChangeLotteryState",
      "type": "event"
    },
    {
      "anonymous": false,
      "inputs": [
        {
          "indexed": false,
          "internalType": "uint256",
          "name": "lotteryId",
          "type": "uint256"
        }
      ],
      "name": "CreateLottery",
      "type": "event"
    },
    {
      "anonymous": false,
      "inputs": [
        {
          "indexed": true,
          "internalType": "address",
          "name": "previousOwner",
          "type": "address"
        },
        {
          "indexed": true,
          "internalType": "address",
          "name": "newOwner",
          "type": "address"
        }
      ],
      "name": "OwnershipTransferred",
      "type": "event"
    },
    {
      "anonymous": false,
      "inputs": [
        {
          "indexed": false,
          "internalType": "address",
          "name": "to",
          "type": "address"
        },
        {
          "indexed": false,
          "internalType": "uint256",
          "name": "amount",
          "type": "uint256"
        }
      ],
      "name": "Refund",
      "type": "event"
    },
    {
      "anonymous": false,
      "inputs": [
        {
          "indexed": false,
          "internalType": "uint256",
          "name": "price",
          "type": "uint256"
        }
      ],
      "name": "TicketPriceChanged",
      "type": "event"
    },
    {
      "stateMutability": "payable",
      "type": "fallback"
    },
    {
      "inputs": [],
      "name": "lotteryId",
      "outputs": [
        {
          "internalType": "uint256",
          "name": "_value",
          "type": "uint256"
        }
      ],
      "stateMutability": "view",
      "type": "function"
    },
    {
      "inputs": [],
      "name": "lotteryState",
      "outputs": [
        {
          "internalType": "enum GameLottery.LotteryStates",
          "name": "",
          "type": "uint8"
        }
      ],
      "stateMutability": "view",
      "type": "function"
    },
    {
      "inputs": [],
      "name": "maxTickets",
      "outputs": [
        {
          "internalType": "uint256",
          "name": "",
          "type": "uint256"
        }
      ],
      "stateMutability": "view",
      "type": "function"
    },
    {
      "inputs": [],
      "name": "maxUserTickets",
      "outputs": [
        {
          "internalType": "uint256",
          "name": "",
          "type": "uint256"
        }
      ],
      "stateMutability": "view",
      "type": "function"
    },
    {
      "inputs": [],
      "name": "owner",
      "outputs": [
        {
          "internalType": "address",
          "name": "",
          "type": "address"
        }
      ],
      "stateMutability": "view",
      "type": "function"
    },
    {
      "inputs": [
        {
          "internalType": "address",
          "name": "dest",
          "type": "address"
        }
      ],
      "name": "payments",
      "outputs": [
        {
          "internalType": "uint256",
          "name": "",
          "type": "uint256"
        }
      ],
      "stateMutability": "view",
      "type": "function"
    },
    {
      "inputs": [],
      "name": "renounceOwnership",
      "outputs": [],
      "stateMutability": "nonpayable",
      "type": "function"
    },
    {
      "inputs": [],
      "name": "ticketPrice",
      "outputs": [
        {
          "internalType": "uint256",
          "name": "",
          "type": "uint256"
        }
      ],
      "stateMutability": "view",
      "type": "function"
    },
    {
      "inputs": [],
      "name": "totalTickets",
      "outputs": [
        {
          "internalType": "uint256",
          "name": "_value",
          "type": "uint256"
        }
      ],
      "stateMutability": "view",
      "type": "function"
    },
    {
      "inputs": [
        {
          "internalType": "address",
          "name": "newOwner",
          "type": "address"
        }
      ],
      "name": "transferOwnership",
      "outputs": [],
      "stateMutability": "nonpayable",
      "type": "function"
    },
    {
      "stateMutability": "payable",
      "type": "receive"
    },
    {
      "inputs": [],
      "name": "buyTicket",
      "outputs": [],
      "stateMutability": "payable",
      "type": "function"
    },
    {
      "inputs": [
        {
          "internalType": "uint256",
          "name": "_deadline",
          "type": "uint256"
        },
        {
          "internalType": "uint256",
          "name": "_ticketPrice",
          "type": "uint256"
        },
        {
          "internalType": "uint256",
          "name": "_maxTickets",
          "type": "uint256"
        },
        {
          "internalType": "uint256",
          "name": "_maxUserTickets",
          "type": "uint256"
        }
      ],
      "name": "newLottery",
      "outputs": [],
      "stateMutability": "nonpayable",
      "type": "function"
    },
    {
      "inputs": [],
      "name": "calculateWinner",
      "outputs": [
        {
          "internalType": "address",
          "name": "_winner",
          "type": "address"
        }
      ],
      "stateMutability": "nonpayable",
      "type": "function"
    },
    {
      "inputs": [],
      "name": "getWinner",
      "outputs": [
        {
          "internalType": "address",
          "name": "_winner",
          "type": "address"
        }
      ],
      "stateMutability": "view",
      "type": "function"
    },
    {
      "inputs": [],
      "name": "getTicketsOwned",
      "outputs": [
        {
          "internalType": "uint256",
          "name": "ticketsOwned",
          "type": "uint256"
        }
      ],
      "stateMutability": "view",
      "type": "function"
    },
    {
      "inputs": [],
      "name": "isLotteryOver",
      "outputs": [
        {
          "internalType": "bool",
          "name": "",
          "type": "bool"
        }
      ],
      "stateMutability": "view",
      "type": "function"
    },
    {
      "inputs": [
        {
          "internalType": "uint256",
          "name": "price",
          "type": "uint256"
        }
      ],
      "name": "setPrice",
      "outputs": [],
      "stateMutability": "nonpayable",
      "type": "function"
    },
    {
      "inputs": [],
      "name": "deadline",
      "outputs": [
        {
          "internalType": "uint256",
          "name": "",
          "type": "uint256"
        }
      ],
      "stateMutability": "view",
      "type": "function"
    },
    {
      "inputs": [],
      "name": "startBlock",
      "outputs": [
        {
          "internalType": "uint256",
          "name": "_startBlock",
          "type": "uint256"
        }
      ],
      "stateMutability": "view",
      "type": "function"
    },
    {
      "inputs": [
        {
          "internalType": "address payable",
          "name": "payee",
          "type": "address"
        }
      ],
      "name": "withdrawPayments",
      "outputs": [],
      "stateMutability": "nonpayable",
      "type": "function"
    }
  ],
  "bytecode": "0x60a06040523480156200001157600080fd5b506040516200002090620001ca565b604051809103906000f0801580156200003d573d6000803e3d6000fd5b5073ffffffffffffffffffffffffffffffffffffffff1660808173ffffffffffffffffffffffffffffffffffffffff1660601b815250506200009462000088620000fe60201b60201c565b6200010660201b60201c565b600180819055506000600f600001819055506001600e60006101000a81548160ff02191690836001811115620000f3577f4e487b7100000000000000000000000000000000000000000000000000000000600052602160045260246000fd5b0217905550620001d8565b600033905090565b60008060009054906101000a900473ffffffffffffffffffffffffffffffffffffffff169050816000806101000a81548173ffffffffffffffffffffffffffffffffffffffff021916908373ffffffffffffffffffffffffffffffffffffffff1602179055508173ffffffffffffffffffffffffffffffffffffffff168173ffffffffffffffffffffffffffffffffffffffff167f8be0079c531659141344cd1fd0a4f28419497f9722a3daafe3b4186f6b6457e060405160405180910390a35050565b610d098062002b4a83390190565b60805160601c6129456200020560003960008181610c84015281816117e90152611a9e01526129456000f3fe6080604052600436106101235760003560e01c80638e7ea5b2116100a0578063e2982c2111610064578063e2982c2114610397578063e580f47b146103d4578063ea35e805146103ff578063edca914c1461042a578063f2fde38b146104345761012a565b80638e7ea5b2146102c257806391b7f5ed146102ed5780639b89470314610316578063b0b9498914610341578063dd11247e1461036c5761012a565b806352e4b395116100e757806352e4b39514610201578063582c4ebf1461022c5780636939864b14610255578063715018a6146102805780638da5cb5b146102975761012a565b80630c77e30f1461012c5780631209b1f61461015757806329dcb0cf1461018257806331b3eb94146101ad57806348cd4cb1146101d65761012a565b3661012a57005b005b34801561013857600080fd5b5061014161045d565b60405161014e91906122ff565b60405180910390f35b34801561016357600080fd5b5061016c6104c0565b60405161017991906122ff565b60405180910390f35b34801561018e57600080fd5b506101976104c6565b6040516101a491906122ff565b60405180910390f35b3480156101b957600080fd5b506101d460048036038101906101cf9190611cc2565b6104e9565b005b3480156101e257600080fd5b506101eb6106b3565b6040516101f891906122ff565b60405180910390f35b34801561020d57600080fd5b506102166106eb565b60405161022391906120e9565b60405180910390f35b34801561023857600080fd5b50610253600480360381019061024e9190611d3d565b610721565b005b34801561026157600080fd5b5061026a6109e4565b6040516102779190612104565b60405180910390f35b34801561028c57600080fd5b506102956109f7565b005b3480156102a357600080fd5b506102ac610a7f565b6040516102b9919061208a565b60405180910390f35b3480156102ce57600080fd5b506102d7610aa8565b6040516102e4919061208a565b60405180910390f35b3480156102f957600080fd5b50610314600480360381019061030f9190611ceb565b610aea565b005b34801561032257600080fd5b5061032b610c68565b60405161033891906122ff565b60405180910390f35b34801561034d57600080fd5b50610356610c6e565b60405161036391906122ff565b60405180910390f35b34801561037857600080fd5b50610381610c74565b60405161038e91906122ff565b60405180910390f35b3480156103a357600080fd5b506103be60048036038101906103b99190611c99565b610c80565b6040516103cb91906122ff565b60405180910390f35b3480156103e057600080fd5b506103e9610d32565b6040516103f691906122ff565b60405180910390f35b34801561040b57600080fd5b50610414610d3e565b604051610421919061208a565b60405180910390f35b610432611237565b005b34801561044057600080fd5b5061045b60048036038101906104569190611c99565b6116ef565b005b600060026007016000600f60000154815260200190815260200160002060003373ffffffffffffffffffffffffffffffffffffffff1673ffffffffffffffffffffffffffffffffffffffff16815260200190815260200160002060000154905090565b600d5481565b600060026001016000600f60000154815260200190815260200160002054905090565b3373ffffffffffffffffffffffffffffffffffffffff16600280016000600f60000154815260200190815260200160002060009054906101000a900473ffffffffffffffffffffffffffffffffffffffff1673ffffffffffffffffffffffffffffffffffffffff1614610591576040517f08c379a0000000000000000000000000000000000000000000000000000000008152600401610588906122bf565b60405180910390fd5b600260015414156105d7576040517f08c379a00000000000000000000000000000000000000000000000000000000081526004016105ce906122df565b60405180910390fd5b6002600181905550600180811115610618577f4e487b7100000000000000000000000000000000000000000000000000000000600052602160045260246000fd5b600e60009054906101000a900460ff166001811115610660577f4e487b7100000000000000000000000000000000000000000000000000000000600052602160045260246000fd5b146106a0576040517f08c379a00000000000000000000000000000000000000000000000000000000081526004016106979061225f565b60405180910390fd5b6106a9816117e7565b6001808190555050565b600080600f6000015414156106c95760006106e6565b60026000016000600f600001548152602001908152602001600020545b905090565b600060026001016000600f60000154815260200190815260200160002054431015610719576000905061071e565b600190505b90565b610729611875565b73ffffffffffffffffffffffffffffffffffffffff16610747610a7f565b73ffffffffffffffffffffffffffffffffffffffff161461079d576040517f08c379a00000000000000000000000000000000000000000000000000000000081526004016107949061223f565b60405180910390fd5b6001808111156107d6577f4e487b7100000000000000000000000000000000000000000000000000000000600052602160045260246000fd5b600e60009054906101000a900460ff16600181111561081e577f4e487b7100000000000000000000000000000000000000000000000000000000600052602160045260246000fd5b1461085e576040517f08c379a00000000000000000000000000000000000000000000000000000000081526004016108559061213f565b60405180910390fd5b6000600e60006101000a81548160ff021916908360018111156108aa577f4e487b7100000000000000000000000000000000000000000000000000000000600052602160045260246000fd5b02179055506108b9600f61187d565b81600b8190555080600c81905550600060106000018190555082600d819055506001436108e69190612336565b60026000016000600f60000154815260200190815260200160002081905550836001436109139190612336565b61091d9190612336565b60026001016000600f6000015481526020019081526020016000208190555060006001811115610976577f4e487b7100000000000000000000000000000000000000000000000000000000600052602160045260246000fd5b7fb06d6f0857f3408d34057d77accbaea13492a39e477e30e5f410fef5cb55da5460405160405180910390a27f960f4fb18f2af9795686d97891dbd6534865353629cbda12afb278e618197662600f600001546040516109d691906122ff565b60405180910390a150505050565b600e60009054906101000a900460ff1681565b6109ff611875565b73ffffffffffffffffffffffffffffffffffffffff16610a1d610a7f565b73ffffffffffffffffffffffffffffffffffffffff1614610a73576040517f08c379a0000000000000000000000000000000000000000000000000000000008152600401610a6a9061223f565b60405180910390fd5b610a7d6000611893565b565b60008060009054906101000a900473ffffffffffffffffffffffffffffffffffffffff16905090565b6000600280016000600f60000154815260200190815260200160002060009054906101000a900473ffffffffffffffffffffffffffffffffffffffff16905090565b610af2611875565b73ffffffffffffffffffffffffffffffffffffffff16610b10610a7f565b73ffffffffffffffffffffffffffffffffffffffff1614610b66576040517f08c379a0000000000000000000000000000000000000000000000000000000008152600401610b5d9061223f565b60405180910390fd5b600180811115610b9f577f4e487b7100000000000000000000000000000000000000000000000000000000600052602160045260246000fd5b600e60009054906101000a900460ff166001811115610be7577f4e487b7100000000000000000000000000000000000000000000000000000000600052602160045260246000fd5b14610c27576040517f08c379a0000000000000000000000000000000000000000000000000000000008152600401610c1e906121bf565b60405180910390fd5b80600d819055507f70aa15e700a2c874a0358150f8fed3716cb8c992634a5321dc6d9a54a161e0b681604051610c5d91906122ff565b60405180910390a150565b600b5481565b600c5481565b60108060000154905081565b60007f000000000000000000000000000000000000000000000000000000000000000073ffffffffffffffffffffffffffffffffffffffff1663e3a9db1a836040518263ffffffff1660e01b8152600401610cdb919061208a565b60206040518083038186803b158015610cf357600080fd5b505afa158015610d07573d6000803e3d6000fd5b505050506040513d601f19601f82011682018060405250810190610d2b9190611d14565b9050919050565b600f8060000154905081565b6000806001811115610d79577f4e487b7100000000000000000000000000000000000000000000000000000000600052602160045260246000fd5b600e60009054906101000a900460ff166001811115610dc1577f4e487b7100000000000000000000000000000000000000000000000000000000600052602160045260246000fd5b14610e01576040517f08c379a0000000000000000000000000000000000000000000000000000000008152600401610df89061217f565b60405180910390fd5b60026006016000600f60000154815260200190815260200160002060003373ffffffffffffffffffffffffffffffffffffffff1673ffffffffffffffffffffffffffffffffffffffff16815260200190815260200160002060009054906101000a900460ff16610ea6576040517f08c379a0000000000000000000000000000000000000000000000000000000008152600401610e9d9061219f565b60405180910390fd5b610eae6106eb565b610eed576040517f08c379a0000000000000000000000000000000000000000000000000000000008152600401610ee49061229f565b60405180910390fd5b600060026005016000600f6000015481526020019081526020016000208054905043610f199190612477565b9050600060026004016000600f6000015481526020019081526020016000208054905043610f479190612477565b90506000610f558383611957565b905060026005016000600f6000015481526020019081526020016000208181548110610faa577f4e487b7100000000000000000000000000000000000000000000000000000000600052603260045260246000fd5b9060005260206000200160009054906101000a900473ffffffffffffffffffffffffffffffffffffffff16935083600280016000600f60000154815260200190815260200160002060006101000a81548173ffffffffffffffffffffffffffffffffffffffff021916908373ffffffffffffffffffffffffffffffffffffffff16021790555061107a600260030160008673ffffffffffffffffffffffffffffffffffffffff1673ffffffffffffffffffffffffffffffffffffffff16815260200190815260200160002061187d565b6001600e60006101000a81548160ff021916908360018111156110c6577f4e487b7100000000000000000000000000000000000000000000000000000000600052602160045260246000fd5b021790555060106000015460026008016000600f60000154815260200190815260200160002081905550611134600280016000600f60000154815260200190815260200160002060009054906101000a900473ffffffffffffffffffffffffffffffffffffffff1647611a9c565b60026005016000600f6000015481526020019081526020016000208181548110611187577f4e487b7100000000000000000000000000000000000000000000000000000000600052603260045260246000fd5b9060005260206000200160009054906101000a900473ffffffffffffffffffffffffffffffffffffffff1673ffffffffffffffffffffffffffffffffffffffff167fcfa5d1877ae609f3a62e72e02e3fcf9d3da417038e82e660b155177beaa6b16560405160405180910390a2600280016000600f60000154815260200190815260200160002060009054906101000a900473ffffffffffffffffffffffffffffffffffffffff16935050505090565b60006001811115611271577f4e487b7100000000000000000000000000000000000000000000000000000000600052602160045260246000fd5b600e60009054906101000a900460ff1660018111156112b9577f4e487b7100000000000000000000000000000000000000000000000000000000600052602160045260246000fd5b146112f9576040517f08c379a00000000000000000000000000000000000000000000000000000000081526004016112f09061217f565b60405180910390fd5b60026001016000600f600001548152602001908152602001600020544310611356576040517f08c379a000000000000000000000000000000000000000000000000000000000815260040161134d906121df565b60405180910390fd5b600d5434101561139b576040517f08c379a00000000000000000000000000000000000000000000000000000000081526004016113929061211f565b60405180910390fd5b60026005016000600f600001548152602001908152602001600020339080600181540180825580915050600190039060005260206000200160009091909190916101000a81548173ffffffffffffffffffffffffffffffffffffffff021916908373ffffffffffffffffffffffffffffffffffffffff16021790555060026004016000600f60000154815260200190815260200160002060026004016000600f6000015481526020019081526020016000208054905060014361145e9190612336565b6114689190612336565b9080600181540180825580915050600190039060005260206000200160009091909190915055611498601061187d565b6114f860026007016000600f60000154815260200190815260200160002060003373ffffffffffffffffffffffffffffffffffffffff1673ffffffffffffffffffffffffffffffffffffffff16815260200190815260200160002061187d565b600160026006016000600f60000154815260200190815260200160002060003373ffffffffffffffffffffffffffffffffffffffff1673ffffffffffffffffffffffffffffffffffffffff16815260200190815260200160002060006101000a81548160ff021916908315150217905550600d543411156115c557600061157e34611b2c565b905061158a3382611b43565b7fbb28353e4598c3b9199101a66e0989549b659a59a54d2c27fbb183f1932c8e6d33826040516115bb9291906120c0565b60405180910390a1505b7f2a3164428cba5dad15f5ffe47e10cbefdcbbe9e269fd482753982ee8b2648c3e33600f600001546040516115fb9291906120c0565b60405180910390a1600c5460026007016000600f60000154815260200190815260200160002060003373ffffffffffffffffffffffffffffffffffffffff1673ffffffffffffffffffffffffffffffffffffffff1681526020019081526020016000206000015411156116a3576040517f08c379a000000000000000000000000000000000000000000000000000000000815260040161169a9061227f565b60405180910390fd5b600b5460106000015411156116ed576040517f08c379a00000000000000000000000000000000000000000000000000000000081526004016116e49061227f565b60405180910390fd5b565b6116f7611875565b73ffffffffffffffffffffffffffffffffffffffff16611715610a7f565b73ffffffffffffffffffffffffffffffffffffffff161461176b576040517f08c379a00000000000000000000000000000000000000000000000000000000081526004016117629061223f565b60405180910390fd5b600073ffffffffffffffffffffffffffffffffffffffff168173ffffffffffffffffffffffffffffffffffffffff1614156117db576040517f08c379a00000000000000000000000000000000000000000000000000000000081526004016117d29061215f565b60405180910390fd5b6117e481611893565b50565b7f000000000000000000000000000000000000000000000000000000000000000073ffffffffffffffffffffffffffffffffffffffff166351cff8d9826040518263ffffffff1660e01b815260040161184091906120a5565b600060405180830381600087803b15801561185a57600080fd5b505af115801561186e573d6000803e3d6000fd5b5050505050565b600033905090565b6001816000016000828254019250508190555050565b60008060009054906101000a900473ffffffffffffffffffffffffffffffffffffffff169050816000806101000a81548173ffffffffffffffffffffffffffffffffffffffff021916908373ffffffffffffffffffffffffffffffffffffffff1602179055508173ffffffffffffffffffffffffffffffffffffffff168173ffffffffffffffffffffffffffffffffffffffff167f8be0079c531659141344cd1fd0a4f28419497f9722a3daafe3b4186f6b6457e060405160405180910390a35050565b60008060026005016000600f60000154815260200190815260200160002084815481106119ad577f4e487b7100000000000000000000000000000000000000000000000000000000600052603260045260246000fd5b9060005260206000200160009054906101000a900473ffffffffffffffffffffffffffffffffffffffff169050600060026004016000600f6000015481526020019081526020016000208481548110611a2f577f4e487b7100000000000000000000000000000000000000000000000000000000600052603260045260246000fd5b906000526020600020015440905060026005016000600f600001548152602001908152602001600020805490508282604051602001611a6f929190612049565b6040516020818303038152906040528051906020012060001c611a929190612477565b9250505092915050565b7f000000000000000000000000000000000000000000000000000000000000000073ffffffffffffffffffffffffffffffffffffffff1663f340fa0182846040518363ffffffff1660e01b8152600401611af6919061208a565b6000604051808303818588803b158015611b0f57600080fd5b505af1158015611b23573d6000803e3d6000fd5b50505050505050565b6000600d5482611b3c919061238c565b9050919050565b611b4d8282611b51565b5050565b80471015611b94576040517f08c379a0000000000000000000000000000000000000000000000000000000008152600401611b8b9061221f565b60405180910390fd5b60008273ffffffffffffffffffffffffffffffffffffffff1682604051611bba90612075565b60006040518083038185875af1925050503d8060008114611bf7576040519150601f19603f3d011682016040523d82523d6000602084013e611bfc565b606091505b5050905080611c40576040517f08c379a0000000000000000000000000000000000000000000000000000000008152600401611c37906121ff565b60405180910390fd5b505050565b600081359050611c54816128ca565b92915050565b600081359050611c69816128e1565b92915050565b600081359050611c7e816128f8565b92915050565b600081519050611c93816128f8565b92915050565b600060208284031215611cab57600080fd5b6000611cb984828501611c45565b91505092915050565b600060208284031215611cd457600080fd5b6000611ce284828501611c5a565b91505092915050565b600060208284031215611cfd57600080fd5b6000611d0b84828501611c6f565b91505092915050565b600060208284031215611d2657600080fd5b6000611d3484828501611c84565b91505092915050565b60008060008060808587031215611d5357600080fd5b6000611d6187828801611c6f565b9450506020611d7287828801611c6f565b9350506040611d8387828801611c6f565b9250506060611d9487828801611c6f565b91505092959194509250565b611da9816123d2565b82525050565b611db8816123c0565b82525050565b611dcf611dca826123c0565b612449565b82525050565b611dde816123e4565b82525050565b611df5611df0826123f0565b61245b565b82525050565b611e0481612437565b82525050565b6000611e17601983612325565b9150611e2282612542565b602082019050919050565b6000611e3a602083612325565b9150611e458261256b565b602082019050919050565b6000611e5d602683612325565b9150611e6882612594565b604082019050919050565b6000611e80601983612325565b9150611e8b826125e3565b602082019050919050565b6000611ea3602183612325565b9150611eae8261260c565b604082019050919050565b6000611ec6603183612325565b9150611ed18261265b565b604082019050919050565b6000611ee9602183612325565b9150611ef4826126aa565b604082019050919050565b6000611f0c603a83612325565b9150611f17826126f9565b604082019050919050565b6000611f2f601d83612325565b9150611f3a82612748565b602082019050919050565b6000611f52602083612325565b9150611f5d82612771565b602082019050919050565b6000611f75601d83612325565b9150611f808261279a565b602082019050919050565b6000611f98602683612325565b9150611fa3826127c3565b604082019050919050565b6000611fbb60008361231a565b9150611fc682612812565b600082019050919050565b6000611fde601e83612325565b9150611fe982612815565b602082019050919050565b6000612001602483612325565b915061200c8261283e565b604082019050919050565b6000612024601f83612325565b915061202f8261288d565b602082019050919050565b6120438161242d565b82525050565b60006120558285611dbe565b6014820191506120658284611de4565b6020820191508190509392505050565b600061208082611fae565b9150819050919050565b600060208201905061209f6000830184611daf565b92915050565b60006020820190506120ba6000830184611da0565b92915050565b60006040820190506120d56000830185611daf565b6120e2602083018461203a565b9392505050565b60006020820190506120fe6000830184611dd5565b92915050565b60006020820190506121196000830184611dfb565b92915050565b6000602082019050818103600083015261213881611e0a565b9050919050565b6000602082019050818103600083015261215881611e2d565b9050919050565b6000602082019050818103600083015261217881611e50565b9050919050565b6000602082019050818103600083015261219881611e73565b9050919050565b600060208201905081810360008301526121b881611e96565b9050919050565b600060208201905081810360008301526121d881611eb9565b9050919050565b600060208201905081810360008301526121f881611edc565b9050919050565b6000602082019050818103600083015261221881611eff565b9050919050565b6000602082019050818103600083015261223881611f22565b9050919050565b6000602082019050818103600083015261225881611f45565b9050919050565b6000602082019050818103600083015261227881611f68565b9050919050565b6000602082019050818103600083015261229881611f8b565b9050919050565b600060208201905081810360008301526122b881611fd1565b9050919050565b600060208201905081810360008301526122d881611ff4565b9050919050565b600060208201905081810360008301526122f881612017565b9050919050565b6000602082019050612314600083018461203a565b92915050565b600081905092915050565b600082825260208201905092915050565b60006123418261242d565b915061234c8361242d565b9250827fffffffffffffffffffffffffffffffffffffffffffffffffffffffffffffffff03821115612381576123806124a8565b5b828201905092915050565b60006123978261242d565b91506123a28361242d565b9250828210156123b5576123b46124a8565b5b828203905092915050565b60006123cb8261240d565b9050919050565b60006123dd8261240d565b9050919050565b60008115159050919050565b6000819050919050565b6000819050612408826128b6565b919050565b600073ffffffffffffffffffffffffffffffffffffffff82169050919050565b6000819050919050565b6000612442826123fa565b9050919050565b600061245482612465565b9050919050565b6000819050919050565b600061247082612535565b9050919050565b60006124828261242d565b915061248d8361242d565b92508261249d5761249c6124d7565b5b828206905092915050565b7f4e487b7100000000000000000000000000000000000000000000000000000000600052601160045260246000fd5b7f4e487b7100000000000000000000000000000000000000000000000000000000600052601260045260246000fd5b7f4e487b7100000000000000000000000000000000000000000000000000000000600052602160045260246000fd5b60008160601b9050919050565b7f4c6f74746572793a206e6f7420656e6f7567682066756e647300000000000000600082015250565b7f4c6f74746572793a206c6f7474657279206973207374696c6c20616374697665600082015250565b7f4f776e61626c653a206e6577206f776e657220697320746865207a65726f206160008201527f6464726573730000000000000000000000000000000000000000000000000000602082015250565b7f4c6f74746572793a20696e616374697665206c6f747465727900000000000000600082015250565b7f4c6f74746572793a2063616c6c6572206e6f742061207061727469636970616e60008201527f7400000000000000000000000000000000000000000000000000000000000000602082015250565b7f4c6f74746572793a2063616e6e6f74206368616e6765207072696365206f662060008201527f616e20616374697665206c6f7474657279000000000000000000000000000000602082015250565b7f4c6f74746572793a206c6f7474657279207265616368656420646561646c696e60008201527f6500000000000000000000000000000000000000000000000000000000000000602082015250565b7f416464726573733a20756e61626c6520746f2073656e642076616c75652c207260008201527f6563697069656e74206d61792068617665207265766572746564000000000000602082015250565b7f416464726573733a20696e73756666696369656e742062616c616e6365000000600082015250565b7f4f776e61626c653a2063616c6c6572206973206e6f7420746865206f776e6572600082015250565b7f4c6f746572793a206c6f7474657279207374696c6c206f6e676f696e67000000600082015250565b7f4c6f74746572793a206d6178206e756d626572206f66207469636b657473207260008201527f6561636865640000000000000000000000000000000000000000000000000000602082015250565b50565b7f4c6f74746572793a206c6f7474657279207374696c6c2072756e6e696e670000600082015250565b7f4c6f74746572793a206f6e6c792077696e6e65722063616e20636c61696d207060008201527f72697a6500000000000000000000000000000000000000000000000000000000602082015250565b7f5265656e7472616e637947756172643a207265656e7472616e742063616c6c00600082015250565b600281106128c7576128c6612506565b5b50565b6128d3816123c0565b81146128de57600080fd5b50565b6128ea816123d2565b81146128f557600080fd5b50565b6129018161242d565b811461290c57600080fd5b5056fea2646970667358221220ee48a1df1fb4f32da7fe6352e4ed0b0104843c0f8afc6e4285f9624a4728735e64736f6c63430008020033608060405234801561001057600080fd5b5061002d61002261003260201b60201c565b61003a60201b60201c565b6100fe565b600033905090565b60008060009054906101000a900473ffffffffffffffffffffffffffffffffffffffff169050816000806101000a81548173ffffffffffffffffffffffffffffffffffffffff021916908373ffffffffffffffffffffffffffffffffffffffff1602179055508173ffffffffffffffffffffffffffffffffffffffff168173ffffffffffffffffffffffffffffffffffffffff167f8be0079c531659141344cd1fd0a4f28419497f9722a3daafe3b4186f6b6457e060405160405180910390a35050565b610bfc8061010d6000396000f3fe6080604052600436106100555760003560e01c806351cff8d91461005a578063715018a6146100835780638da5cb5b1461009a578063e3a9db1a146100c5578063f2fde38b14610102578063f340fa011461012b575b600080fd5b34801561006657600080fd5b50610081600480360381019061007c91906107f5565b610147565b005b34801561008f57600080fd5b506100986102c7565b005b3480156100a657600080fd5b506100af61034f565b6040516100bc9190610900565b60405180910390f35b3480156100d157600080fd5b506100ec60048036038101906100e791906107cc565b610378565b6040516100f9919061099b565b60405180910390f35b34801561010e57600080fd5b50610129600480360381019061012491906107cc565b6103c1565b005b610145600480360381019061014091906107cc565b6104b9565b005b61014f6105e2565b73ffffffffffffffffffffffffffffffffffffffff1661016d61034f565b73ffffffffffffffffffffffffffffffffffffffff16146101c3576040517f08c379a00000000000000000000000000000000000000000000000000000000081526004016101ba9061097b565b60405180910390fd5b6000600160008373ffffffffffffffffffffffffffffffffffffffff1673ffffffffffffffffffffffffffffffffffffffff1681526020019081526020016000205490506000600160008473ffffffffffffffffffffffffffffffffffffffff1673ffffffffffffffffffffffffffffffffffffffff16815260200190815260200160002081905550610275818373ffffffffffffffffffffffffffffffffffffffff166105ea90919063ffffffff16565b8173ffffffffffffffffffffffffffffffffffffffff167f7084f5476618d8e60b11ef0d7d3f06914655adb8793e28ff7f018d4c76d505d5826040516102bb919061099b565b60405180910390a25050565b6102cf6105e2565b73ffffffffffffffffffffffffffffffffffffffff166102ed61034f565b73ffffffffffffffffffffffffffffffffffffffff1614610343576040517f08c379a000000000000000000000000000000000000000000000000000000000815260040161033a9061097b565b60405180910390fd5b61034d60006106de565b565b60008060009054906101000a900473ffffffffffffffffffffffffffffffffffffffff16905090565b6000600160008373ffffffffffffffffffffffffffffffffffffffff1673ffffffffffffffffffffffffffffffffffffffff168152602001908152602001600020549050919050565b6103c96105e2565b73ffffffffffffffffffffffffffffffffffffffff166103e761034f565b73ffffffffffffffffffffffffffffffffffffffff161461043d576040517f08c379a00000000000000000000000000000000000000000000000000000000081526004016104349061097b565b60405180910390fd5b600073ffffffffffffffffffffffffffffffffffffffff168173ffffffffffffffffffffffffffffffffffffffff1614156104ad576040517f08c379a00000000000000000000000000000000000000000000000000000000081526004016104a49061091b565b60405180910390fd5b6104b6816106de565b50565b6104c16105e2565b73ffffffffffffffffffffffffffffffffffffffff166104df61034f565b73ffffffffffffffffffffffffffffffffffffffff1614610535576040517f08c379a000000000000000000000000000000000000000000000000000000000815260040161052c9061097b565b60405180910390fd5b600034905080600160008473ffffffffffffffffffffffffffffffffffffffff1673ffffffffffffffffffffffffffffffffffffffff168152602001908152602001600020600082825461058991906109d2565b925050819055508173ffffffffffffffffffffffffffffffffffffffff167f2da466a7b24304f47e87fa2e1e5a81b9831ce54fec19055ce277ca2f39ba42c4826040516105d6919061099b565b60405180910390a25050565b600033905090565b8047101561062d576040517f08c379a00000000000000000000000000000000000000000000000000000000081526004016106249061095b565b60405180910390fd5b60008273ffffffffffffffffffffffffffffffffffffffff1682604051610653906108eb565b60006040518083038185875af1925050503d8060008114610690576040519150601f19603f3d011682016040523d82523d6000602084013e610695565b606091505b50509050806106d9576040517f08c379a00000000000000000000000000000000000000000000000000000000081526004016106d09061093b565b60405180910390fd5b505050565b60008060009054906101000a900473ffffffffffffffffffffffffffffffffffffffff169050816000806101000a81548173ffffffffffffffffffffffffffffffffffffffff021916908373ffffffffffffffffffffffffffffffffffffffff1602179055508173ffffffffffffffffffffffffffffffffffffffff168173ffffffffffffffffffffffffffffffffffffffff167f8be0079c531659141344cd1fd0a4f28419497f9722a3daafe3b4186f6b6457e060405160405180910390a35050565b6000813590506107b181610b98565b92915050565b6000813590506107c681610baf565b92915050565b6000602082840312156107de57600080fd5b60006107ec848285016107a2565b91505092915050565b60006020828403121561080757600080fd5b6000610815848285016107b7565b91505092915050565b61082781610a28565b82525050565b600061083a6026836109c1565b915061084582610aa5565b604082019050919050565b600061085d603a836109c1565b915061086882610af4565b604082019050919050565b6000610880601d836109c1565b915061088b82610b43565b602082019050919050565b60006108a36020836109c1565b91506108ae82610b6c565b602082019050919050565b60006108c66000836109b6565b91506108d182610b95565b600082019050919050565b6108e581610a6c565b82525050565b60006108f6826108b9565b9150819050919050565b6000602082019050610915600083018461081e565b92915050565b600060208201905081810360008301526109348161082d565b9050919050565b6000602082019050818103600083015261095481610850565b9050919050565b6000602082019050818103600083015261097481610873565b9050919050565b6000602082019050818103600083015261099481610896565b9050919050565b60006020820190506109b060008301846108dc565b92915050565b600081905092915050565b600082825260208201905092915050565b60006109dd82610a6c565b91506109e883610a6c565b9250827fffffffffffffffffffffffffffffffffffffffffffffffffffffffffffffffff03821115610a1d57610a1c610a76565b5b828201905092915050565b6000610a3382610a4c565b9050919050565b6000610a4582610a4c565b9050919050565b600073ffffffffffffffffffffffffffffffffffffffff82169050919050565b6000819050919050565b7f4e487b7100000000000000000000000000000000000000000000000000000000600052601160045260246000fd5b7f4f776e61626c653a206e6577206f776e657220697320746865207a65726f206160008201527f6464726573730000000000000000000000000000000000000000000000000000602082015250565b7f416464726573733a20756e61626c6520746f2073656e642076616c75652c207260008201527f6563697069656e74206d61792068617665207265766572746564000000000000602082015250565b7f416464726573733a20696e73756666696369656e742062616c616e6365000000600082015250565b7f4f776e61626c653a2063616c6c6572206973206e6f7420746865206f776e6572600082015250565b50565b610ba181610a28565b8114610bac57600080fd5b50565b610bb881610a3a565b8114610bc357600080fd5b5056fea26469706673582212204b5cd46ad38eefbc91faa6b518e761643b3ded611b961de794825164ba61ad7864736f6c63430008020033",
  "immutableReferences": {
    "111": [
      {
        "length": 32,
        "start": 3204
      },
      {
        "length": 32,
        "start": 6121
      },
      {
        "length": 32,
        "start": 6814
      }
    ]
  },
  "source": "// SPDX-License-Identifier: MIT\npragma solidity 0.8.2;\n\nimport \"@openzeppelin/contracts/access/Ownable.sol\"; \nimport \"@openzeppelin/contracts/security/ReentrancyGuard.sol\";\nimport \"@openzeppelin/contracts/security/PullPayment.sol\";\nimport \"@openzeppelin/contracts/utils/Address.sol\"; \nimport \"@openzeppelin/contracts/utils/Counters.sol\";\nimport \"@openzeppelin/contracts/utils/structs/EnumerableSet.sol\";\n\ncontract GameLottery is PullPayment, Ownable, ReentrancyGuard {\n    \n    using Counters for Counters.Counter;\n    \n    struct Lottery {\n        mapping(uint256 => uint256) startBlocks;\n        mapping(uint256 => uint256) deadlines;\n        mapping(uint256 => address) winner;\n        mapping(address => Counters.Counter) lotteriesWon; \n        mapping(uint256 => uint256 []) blockNumbers;\n        mapping(uint256 => address []) participants;\n        mapping(uint256 => mapping(address => bool)) isParticipant;\n        mapping(uint256 => mapping(address => Counters.Counter)) userTickets;\n        mapping(uint256 => uint256) totalTicketsBought;\n    }  \n\n    enum LotteryStates { Active, Inactive }\n\n    Lottery private lottery; \n    uint256 public maxTickets;\n    uint256 public maxUserTickets;  \n    uint256 public ticketPrice;\n    LotteryStates public lotteryState;\n    Counters.Counter public lotteryId;\n    Counters.Counter public totalTickets; \n\n    event ChangeLotteryState(LotteryStates indexed newState);\n    event AnnounceWinner(address indexed winner);\n    event BuyTicket(address buyer, uint256 lotteryId);\n    event Refund(address to, uint256 amount);\n    event TicketPriceChanged(uint256 price);\n    event CreateLottery(uint256 lotteryId);\n\n    modifier onlyActiveLottery {\n        require(lotteryState == LotteryStates.Active, \"Lottery: inactive lottery\");\n        _;\n    }\n\n    modifier onlyCurrentWinner {\n        require(lottery.winner[lotteryId._value] == msg.sender, \"Lottery: only winner can claim prize\");\n        _;\n    }\n\n    modifier respectMaxTickets {\n        _;\n        require(lottery.userTickets[lotteryId._value][msg.sender]._value <= maxUserTickets, \"Lottery: max number of tickets reached\"); \n        require(totalTickets._value <= maxTickets, \"Lottery: max number of tickets reached\");\n    }\n    \n    modifier onlyParticipant {\n        require(lottery.isParticipant[lotteryId._value][msg.sender], \"Lottery: caller not a participant\");\n        _;\n    }\n\n    modifier respectDeadline {\n        require(block.number < lottery.deadlines[lotteryId._value], \"Lottery: lottery reached deadline\");\n        _;\n    }\n\n    /// @notice initialize the first loterry\n    constructor() {\n        lotteryId._value = 0;\n        lotteryState = LotteryStates.Inactive; \n    }\n\n    /// @dev buy a lottery ticket with this function \n    /// @notice lottery has to be active for people to be able to ticket \n    function buyTicket() public payable onlyActiveLottery respectMaxTickets respectDeadline {\n        require(msg.value >= ticketPrice, \"Lottery: not enough funds\"); \n        lottery.participants[lotteryId._value].push(address(msg.sender));\n        lottery.blockNumbers[lotteryId._value].push(block.number + 1 + lottery.blockNumbers[lotteryId._value].length);\n        totalTickets.increment(); \n        lottery.userTickets[lotteryId._value][msg.sender].increment();\n        lottery.isParticipant[lotteryId._value][msg.sender] = true;\n        if (msg.value > ticketPrice){\n            uint256 rest = calculateRest(msg.value);\n            refundRest(msg.sender, rest);\n            emit Refund(msg.sender, rest);\n        }\n        emit BuyTicket(msg.sender, lotteryId._value);\n    }\n\n    /// @dev actives the lottery \n    /// @param _deadline time after lottery should be closed\n    /// @param _ticketPrice price of the a ticket during the lottery\n    /// @param _maxTickets maximum amount of tickets to be sold during this lottery\n    /// @param _maxUserTickets maximum amount of tickets a user can buy during this lottery\n    /// @notice _returns lottery Id \n    function newLottery (\n        uint256 _deadline, \n        uint256 _ticketPrice, \n        uint256 _maxTickets, \n        uint256 _maxUserTickets) external onlyOwner {\n        require(lotteryState == LotteryStates.Inactive, \"Lottery: lottery is still active\");\n        lotteryState = LotteryStates.Active;\n        lotteryId.increment();\n        maxTickets = _maxTickets;\n        maxUserTickets = _maxUserTickets;\n        totalTickets._value = 0;\n        ticketPrice = _ticketPrice;\n        lottery.startBlocks[lotteryId._value] = block.number + 1;\n        lottery.deadlines[lotteryId._value] = block.number + 1 + _deadline;\n        emit ChangeLotteryState(LotteryStates.Active);\n        emit CreateLottery(lotteryId._value);\n    } \n\n    /// @dev calculates the winner of the lottery\n    /// @notice generates random number from random block number and random user address\n    /// @notice increments lotteries of a participant\n    /// @notice deactivates current lottery\n    /// @notice stores total tickets bought during current lottery round\n    /// @notice transfers prize to escrow\n    function calculateWinner() external \n    onlyActiveLottery onlyParticipant returns (address _winner) {\n        require(isLotteryOver(), \"Lottery: lottery still running\"); \n        uint256 participantIndex = block.number % lottery.participants[lotteryId._value].length;\n        uint256 blockNumberIndex = block.number % lottery.blockNumbers[lotteryId._value].length;\n        uint256 winnerIndex = generateRandomNumber(participantIndex, blockNumberIndex);\n        _winner = lottery.participants[lotteryId._value][winnerIndex];\n        lottery.winner[lotteryId._value] = _winner; // winner\n        lottery.lotteriesWon[_winner].increment(); // increments winner count of lottery winner\n        lotteryState = LotteryStates.Inactive;\n        lottery.totalTicketsBought[lotteryId._value] = totalTickets._value; \n        _asyncTransfer(lottery.winner[lotteryId._value], address(this).balance);\n        emit AnnounceWinner(lottery.participants[lotteryId._value][winnerIndex]); \n        _winner = lottery.winner[lotteryId._value];\n    }\n\n    /// @dev returns the winner of the current lottery if there is one\n    function getWinner() external view returns (address _winner){\n        _winner = lottery.winner[lotteryId._value];\n    }\n\n    /// @dev returns the tickets owned by the caller of the function\n    function getTicketsOwned() external view returns (uint256 ticketsOwned) {\n        ticketsOwned = lottery.userTickets[lotteryId._value][msg.sender]._value;\n    }\n\n    /// @dev checks whether lottery isOver\n    function isLotteryOver() public view returns (bool) {\n        if (block.number < lottery.deadlines[lotteryId._value]) return false;\n        return true;\n    } \n\n    /// @dev allows owner of lottery to set price of the ticket\n    /// @param price new price of a ticket\n    function setPrice(uint256 price) external onlyOwner {\n        require(lotteryState == LotteryStates.Inactive, \"Lottery: cannot change price of an active lottery\");\n        ticketPrice = price;\n        emit TicketPriceChanged(price); \n    } \n\n    /// @dev retrieves lottery deadline\n    function deadline() public view returns(uint256) {\n        return lottery.deadlines[lotteryId._value];\n    }\n\n    /// @dev returns start block of current lottery if gameStarted\n    function startBlock() public view returns (uint256 _startBlock){\n        _startBlock = lotteryId._value != 0 ? lottery.startBlocks[lotteryId._value] : 0;\n    }\n    \n    /// @dev generates a pseudo random number \n    /// @param participantIndex index for the participant array\n    /// @param blockNumberIndex index for the blockNumber array\n    function generateRandomNumber(\n        uint256 participantIndex, \n        uint256 blockNumberIndex) \n    private view returns (uint indexWinner) {\n        address randomParticipant = lottery.participants[lotteryId._value][participantIndex];\n        bytes32 blHash = blockhash(lottery.blockNumbers[lotteryId._value][blockNumberIndex]); \n        indexWinner = uint(keccak256(abi.encodePacked(randomParticipant, blHash))) % lottery.participants[lotteryId._value].length; \n    }\n\n    /// @dev calculate rest amount of eth to send back to users\n    /// @param value amount the user will pay with\n    function calculateRest(uint256 value) private view returns(uint256 rest){\n        rest = value - ticketPrice; \n    }\n\n    /// @dev refunds gas to a user if it exceeds lottery price\n    /// @param to address to do a redund\n    /// @param toRefund amount to refund \n    function refundRest(address to, uint256 toRefund) private {\n        Address.sendValue(payable(to), toRefund); \n    }\n\n    /// @dev allows winner of current lottery to withdraw payment\n    /// @param payee address of recipient to whom amount will be sent\n    function withdrawPayments(address payable payee) public override onlyCurrentWinner nonReentrant {\n        require(lotteryState == LotteryStates.Inactive, \"Lotery: lottery still ongoing\");\n        super.withdrawPayments(payee);\n    }\n\n    /// @dev get participants and blocknumbers\n    /// @dev if empty function calls to contract\n    fallback() external payable {}\n    receive() external payable {}\n}\n",
  "sourcePath": "/home/rasguy92/Documents/gameLoft/contracts/GameLottery.sol",
  "compiler": {
    "name": "solc",
    "version": "0.8.2+commit.661d1103.Emscripten.clang"
  },
  "schemaVersion": "3.4.4",
  "updatedAt": "2022-01-14T11:35:44.345Z",
  "devdoc": {
    "kind": "dev",
    "methods": {
      "buyTicket()": {
        "details": "buy a lottery ticket with this function "
      },
      "calculateWinner()": {
        "details": "calculates the winner of the lottery"
      },
      "deadline()": {
        "details": "retrieves lottery deadline"
      },
      "getTicketsOwned()": {
        "details": "returns the tickets owned by the caller of the function"
      },
      "getWinner()": {
        "details": "returns the winner of the current lottery if there is one"
      },
      "isLotteryOver()": {
        "details": "checks whether lottery isOver"
      },
      "newLottery(uint256,uint256,uint256,uint256)": {
        "details": "actives the lottery ",
        "params": {
          "_deadline": "time after lottery should be closed",
          "_maxTickets": "maximum amount of tickets to be sold during this lottery",
          "_maxUserTickets": "maximum amount of tickets a user can buy during this lottery",
          "_ticketPrice": "price of the a ticket during the lottery"
        }
      },
      "owner()": {
        "details": "Returns the address of the current owner."
      },
      "payments(address)": {
        "details": "Returns the payments owed to an address.",
        "params": {
          "dest": "The creditor's address."
        }
      },
      "renounceOwnership()": {
        "details": "Leaves the contract without owner. It will not be possible to call `onlyOwner` functions anymore. Can only be called by the current owner. NOTE: Renouncing ownership will leave the contract without an owner, thereby removing any functionality that is only available to the owner."
      },
      "setPrice(uint256)": {
        "details": "allows owner of lottery to set price of the ticket",
        "params": {
          "price": "new price of a ticket"
        }
      },
      "startBlock()": {
        "details": "returns start block of current lottery if gameStarted"
      },
      "transferOwnership(address)": {
        "details": "Transfers ownership of the contract to a new account (`newOwner`). Can only be called by the current owner."
      },
      "withdrawPayments(address)": {
        "details": "allows winner of current lottery to withdraw payment",
        "params": {
          "payee": "address of recipient to whom amount will be sent"
        }
      }
    },
    "version": 1
  },
  "userdoc": {
    "kind": "user",
    "methods": {
      "buyTicket()": {
        "notice": "lottery has to be active for people to be able to ticket "
      },
      "calculateWinner()": {
        "notice": "generates random number from random block number and random user addressincrements lotteries of a participantdeactivates current lotterystores total tickets bought during current lottery roundtransfers prize to escrow"
      },
      "constructor": {
        "notice": "initialize the first loterry"
      },
      "newLottery(uint256,uint256,uint256,uint256)": {
        "notice": "_returns lottery Id "
      }
    },
    "version": 1
  }
}