{
  "contractName": "GameLottery",
  "abi": [
    {
      "inputs": [],
      "stateMutability": "nonpayable",
      "type": "constructor"
    },
    {
      "anonymous": false,
      "inputs": [
        {
          "indexed": true,
          "internalType": "address",
          "name": "winner",
          "type": "address"
        }
      ],
      "name": "AnnounceWinner",
      "type": "event"
    },
    {
      "anonymous": false,
      "inputs": [
        {
          "indexed": false,
          "internalType": "address",
          "name": "buyer",
          "type": "address"
        },
        {
          "indexed": false,
          "internalType": "uint256",
          "name": "lotteryId",
          "type": "uint256"
        }
      ],
      "name": "BuyTicket",
      "type": "event"
    },
    {
      "anonymous": false,
      "inputs": [
        {
          "indexed": true,
          "internalType": "enum GameLottery.LotteryStates",
          "name": "newState",
          "type": "uint8"
        }
      ],
      "name": "ChangeLotteryState",
      "type": "event"
    },
    {
      "anonymous": false,
      "inputs": [
        {
          "indexed": false,
          "internalType": "uint256",
          "name": "lotteryId",
          "type": "uint256"
        }
      ],
      "name": "CreateLottery",
      "type": "event"
    },
    {
      "anonymous": false,
      "inputs": [
        {
          "indexed": true,
          "internalType": "address",
          "name": "previousOwner",
          "type": "address"
        },
        {
          "indexed": true,
          "internalType": "address",
          "name": "newOwner",
          "type": "address"
        }
      ],
      "name": "OwnershipTransferred",
      "type": "event"
    },
    {
      "anonymous": false,
      "inputs": [
        {
          "indexed": false,
          "internalType": "address",
          "name": "to",
          "type": "address"
        },
        {
          "indexed": false,
          "internalType": "uint256",
          "name": "amount",
          "type": "uint256"
        }
      ],
      "name": "Refund",
      "type": "event"
    },
    {
      "anonymous": false,
      "inputs": [
        {
          "indexed": false,
          "internalType": "uint256",
          "name": "price",
          "type": "uint256"
        }
      ],
      "name": "TicketPriceChanged",
      "type": "event"
    },
    {
      "stateMutability": "payable",
      "type": "fallback"
    },
    {
      "inputs": [],
      "name": "lotteryId",
      "outputs": [
        {
          "internalType": "uint256",
          "name": "_value",
          "type": "uint256"
        }
      ],
      "stateMutability": "view",
      "type": "function"
    },
    {
      "inputs": [],
      "name": "lotteryState",
      "outputs": [
        {
          "internalType": "enum GameLottery.LotteryStates",
          "name": "",
          "type": "uint8"
        }
      ],
      "stateMutability": "view",
      "type": "function"
    },
    {
      "inputs": [],
      "name": "maxTickets",
      "outputs": [
        {
          "internalType": "uint256",
          "name": "",
          "type": "uint256"
        }
      ],
      "stateMutability": "view",
      "type": "function"
    },
    {
      "inputs": [],
      "name": "maxUserTickets",
      "outputs": [
        {
          "internalType": "uint256",
          "name": "",
          "type": "uint256"
        }
      ],
      "stateMutability": "view",
      "type": "function"
    },
    {
      "inputs": [],
      "name": "owner",
      "outputs": [
        {
          "internalType": "address",
          "name": "",
          "type": "address"
        }
      ],
      "stateMutability": "view",
      "type": "function"
    },
    {
      "inputs": [
        {
          "internalType": "address",
          "name": "dest",
          "type": "address"
        }
      ],
      "name": "payments",
      "outputs": [
        {
          "internalType": "uint256",
          "name": "",
          "type": "uint256"
        }
      ],
      "stateMutability": "view",
      "type": "function"
    },
    {
      "inputs": [],
      "name": "renounceOwnership",
      "outputs": [],
      "stateMutability": "nonpayable",
      "type": "function"
    },
    {
      "inputs": [],
      "name": "ticketPrice",
      "outputs": [
        {
          "internalType": "uint256",
          "name": "",
          "type": "uint256"
        }
      ],
      "stateMutability": "view",
      "type": "function"
    },
    {
      "inputs": [],
      "name": "totalTickets",
      "outputs": [
        {
          "internalType": "uint256",
          "name": "_value",
          "type": "uint256"
        }
      ],
      "stateMutability": "view",
      "type": "function"
    },
    {
      "inputs": [
        {
          "internalType": "address",
          "name": "newOwner",
          "type": "address"
        }
      ],
      "name": "transferOwnership",
      "outputs": [],
      "stateMutability": "nonpayable",
      "type": "function"
    },
    {
      "stateMutability": "payable",
      "type": "receive"
    },
    {
      "inputs": [],
      "name": "buyTicket",
      "outputs": [],
      "stateMutability": "payable",
      "type": "function"
    },
    {
      "inputs": [
        {
          "internalType": "uint256",
          "name": "_deadline",
          "type": "uint256"
        },
        {
          "internalType": "uint256",
          "name": "_ticketPrice",
          "type": "uint256"
        },
        {
          "internalType": "uint256",
          "name": "_maxTickets",
          "type": "uint256"
        },
        {
          "internalType": "uint256",
          "name": "_maxUserTickets",
          "type": "uint256"
        }
      ],
      "name": "newLottery",
      "outputs": [],
      "stateMutability": "nonpayable",
      "type": "function"
    },
    {
      "inputs": [],
      "name": "calculateWinner",
      "outputs": [
        {
          "internalType": "address",
          "name": "",
          "type": "address"
        }
      ],
      "stateMutability": "nonpayable",
      "type": "function"
    },
    {
      "inputs": [],
      "name": "getWinner",
      "outputs": [
        {
          "internalType": "address",
          "name": "_winner",
          "type": "address"
        }
      ],
      "stateMutability": "view",
      "type": "function"
    },
    {
      "inputs": [
        {
          "internalType": "address",
          "name": "_participant",
          "type": "address"
        }
      ],
      "name": "ticketsOwned",
      "outputs": [
        {
          "internalType": "uint256",
          "name": "_ticketsOwned",
          "type": "uint256"
        }
      ],
      "stateMutability": "view",
      "type": "function"
    },
    {
      "inputs": [
        {
          "internalType": "address",
          "name": "_participant",
          "type": "address"
        }
      ],
      "name": "lotteriesWon",
      "outputs": [
        {
          "internalType": "uint256",
          "name": "_lotteriesWon",
          "type": "uint256"
        }
      ],
      "stateMutability": "view",
      "type": "function"
    },
    {
      "inputs": [],
      "name": "isLotteryOver",
      "outputs": [
        {
          "internalType": "bool",
          "name": "",
          "type": "bool"
        }
      ],
      "stateMutability": "view",
      "type": "function"
    },
    {
      "inputs": [
        {
          "internalType": "uint256",
          "name": "price",
          "type": "uint256"
        }
      ],
      "name": "setPrice",
      "outputs": [],
      "stateMutability": "nonpayable",
      "type": "function"
    },
    {
      "inputs": [],
      "name": "deadline",
      "outputs": [
        {
          "internalType": "uint256",
          "name": "",
          "type": "uint256"
        }
      ],
      "stateMutability": "view",
      "type": "function"
    },
    {
      "inputs": [],
      "name": "startBlock",
      "outputs": [
        {
          "internalType": "uint256",
          "name": "_startBlock",
          "type": "uint256"
        }
      ],
      "stateMutability": "view",
      "type": "function"
    },
    {
      "inputs": [
        {
          "internalType": "address payable",
          "name": "payee",
          "type": "address"
        }
      ],
      "name": "withdrawPayments",
      "outputs": [],
      "stateMutability": "nonpayable",
      "type": "function"
    }
  ],
  "bytecode": "0x60a06040523480156200001157600080fd5b506040516200002090620001ca565b604051809103906000f0801580156200003d573d6000803e3d6000fd5b5073ffffffffffffffffffffffffffffffffffffffff1660808173ffffffffffffffffffffffffffffffffffffffff1660601b815250506200009462000088620000fe60201b60201c565b6200010660201b60201c565b600180819055506000600f600001819055506001600e60006101000a81548160ff02191690836001811115620000f3577f4e487b7100000000000000000000000000000000000000000000000000000000600052602160045260246000fd5b0217905550620001d8565b600033905090565b60008060009054906101000a900473ffffffffffffffffffffffffffffffffffffffff169050816000806101000a81548173ffffffffffffffffffffffffffffffffffffffff021916908373ffffffffffffffffffffffffffffffffffffffff1602179055508173ffffffffffffffffffffffffffffffffffffffff168173ffffffffffffffffffffffffffffffffffffffff167f8be0079c531659141344cd1fd0a4f28419497f9722a3daafe3b4186f6b6457e060405160405180910390a35050565b610d098062002ce083390190565b60805160601c612adb6200020560003960008181610d2f0152818161197f0152611c340152612adb6000f3fe60806040526004361061012e5760003560e01c80638e7ea5b2116100ab578063dd11247e1161006f578063dd11247e146103c6578063e2982c21146103f1578063e580f47b1461042e578063ea35e80514610459578063edca914c14610484578063f2fde38b1461048e57610135565b80638e7ea5b2146102df57806391b7f5ed1461030a578063951e2021146103335780639b89470314610370578063b0b949891461039b57610135565b806352e4b395116100f257806352e4b3951461021e578063582c4ebf146102495780636939864b14610272578063715018a61461029d5780638da5cb5b146102b457610135565b80631209b1f61461013757806329dcb0cf1461016257806331b3eb941461018d57806348cd4cb1146101b65780634fe6d49a146101e157610135565b3661013557005b005b34801561014357600080fd5b5061014c6104b7565b6040516101599190612495565b60405180910390f35b34801561016e57600080fd5b506101776104bd565b6040516101849190612495565b60405180910390f35b34801561019957600080fd5b506101b460048036038101906101af9190611e58565b6104e0565b005b3480156101c257600080fd5b506101cb6106aa565b6040516101d89190612495565b60405180910390f35b3480156101ed57600080fd5b5061020860048036038101906102039190611e2f565b6106e2565b6040516102159190612495565b60405180910390f35b34801561022a57600080fd5b50610233610731565b604051610240919061227f565b60405180910390f35b34801561025557600080fd5b50610270600480360381019061026b9190611ed3565b610767565b005b34801561027e57600080fd5b50610287610a2a565b604051610294919061229a565b60405180910390f35b3480156102a957600080fd5b506102b2610a3d565b005b3480156102c057600080fd5b506102c9610ac5565b6040516102d69190612220565b60405180910390f35b3480156102eb57600080fd5b506102f4610aee565b6040516103019190612220565b60405180910390f35b34801561031657600080fd5b50610331600480360381019061032c9190611e81565b610b30565b005b34801561033f57600080fd5b5061035a60048036038101906103559190611e2f565b610cae565b6040516103679190612495565b60405180910390f35b34801561037c57600080fd5b50610385610d13565b6040516103929190612495565b60405180910390f35b3480156103a757600080fd5b506103b0610d19565b6040516103bd9190612495565b60405180910390f35b3480156103d257600080fd5b506103db610d1f565b6040516103e89190612495565b60405180910390f35b3480156103fd57600080fd5b5061041860048036038101906104139190611e2f565b610d2b565b6040516104259190612495565b60405180910390f35b34801561043a57600080fd5b50610443610ddd565b6040516104509190612495565b60405180910390f35b34801561046557600080fd5b5061046e610de9565b60405161047b9190612220565b60405180910390f35b61048c6113cd565b005b34801561049a57600080fd5b506104b560048036038101906104b09190611e2f565b611885565b005b600d5481565b600060026001016000600f60000154815260200190815260200160002054905090565b3373ffffffffffffffffffffffffffffffffffffffff16600280016000600f60000154815260200190815260200160002060009054906101000a900473ffffffffffffffffffffffffffffffffffffffff1673ffffffffffffffffffffffffffffffffffffffff1614610588576040517f08c379a000000000000000000000000000000000000000000000000000000000815260040161057f90612455565b60405180910390fd5b600260015414156105ce576040517f08c379a00000000000000000000000000000000000000000000000000000000081526004016105c590612475565b60405180910390fd5b600260018190555060018081111561060f577f4e487b7100000000000000000000000000000000000000000000000000000000600052602160045260246000fd5b600e60009054906101000a900460ff166001811115610657577f4e487b7100000000000000000000000000000000000000000000000000000000600052602160045260246000fd5b14610697576040517f08c379a000000000000000000000000000000000000000000000000000000000815260040161068e906123f5565b60405180910390fd5b6106a08161197d565b6001808190555050565b600080600f6000015414156106c05760006106dd565b60026000016000600f600001548152602001908152602001600020545b905090565b6000600260030160008373ffffffffffffffffffffffffffffffffffffffff1673ffffffffffffffffffffffffffffffffffffffff168152602001908152602001600020600001549050919050565b600060026001016000600f6000015481526020019081526020016000205443101561075f5760009050610764565b600190505b90565b61076f611a0b565b73ffffffffffffffffffffffffffffffffffffffff1661078d610ac5565b73ffffffffffffffffffffffffffffffffffffffff16146107e3576040517f08c379a00000000000000000000000000000000000000000000000000000000081526004016107da906123d5565b60405180910390fd5b60018081111561081c577f4e487b7100000000000000000000000000000000000000000000000000000000600052602160045260246000fd5b600e60009054906101000a900460ff166001811115610864577f4e487b7100000000000000000000000000000000000000000000000000000000600052602160045260246000fd5b146108a4576040517f08c379a000000000000000000000000000000000000000000000000000000000815260040161089b906122d5565b60405180910390fd5b6000600e60006101000a81548160ff021916908360018111156108f0577f4e487b7100000000000000000000000000000000000000000000000000000000600052602160045260246000fd5b02179055506108ff600f611a13565b81600b8190555080600c81905550600060106000018190555082600d8190555060014361092c91906124cc565b60026000016000600f600001548152602001908152602001600020819055508360014361095991906124cc565b61096391906124cc565b60026001016000600f60000154815260200190815260200160002081905550600060018111156109bc577f4e487b7100000000000000000000000000000000000000000000000000000000600052602160045260246000fd5b7fb06d6f0857f3408d34057d77accbaea13492a39e477e30e5f410fef5cb55da5460405160405180910390a27f960f4fb18f2af9795686d97891dbd6534865353629cbda12afb278e618197662600f60000154604051610a1c9190612495565b60405180910390a150505050565b600e60009054906101000a900460ff1681565b610a45611a0b565b73ffffffffffffffffffffffffffffffffffffffff16610a63610ac5565b73ffffffffffffffffffffffffffffffffffffffff1614610ab9576040517f08c379a0000000000000000000000000000000000000000000000000000000008152600401610ab0906123d5565b60405180910390fd5b610ac36000611a29565b565b60008060009054906101000a900473ffffffffffffffffffffffffffffffffffffffff16905090565b6000600280016000600f60000154815260200190815260200160002060009054906101000a900473ffffffffffffffffffffffffffffffffffffffff16905090565b610b38611a0b565b73ffffffffffffffffffffffffffffffffffffffff16610b56610ac5565b73ffffffffffffffffffffffffffffffffffffffff1614610bac576040517f08c379a0000000000000000000000000000000000000000000000000000000008152600401610ba3906123d5565b60405180910390fd5b600180811115610be5577f4e487b7100000000000000000000000000000000000000000000000000000000600052602160045260246000fd5b600e60009054906101000a900460ff166001811115610c2d577f4e487b7100000000000000000000000000000000000000000000000000000000600052602160045260246000fd5b14610c6d576040517f08c379a0000000000000000000000000000000000000000000000000000000008152600401610c6490612355565b60405180910390fd5b80600d819055507f70aa15e700a2c874a0358150f8fed3716cb8c992634a5321dc6d9a54a161e0b681604051610ca39190612495565b60405180910390a150565b600060026007016000600f60000154815260200190815260200160002060008373ffffffffffffffffffffffffffffffffffffffff1673ffffffffffffffffffffffffffffffffffffffff168152602001908152602001600020600001549050919050565b600b5481565b600c5481565b60108060000154905081565b60007f000000000000000000000000000000000000000000000000000000000000000073ffffffffffffffffffffffffffffffffffffffff1663e3a9db1a836040518263ffffffff1660e01b8152600401610d869190612220565b60206040518083038186803b158015610d9e57600080fd5b505afa158015610db2573d6000803e3d6000fd5b505050506040513d601f19601f82011682018060405250810190610dd69190611eaa565b9050919050565b600f8060000154905081565b6000806001811115610e24577f4e487b7100000000000000000000000000000000000000000000000000000000600052602160045260246000fd5b600e60009054906101000a900460ff166001811115610e6c577f4e487b7100000000000000000000000000000000000000000000000000000000600052602160045260246000fd5b14610eac576040517f08c379a0000000000000000000000000000000000000000000000000000000008152600401610ea390612315565b60405180910390fd5b60026006016000600f60000154815260200190815260200160002060003373ffffffffffffffffffffffffffffffffffffffff1673ffffffffffffffffffffffffffffffffffffffff16815260200190815260200160002060009054906101000a900460ff16610f51576040517f08c379a0000000000000000000000000000000000000000000000000000000008152600401610f4890612335565b60405180910390fd5b610f59610731565b610f98576040517f08c379a0000000000000000000000000000000000000000000000000000000008152600401610f8f90612435565b60405180910390fd5b6000600160026005016000600f6000015481526020019081526020016000208054905010156110bb576000905080600280016000600f60000154815260200190815260200160002060006101000a81548173ffffffffffffffffffffffffffffffffffffffff021916908373ffffffffffffffffffffffffffffffffffffffff1602179055506001600e60006101000a81548160ff0219169083600181111561106a577f4e487b7100000000000000000000000000000000000000000000000000000000600052602160045260246000fd5b02179055508073ffffffffffffffffffffffffffffffffffffffff167fcfa5d1877ae609f3a62e72e02e3fcf9d3da417038e82e660b155177beaa6b16560405160405180910390a2809150506113ca565b600060026005016000600f60000154815260200190815260200160002080549050436110e7919061260d565b9050600060026004016000600f6000015481526020019081526020016000208054905043611115919061260d565b905060006111238383611aed565b905060026005016000600f6000015481526020019081526020016000208181548110611178577f4e487b7100000000000000000000000000000000000000000000000000000000600052603260045260246000fd5b9060005260206000200160009054906101000a900473ffffffffffffffffffffffffffffffffffffffff16935083600280016000600f60000154815260200190815260200160002060006101000a81548173ffffffffffffffffffffffffffffffffffffffff021916908373ffffffffffffffffffffffffffffffffffffffff160217905550611248600260030160008673ffffffffffffffffffffffffffffffffffffffff1673ffffffffffffffffffffffffffffffffffffffff168152602001908152602001600020611a13565b6001600e60006101000a81548160ff02191690836001811115611294577f4e487b7100000000000000000000000000000000000000000000000000000000600052602160045260246000fd5b021790555060106000015460026008016000600f60000154815260200190815260200160002081905550611302600280016000600f60000154815260200190815260200160002060009054906101000a900473ffffffffffffffffffffffffffffffffffffffff1647611c32565b60026005016000600f6000015481526020019081526020016000208181548110611355577f4e487b7100000000000000000000000000000000000000000000000000000000600052603260045260246000fd5b9060005260206000200160009054906101000a900473ffffffffffffffffffffffffffffffffffffffff1673ffffffffffffffffffffffffffffffffffffffff167fcfa5d1877ae609f3a62e72e02e3fcf9d3da417038e82e660b155177beaa6b16560405160405180910390a2839450505050505b90565b60006001811115611407577f4e487b7100000000000000000000000000000000000000000000000000000000600052602160045260246000fd5b600e60009054906101000a900460ff16600181111561144f577f4e487b7100000000000000000000000000000000000000000000000000000000600052602160045260246000fd5b1461148f576040517f08c379a000000000000000000000000000000000000000000000000000000000815260040161148690612315565b60405180910390fd5b60026001016000600f6000015481526020019081526020016000205443106114ec576040517f08c379a00000000000000000000000000000000000000000000000000000000081526004016114e390612375565b60405180910390fd5b600d54341015611531576040517f08c379a0000000000000000000000000000000000000000000000000000000008152600401611528906122b5565b60405180910390fd5b60026005016000600f600001548152602001908152602001600020339080600181540180825580915050600190039060005260206000200160009091909190916101000a81548173ffffffffffffffffffffffffffffffffffffffff021916908373ffffffffffffffffffffffffffffffffffffffff16021790555060026004016000600f60000154815260200190815260200160002060026004016000600f600001548152602001908152602001600020805490506001436115f491906124cc565b6115fe91906124cc565b908060018154018082558091505060019003906000526020600020016000909190919091505561162e6010611a13565b61168e60026007016000600f60000154815260200190815260200160002060003373ffffffffffffffffffffffffffffffffffffffff1673ffffffffffffffffffffffffffffffffffffffff168152602001908152602001600020611a13565b600160026006016000600f60000154815260200190815260200160002060003373ffffffffffffffffffffffffffffffffffffffff1673ffffffffffffffffffffffffffffffffffffffff16815260200190815260200160002060006101000a81548160ff021916908315150217905550600d5434111561175b57600061171434611cc2565b90506117203382611cd9565b7fbb28353e4598c3b9199101a66e0989549b659a59a54d2c27fbb183f1932c8e6d3382604051611751929190612256565b60405180910390a1505b7f2a3164428cba5dad15f5ffe47e10cbefdcbbe9e269fd482753982ee8b2648c3e33600f60000154604051611791929190612256565b60405180910390a1600c5460026007016000600f60000154815260200190815260200160002060003373ffffffffffffffffffffffffffffffffffffffff1673ffffffffffffffffffffffffffffffffffffffff168152602001908152602001600020600001541115611839576040517f08c379a000000000000000000000000000000000000000000000000000000000815260040161183090612415565b60405180910390fd5b600b546010600001541115611883576040517f08c379a000000000000000000000000000000000000000000000000000000000815260040161187a90612415565b60405180910390fd5b565b61188d611a0b565b73ffffffffffffffffffffffffffffffffffffffff166118ab610ac5565b73ffffffffffffffffffffffffffffffffffffffff1614611901576040517f08c379a00000000000000000000000000000000000000000000000000000000081526004016118f8906123d5565b60405180910390fd5b600073ffffffffffffffffffffffffffffffffffffffff168173ffffffffffffffffffffffffffffffffffffffff161415611971576040517f08c379a0000000000000000000000000000000000000000000000000000000008152600401611968906122f5565b60405180910390fd5b61197a81611a29565b50565b7f000000000000000000000000000000000000000000000000000000000000000073ffffffffffffffffffffffffffffffffffffffff166351cff8d9826040518263ffffffff1660e01b81526004016119d6919061223b565b600060405180830381600087803b1580156119f057600080fd5b505af1158015611a04573d6000803e3d6000fd5b5050505050565b600033905090565b6001816000016000828254019250508190555050565b60008060009054906101000a900473ffffffffffffffffffffffffffffffffffffffff169050816000806101000a81548173ffffffffffffffffffffffffffffffffffffffff021916908373ffffffffffffffffffffffffffffffffffffffff1602179055508173ffffffffffffffffffffffffffffffffffffffff168173ffffffffffffffffffffffffffffffffffffffff167f8be0079c531659141344cd1fd0a4f28419497f9722a3daafe3b4186f6b6457e060405160405180910390a35050565b60008060026005016000600f6000015481526020019081526020016000208481548110611b43577f4e487b7100000000000000000000000000000000000000000000000000000000600052603260045260246000fd5b9060005260206000200160009054906101000a900473ffffffffffffffffffffffffffffffffffffffff169050600060026004016000600f6000015481526020019081526020016000208481548110611bc5577f4e487b7100000000000000000000000000000000000000000000000000000000600052603260045260246000fd5b906000526020600020015440905060026005016000600f600001548152602001908152602001600020805490508282604051602001611c059291906121df565b6040516020818303038152906040528051906020012060001c611c28919061260d565b9250505092915050565b7f000000000000000000000000000000000000000000000000000000000000000073ffffffffffffffffffffffffffffffffffffffff1663f340fa0182846040518363ffffffff1660e01b8152600401611c8c9190612220565b6000604051808303818588803b158015611ca557600080fd5b505af1158015611cb9573d6000803e3d6000fd5b50505050505050565b6000600d5482611cd29190612522565b9050919050565b611ce38282611ce7565b5050565b80471015611d2a576040517f08c379a0000000000000000000000000000000000000000000000000000000008152600401611d21906123b5565b60405180910390fd5b60008273ffffffffffffffffffffffffffffffffffffffff1682604051611d509061220b565b60006040518083038185875af1925050503d8060008114611d8d576040519150601f19603f3d011682016040523d82523d6000602084013e611d92565b606091505b5050905080611dd6576040517f08c379a0000000000000000000000000000000000000000000000000000000008152600401611dcd90612395565b60405180910390fd5b505050565b600081359050611dea81612a60565b92915050565b600081359050611dff81612a77565b92915050565b600081359050611e1481612a8e565b92915050565b600081519050611e2981612a8e565b92915050565b600060208284031215611e4157600080fd5b6000611e4f84828501611ddb565b91505092915050565b600060208284031215611e6a57600080fd5b6000611e7884828501611df0565b91505092915050565b600060208284031215611e9357600080fd5b6000611ea184828501611e05565b91505092915050565b600060208284031215611ebc57600080fd5b6000611eca84828501611e1a565b91505092915050565b60008060008060808587031215611ee957600080fd5b6000611ef787828801611e05565b9450506020611f0887828801611e05565b9350506040611f1987828801611e05565b9250506060611f2a87828801611e05565b91505092959194509250565b611f3f81612568565b82525050565b611f4e81612556565b82525050565b611f65611f6082612556565b6125df565b82525050565b611f748161257a565b82525050565b611f8b611f8682612586565b6125f1565b82525050565b611f9a816125cd565b82525050565b6000611fad6019836124bb565b9150611fb8826126d8565b602082019050919050565b6000611fd06020836124bb565b9150611fdb82612701565b602082019050919050565b6000611ff36026836124bb565b9150611ffe8261272a565b604082019050919050565b60006120166019836124bb565b915061202182612779565b602082019050919050565b60006120396021836124bb565b9150612044826127a2565b604082019050919050565b600061205c6031836124bb565b9150612067826127f1565b604082019050919050565b600061207f6021836124bb565b915061208a82612840565b604082019050919050565b60006120a2603a836124bb565b91506120ad8261288f565b604082019050919050565b60006120c5601d836124bb565b91506120d0826128de565b602082019050919050565b60006120e86020836124bb565b91506120f382612907565b602082019050919050565b600061210b601d836124bb565b915061211682612930565b602082019050919050565b600061212e6026836124bb565b915061213982612959565b604082019050919050565b60006121516000836124b0565b915061215c826129a8565b600082019050919050565b6000612174601e836124bb565b915061217f826129ab565b602082019050919050565b60006121976024836124bb565b91506121a2826129d4565b604082019050919050565b60006121ba601f836124bb565b91506121c582612a23565b602082019050919050565b6121d9816125c3565b82525050565b60006121eb8285611f54565b6014820191506121fb8284611f7a565b6020820191508190509392505050565b600061221682612144565b9150819050919050565b60006020820190506122356000830184611f45565b92915050565b60006020820190506122506000830184611f36565b92915050565b600060408201905061226b6000830185611f45565b61227860208301846121d0565b9392505050565b60006020820190506122946000830184611f6b565b92915050565b60006020820190506122af6000830184611f91565b92915050565b600060208201905081810360008301526122ce81611fa0565b9050919050565b600060208201905081810360008301526122ee81611fc3565b9050919050565b6000602082019050818103600083015261230e81611fe6565b9050919050565b6000602082019050818103600083015261232e81612009565b9050919050565b6000602082019050818103600083015261234e8161202c565b9050919050565b6000602082019050818103600083015261236e8161204f565b9050919050565b6000602082019050818103600083015261238e81612072565b9050919050565b600060208201905081810360008301526123ae81612095565b9050919050565b600060208201905081810360008301526123ce816120b8565b9050919050565b600060208201905081810360008301526123ee816120db565b9050919050565b6000602082019050818103600083015261240e816120fe565b9050919050565b6000602082019050818103600083015261242e81612121565b9050919050565b6000602082019050818103600083015261244e81612167565b9050919050565b6000602082019050818103600083015261246e8161218a565b9050919050565b6000602082019050818103600083015261248e816121ad565b9050919050565b60006020820190506124aa60008301846121d0565b92915050565b600081905092915050565b600082825260208201905092915050565b60006124d7826125c3565b91506124e2836125c3565b9250827fffffffffffffffffffffffffffffffffffffffffffffffffffffffffffffffff038211156125175761251661263e565b5b828201905092915050565b600061252d826125c3565b9150612538836125c3565b92508282101561254b5761254a61263e565b5b828203905092915050565b6000612561826125a3565b9050919050565b6000612573826125a3565b9050919050565b60008115159050919050565b6000819050919050565b600081905061259e82612a4c565b919050565b600073ffffffffffffffffffffffffffffffffffffffff82169050919050565b6000819050919050565b60006125d882612590565b9050919050565b60006125ea826125fb565b9050919050565b6000819050919050565b6000612606826126cb565b9050919050565b6000612618826125c3565b9150612623836125c3565b9250826126335761263261266d565b5b828206905092915050565b7f4e487b7100000000000000000000000000000000000000000000000000000000600052601160045260246000fd5b7f4e487b7100000000000000000000000000000000000000000000000000000000600052601260045260246000fd5b7f4e487b7100000000000000000000000000000000000000000000000000000000600052602160045260246000fd5b60008160601b9050919050565b7f4c6f74746572793a206e6f7420656e6f7567682066756e647300000000000000600082015250565b7f4c6f74746572793a206c6f7474657279206973207374696c6c20616374697665600082015250565b7f4f776e61626c653a206e6577206f776e657220697320746865207a65726f206160008201527f6464726573730000000000000000000000000000000000000000000000000000602082015250565b7f4c6f74746572793a20696e616374697665206c6f747465727900000000000000600082015250565b7f4c6f74746572793a2063616c6c6572206e6f742061207061727469636970616e60008201527f7400000000000000000000000000000000000000000000000000000000000000602082015250565b7f4c6f74746572793a2063616e6e6f74206368616e6765207072696365206f662060008201527f616e20616374697665206c6f7474657279000000000000000000000000000000602082015250565b7f4c6f74746572793a206c6f7474657279207265616368656420646561646c696e60008201527f6500000000000000000000000000000000000000000000000000000000000000602082015250565b7f416464726573733a20756e61626c6520746f2073656e642076616c75652c207260008201527f6563697069656e74206d61792068617665207265766572746564000000000000602082015250565b7f416464726573733a20696e73756666696369656e742062616c616e6365000000600082015250565b7f4f776e61626c653a2063616c6c6572206973206e6f7420746865206f776e6572600082015250565b7f4c6f746572793a206c6f7474657279207374696c6c206f6e676f696e67000000600082015250565b7f4c6f74746572793a206d6178206e756d626572206f66207469636b657473207260008201527f6561636865640000000000000000000000000000000000000000000000000000602082015250565b50565b7f4c6f74746572793a206c6f7474657279207374696c6c2072756e6e696e670000600082015250565b7f4c6f74746572793a206f6e6c792077696e6e65722063616e20636c61696d207060008201527f72697a6500000000000000000000000000000000000000000000000000000000602082015250565b7f5265656e7472616e637947756172643a207265656e7472616e742063616c6c00600082015250565b60028110612a5d57612a5c61269c565b5b50565b612a6981612556565b8114612a7457600080fd5b50565b612a8081612568565b8114612a8b57600080fd5b50565b612a97816125c3565b8114612aa257600080fd5b5056fea26469706673582212205ee57374ce85bfbf06f1fcae1915d764b27e339cd469a4b395ffa1f0970fb0cf64736f6c63430008020033608060405234801561001057600080fd5b5061002d61002261003260201b60201c565b61003a60201b60201c565b6100fe565b600033905090565b60008060009054906101000a900473ffffffffffffffffffffffffffffffffffffffff169050816000806101000a81548173ffffffffffffffffffffffffffffffffffffffff021916908373ffffffffffffffffffffffffffffffffffffffff1602179055508173ffffffffffffffffffffffffffffffffffffffff168173ffffffffffffffffffffffffffffffffffffffff167f8be0079c531659141344cd1fd0a4f28419497f9722a3daafe3b4186f6b6457e060405160405180910390a35050565b610bfc8061010d6000396000f3fe6080604052600436106100555760003560e01c806351cff8d91461005a578063715018a6146100835780638da5cb5b1461009a578063e3a9db1a146100c5578063f2fde38b14610102578063f340fa011461012b575b600080fd5b34801561006657600080fd5b50610081600480360381019061007c91906107f5565b610147565b005b34801561008f57600080fd5b506100986102c7565b005b3480156100a657600080fd5b506100af61034f565b6040516100bc9190610900565b60405180910390f35b3480156100d157600080fd5b506100ec60048036038101906100e791906107cc565b610378565b6040516100f9919061099b565b60405180910390f35b34801561010e57600080fd5b50610129600480360381019061012491906107cc565b6103c1565b005b610145600480360381019061014091906107cc565b6104b9565b005b61014f6105e2565b73ffffffffffffffffffffffffffffffffffffffff1661016d61034f565b73ffffffffffffffffffffffffffffffffffffffff16146101c3576040517f08c379a00000000000000000000000000000000000000000000000000000000081526004016101ba9061097b565b60405180910390fd5b6000600160008373ffffffffffffffffffffffffffffffffffffffff1673ffffffffffffffffffffffffffffffffffffffff1681526020019081526020016000205490506000600160008473ffffffffffffffffffffffffffffffffffffffff1673ffffffffffffffffffffffffffffffffffffffff16815260200190815260200160002081905550610275818373ffffffffffffffffffffffffffffffffffffffff166105ea90919063ffffffff16565b8173ffffffffffffffffffffffffffffffffffffffff167f7084f5476618d8e60b11ef0d7d3f06914655adb8793e28ff7f018d4c76d505d5826040516102bb919061099b565b60405180910390a25050565b6102cf6105e2565b73ffffffffffffffffffffffffffffffffffffffff166102ed61034f565b73ffffffffffffffffffffffffffffffffffffffff1614610343576040517f08c379a000000000000000000000000000000000000000000000000000000000815260040161033a9061097b565b60405180910390fd5b61034d60006106de565b565b60008060009054906101000a900473ffffffffffffffffffffffffffffffffffffffff16905090565b6000600160008373ffffffffffffffffffffffffffffffffffffffff1673ffffffffffffffffffffffffffffffffffffffff168152602001908152602001600020549050919050565b6103c96105e2565b73ffffffffffffffffffffffffffffffffffffffff166103e761034f565b73ffffffffffffffffffffffffffffffffffffffff161461043d576040517f08c379a00000000000000000000000000000000000000000000000000000000081526004016104349061097b565b60405180910390fd5b600073ffffffffffffffffffffffffffffffffffffffff168173ffffffffffffffffffffffffffffffffffffffff1614156104ad576040517f08c379a00000000000000000000000000000000000000000000000000000000081526004016104a49061091b565b60405180910390fd5b6104b6816106de565b50565b6104c16105e2565b73ffffffffffffffffffffffffffffffffffffffff166104df61034f565b73ffffffffffffffffffffffffffffffffffffffff1614610535576040517f08c379a000000000000000000000000000000000000000000000000000000000815260040161052c9061097b565b60405180910390fd5b600034905080600160008473ffffffffffffffffffffffffffffffffffffffff1673ffffffffffffffffffffffffffffffffffffffff168152602001908152602001600020600082825461058991906109d2565b925050819055508173ffffffffffffffffffffffffffffffffffffffff167f2da466a7b24304f47e87fa2e1e5a81b9831ce54fec19055ce277ca2f39ba42c4826040516105d6919061099b565b60405180910390a25050565b600033905090565b8047101561062d576040517f08c379a00000000000000000000000000000000000000000000000000000000081526004016106249061095b565b60405180910390fd5b60008273ffffffffffffffffffffffffffffffffffffffff1682604051610653906108eb565b60006040518083038185875af1925050503d8060008114610690576040519150601f19603f3d011682016040523d82523d6000602084013e610695565b606091505b50509050806106d9576040517f08c379a00000000000000000000000000000000000000000000000000000000081526004016106d09061093b565b60405180910390fd5b505050565b60008060009054906101000a900473ffffffffffffffffffffffffffffffffffffffff169050816000806101000a81548173ffffffffffffffffffffffffffffffffffffffff021916908373ffffffffffffffffffffffffffffffffffffffff1602179055508173ffffffffffffffffffffffffffffffffffffffff168173ffffffffffffffffffffffffffffffffffffffff167f8be0079c531659141344cd1fd0a4f28419497f9722a3daafe3b4186f6b6457e060405160405180910390a35050565b6000813590506107b181610b98565b92915050565b6000813590506107c681610baf565b92915050565b6000602082840312156107de57600080fd5b60006107ec848285016107a2565b91505092915050565b60006020828403121561080757600080fd5b6000610815848285016107b7565b91505092915050565b61082781610a28565b82525050565b600061083a6026836109c1565b915061084582610aa5565b604082019050919050565b600061085d603a836109c1565b915061086882610af4565b604082019050919050565b6000610880601d836109c1565b915061088b82610b43565b602082019050919050565b60006108a36020836109c1565b91506108ae82610b6c565b602082019050919050565b60006108c66000836109b6565b91506108d182610b95565b600082019050919050565b6108e581610a6c565b82525050565b60006108f6826108b9565b9150819050919050565b6000602082019050610915600083018461081e565b92915050565b600060208201905081810360008301526109348161082d565b9050919050565b6000602082019050818103600083015261095481610850565b9050919050565b6000602082019050818103600083015261097481610873565b9050919050565b6000602082019050818103600083015261099481610896565b9050919050565b60006020820190506109b060008301846108dc565b92915050565b600081905092915050565b600082825260208201905092915050565b60006109dd82610a6c565b91506109e883610a6c565b9250827fffffffffffffffffffffffffffffffffffffffffffffffffffffffffffffffff03821115610a1d57610a1c610a76565b5b828201905092915050565b6000610a3382610a4c565b9050919050565b6000610a4582610a4c565b9050919050565b600073ffffffffffffffffffffffffffffffffffffffff82169050919050565b6000819050919050565b7f4e487b7100000000000000000000000000000000000000000000000000000000600052601160045260246000fd5b7f4f776e61626c653a206e6577206f776e657220697320746865207a65726f206160008201527f6464726573730000000000000000000000000000000000000000000000000000602082015250565b7f416464726573733a20756e61626c6520746f2073656e642076616c75652c207260008201527f6563697069656e74206d61792068617665207265766572746564000000000000602082015250565b7f416464726573733a20696e73756666696369656e742062616c616e6365000000600082015250565b7f4f776e61626c653a2063616c6c6572206973206e6f7420746865206f776e6572600082015250565b50565b610ba181610a28565b8114610bac57600080fd5b50565b610bb881610a3a565b8114610bc357600080fd5b5056fea26469706673582212204b5cd46ad38eefbc91faa6b518e761643b3ded611b961de794825164ba61ad7864736f6c63430008020033",
  "immutableReferences": {
    "111": [
      {
        "length": 32,
        "start": 3375
      },
      {
        "length": 32,
        "start": 6527
      },
      {
        "length": 32,
        "start": 7220
      }
    ]
  },
  "source": "// SPDX-License-Identifier: MIT\npragma solidity 0.8.2;\n\nimport \"@openzeppelin/contracts/access/Ownable.sol\"; \nimport \"@openzeppelin/contracts/security/ReentrancyGuard.sol\";\nimport \"@openzeppelin/contracts/security/PullPayment.sol\";\nimport \"@openzeppelin/contracts/utils/Address.sol\"; \nimport \"@openzeppelin/contracts/utils/Counters.sol\";\nimport \"@openzeppelin/contracts/utils/structs/EnumerableSet.sol\";\n\ncontract GameLottery is PullPayment, Ownable, ReentrancyGuard {\n    \n    using Counters for Counters.Counter;\n    \n    struct Lottery {\n        mapping(uint256 => uint256) startBlocks;\n        mapping(uint256 => uint256) deadlines;\n        mapping(uint256 => address) winner;\n        mapping(address => Counters.Counter) lotteriesWon; \n        mapping(uint256 => uint256 []) blockNumbers;\n        mapping(uint256 => address []) participants;\n        mapping(uint256 => mapping(address => bool)) isParticipant;\n        mapping(uint256 => mapping(address => Counters.Counter)) userTickets;\n        mapping(uint256 => uint256) totalTicketsBought;\n    }  \n\n    enum LotteryStates { Active, Inactive }\n\n    Lottery private lottery; \n    uint256 public maxTickets;\n    uint256 public maxUserTickets;  \n    uint256 public ticketPrice;\n    LotteryStates public lotteryState;\n    Counters.Counter public lotteryId;\n    Counters.Counter public totalTickets; \n\n    event ChangeLotteryState(LotteryStates indexed newState);\n    event AnnounceWinner(address indexed winner);\n    event BuyTicket(address buyer, uint256 lotteryId);\n    event Refund(address to, uint256 amount);\n    event TicketPriceChanged(uint256 price);\n    event CreateLottery(uint256 lotteryId);\n\n    modifier onlyActiveLottery {\n        require(lotteryState == LotteryStates.Active, \"Lottery: inactive lottery\");\n        _;\n    }\n\n    modifier onlyCurrentWinner {\n        require(lottery.winner[lotteryId._value] == msg.sender, \"Lottery: only winner can claim prize\");\n        _;\n    }\n\n    modifier respectMaxTickets {\n        _;\n        require(lottery.userTickets[lotteryId._value][msg.sender]._value <= maxUserTickets, \"Lottery: max number of tickets reached\"); \n        require(totalTickets._value <= maxTickets, \"Lottery: max number of tickets reached\");\n    }\n    \n    modifier onlyParticipant {\n        require(lottery.isParticipant[lotteryId._value][msg.sender], \"Lottery: caller not a participant\");\n        _;\n    }\n\n    modifier respectDeadline {\n        require(block.number < lottery.deadlines[lotteryId._value], \"Lottery: lottery reached deadline\");\n        _;\n    }\n\n    /// @notice initialize the first loterry\n    constructor() {\n        lotteryId._value = 0;\n        lotteryState = LotteryStates.Inactive; \n    }\n\n    /// @dev buy a lottery ticket with this function \n    /// @notice lottery has to be active for people to be able to ticket \n    function buyTicket() public payable onlyActiveLottery respectMaxTickets respectDeadline {\n        require(msg.value >= ticketPrice, \"Lottery: not enough funds\"); \n        lottery.participants[lotteryId._value].push(address(msg.sender));\n        lottery.blockNumbers[lotteryId._value].push(block.number + 1 + lottery.blockNumbers[lotteryId._value].length);\n        totalTickets.increment(); \n        lottery.userTickets[lotteryId._value][msg.sender].increment();\n        lottery.isParticipant[lotteryId._value][msg.sender] = true;\n        if (msg.value > ticketPrice){\n            uint256 rest = calculateRest(msg.value);\n            refundRest(msg.sender, rest);\n            emit Refund(msg.sender, rest);\n        }\n        emit BuyTicket(msg.sender, lotteryId._value);\n    }\n\n    /// @dev actives the lottery \n    /// @param _deadline time after lottery should be closed\n    /// @param _ticketPrice price of the a ticket during the lottery\n    /// @param _maxTickets maximum amount of tickets to be sold during this lottery\n    /// @param _maxUserTickets maximum amount of tickets a user can buy during this lottery\n    /// @notice _returns lottery Id \n    function newLottery (\n        uint256 _deadline, \n        uint256 _ticketPrice, \n        uint256 _maxTickets, \n        uint256 _maxUserTickets) external onlyOwner {\n        require(lotteryState == LotteryStates.Inactive, \"Lottery: lottery is still active\");\n        lotteryState = LotteryStates.Active;\n        lotteryId.increment();\n        maxTickets = _maxTickets;\n        maxUserTickets = _maxUserTickets;\n        totalTickets._value = 0;\n        ticketPrice = _ticketPrice;\n        lottery.startBlocks[lotteryId._value] = block.number + 1;\n        lottery.deadlines[lotteryId._value] = block.number + 1 + _deadline;\n        emit ChangeLotteryState(LotteryStates.Active);\n        emit CreateLottery(lotteryId._value);\n    } \n\n    /// @dev calculates the winner of the lottery\n    /// @notice generates random number from random block number and random user address\n    /// @notice increments lotteries of a participant\n    /// @notice deactivates current lottery\n    /// @notice stores total tickets bought during current lottery round\n    /// @notice transfers prize to escrow\n    function calculateWinner() external \n    onlyActiveLottery onlyParticipant returns (address) {\n        require(isLotteryOver(), \"Lottery: lottery still running\");\n        address _winner;\n        \n        if(lottery.participants[lotteryId._value].length < 1){\n            _winner = address(0);\n            lottery.winner[lotteryId._value] = _winner;\n            lotteryState = LotteryStates.Inactive;        \n            emit AnnounceWinner(_winner);\n            return _winner; \n        }\n\n        uint256 participantIndex = block.number % lottery.participants[lotteryId._value].length;\n        uint256 blockNumberIndex = block.number % lottery.blockNumbers[lotteryId._value].length;\n        uint256 winnerIndex = generateRandomNumber(participantIndex, blockNumberIndex);\n        \n        _winner = lottery.participants[lotteryId._value][winnerIndex];\n        lottery.winner[lotteryId._value] = _winner; // winner\n        lottery.lotteriesWon[_winner].increment(); // increments winner count of lottery winner\n        lotteryState = LotteryStates.Inactive;\n        lottery.totalTicketsBought[lotteryId._value] = totalTickets._value; \n        _asyncTransfer(lottery.winner[lotteryId._value], address(this).balance);\n        emit AnnounceWinner(lottery.participants[lotteryId._value][winnerIndex]); \n        return _winner;\n    }\n\n    /// @dev returns the winner of the current lottery if there is one\n    function getWinner() external view returns (address _winner){\n        _winner = lottery.winner[lotteryId._value];\n    }\n\n    /// @dev returns the tickets owned by the caller of the function\n    function ticketsOwned(address _participant) external view returns (uint256 _ticketsOwned) {\n        _ticketsOwned = lottery.userTickets[lotteryId._value][_participant]._value;\n    }\n\n    /// @dev get lotteries won \n    function lotteriesWon(address _participant) external view returns (uint256 _lotteriesWon){\n        _lotteriesWon = lottery.lotteriesWon[_participant]._value;\n    }\n\n    /// @dev checks whether lottery isOver\n    function isLotteryOver() public view returns (bool) {\n        if (block.number < lottery.deadlines[lotteryId._value]) return false;\n        return true;\n    } \n\n    /// @dev allows owner of lottery to set price of the ticket\n    /// @param price new price of a ticket\n    function setPrice(uint256 price) external onlyOwner {\n        require(lotteryState == LotteryStates.Inactive, \"Lottery: cannot change price of an active lottery\");\n        ticketPrice = price;\n        emit TicketPriceChanged(price); \n    } \n\n    /// @dev retrieves lottery deadline\n    function deadline() public view returns(uint256) {\n        return lottery.deadlines[lotteryId._value];\n    }\n\n    /// @dev returns start block of current lottery if gameStarted\n    function startBlock() public view returns (uint256 _startBlock){\n        _startBlock = lotteryId._value != 0 ? lottery.startBlocks[lotteryId._value] : 0;\n    }\n    \n    /// @dev generates a pseudo random number \n    /// @param participantIndex index for the participant array\n    /// @param blockNumberIndex index for the blockNumber array\n    function generateRandomNumber(\n        uint256 participantIndex, \n        uint256 blockNumberIndex) \n    private view returns (uint indexWinner) {\n        address randomParticipant = lottery.participants[lotteryId._value][participantIndex];\n        bytes32 blHash = blockhash(lottery.blockNumbers[lotteryId._value][blockNumberIndex]); \n        indexWinner = uint(keccak256(abi.encodePacked(randomParticipant, blHash))) % lottery.participants[lotteryId._value].length; \n    }\n\n    /// @dev calculate rest amount of eth to send back to users\n    /// @param value amount the user will pay with\n    function calculateRest(uint256 value) private view returns(uint256 rest){\n        rest = value - ticketPrice; \n    }\n\n    /// @dev refunds gas to a user if it exceeds lottery price\n    /// @param to address to do a redund\n    /// @param toRefund amount to refund \n    function refundRest(address to, uint256 toRefund) private {\n        Address.sendValue(payable(to), toRefund); \n    }\n\n    /// @dev allows winner of current lottery to withdraw payment\n    /// @param payee address of recipient to whom amount will be sent\n    function withdrawPayments(address payable payee) public override onlyCurrentWinner nonReentrant {\n        require(lotteryState == LotteryStates.Inactive, \"Lotery: lottery still ongoing\");\n        super.withdrawPayments(payee);\n    }\n\n    /// @dev get participants and blocknumbers\n    /// @dev if empty function calls to contract\n    fallback() external payable {}\n    receive() external payable {}\n}\n",
  "sourcePath": "/home/rasguy92/Documents/gameLoft/contracts/GameLottery.sol",
  "compiler": {
    "name": "solc",
    "version": "0.8.2+commit.661d1103.Emscripten.clang"
  },
  "schemaVersion": "3.4.4",
  "updatedAt": "2022-01-16T02:23:01.070Z",
  "devdoc": {
    "kind": "dev",
    "methods": {
      "buyTicket()": {
        "details": "buy a lottery ticket with this function "
      },
      "calculateWinner()": {
        "details": "calculates the winner of the lottery"
      },
      "deadline()": {
        "details": "retrieves lottery deadline"
      },
      "getWinner()": {
        "details": "returns the winner of the current lottery if there is one"
      },
      "isLotteryOver()": {
        "details": "checks whether lottery isOver"
      },
      "lotteriesWon(address)": {
        "details": "get lotteries won "
      },
      "newLottery(uint256,uint256,uint256,uint256)": {
        "details": "actives the lottery ",
        "params": {
          "_deadline": "time after lottery should be closed",
          "_maxTickets": "maximum amount of tickets to be sold during this lottery",
          "_maxUserTickets": "maximum amount of tickets a user can buy during this lottery",
          "_ticketPrice": "price of the a ticket during the lottery"
        }
      },
      "owner()": {
        "details": "Returns the address of the current owner."
      },
      "payments(address)": {
        "details": "Returns the payments owed to an address.",
        "params": {
          "dest": "The creditor's address."
        }
      },
      "renounceOwnership()": {
        "details": "Leaves the contract without owner. It will not be possible to call `onlyOwner` functions anymore. Can only be called by the current owner. NOTE: Renouncing ownership will leave the contract without an owner, thereby removing any functionality that is only available to the owner."
      },
      "setPrice(uint256)": {
        "details": "allows owner of lottery to set price of the ticket",
        "params": {
          "price": "new price of a ticket"
        }
      },
      "startBlock()": {
        "details": "returns start block of current lottery if gameStarted"
      },
      "ticketsOwned(address)": {
        "details": "returns the tickets owned by the caller of the function"
      },
      "transferOwnership(address)": {
        "details": "Transfers ownership of the contract to a new account (`newOwner`). Can only be called by the current owner."
      },
      "withdrawPayments(address)": {
        "details": "allows winner of current lottery to withdraw payment",
        "params": {
          "payee": "address of recipient to whom amount will be sent"
        }
      }
    },
    "version": 1
  },
  "userdoc": {
    "kind": "user",
    "methods": {
      "buyTicket()": {
        "notice": "lottery has to be active for people to be able to ticket "
      },
      "calculateWinner()": {
        "notice": "generates random number from random block number and random user addressincrements lotteries of a participantdeactivates current lotterystores total tickets bought during current lottery roundtransfers prize to escrow"
      },
      "constructor": {
        "notice": "initialize the first loterry"
      },
      "newLottery(uint256,uint256,uint256,uint256)": {
        "notice": "_returns lottery Id "
      }
    },
    "version": 1
  }
}