{
  "contractName": "GameLottery",
  "abi": [
    {
      "inputs": [
        {
          "internalType": "uint256",
          "name": "_ticketPrice",
          "type": "uint256"
        },
        {
          "internalType": "uint256",
          "name": "_deadline",
          "type": "uint256"
        }
      ],
      "stateMutability": "nonpayable",
      "type": "constructor"
    },
    {
      "anonymous": false,
      "inputs": [
        {
          "indexed": true,
          "internalType": "address",
          "name": "winner",
          "type": "address"
        }
      ],
      "name": "AnnounceWinner",
      "type": "event"
    },
    {
      "anonymous": false,
      "inputs": [
        {
          "indexed": true,
          "internalType": "enum GameLottery.LotteryStates",
          "name": "newState",
          "type": "uint8"
        }
      ],
      "name": "ChangeLotteryState",
      "type": "event"
    },
    {
      "anonymous": false,
      "inputs": [
        {
          "indexed": true,
          "internalType": "address",
          "name": "previousOwner",
          "type": "address"
        },
        {
          "indexed": true,
          "internalType": "address",
          "name": "newOwner",
          "type": "address"
        }
      ],
      "name": "OwnershipTransferred",
      "type": "event"
    },
    {
      "anonymous": false,
      "inputs": [
        {
          "indexed": false,
          "internalType": "address",
          "name": "to",
          "type": "address"
        },
        {
          "indexed": false,
          "internalType": "uint256",
          "name": "amount",
          "type": "uint256"
        }
      ],
      "name": "Refund",
      "type": "event"
    },
    {
      "anonymous": false,
      "inputs": [
        {
          "indexed": false,
          "internalType": "uint256",
          "name": "price",
          "type": "uint256"
        }
      ],
      "name": "TicketPriceChanged",
      "type": "event"
    },
    {
      "stateMutability": "payable",
      "type": "fallback",
      "payable": true
    },
    {
      "inputs": [],
      "name": "owner",
      "outputs": [
        {
          "internalType": "address",
          "name": "",
          "type": "address"
        }
      ],
      "stateMutability": "view",
      "type": "function",
      "constant": true
    },
    {
      "inputs": [
        {
          "internalType": "address",
          "name": "dest",
          "type": "address"
        }
      ],
      "name": "payments",
      "outputs": [
        {
          "internalType": "uint256",
          "name": "",
          "type": "uint256"
        }
      ],
      "stateMutability": "view",
      "type": "function",
      "constant": true
    },
    {
      "inputs": [],
      "name": "renounceOwnership",
      "outputs": [],
      "stateMutability": "nonpayable",
      "type": "function"
    },
    {
      "inputs": [
        {
          "internalType": "address",
          "name": "newOwner",
          "type": "address"
        }
      ],
      "name": "transferOwnership",
      "outputs": [],
      "stateMutability": "nonpayable",
      "type": "function"
    },
    {
      "stateMutability": "payable",
      "type": "receive",
      "payable": true
    },
    {
      "inputs": [],
      "name": "buyTicket",
      "outputs": [],
      "stateMutability": "payable",
      "type": "function",
      "payable": true
    },
    {
      "inputs": [],
      "name": "getPrice",
      "outputs": [
        {
          "internalType": "uint256",
          "name": "",
          "type": "uint256"
        }
      ],
      "stateMutability": "view",
      "type": "function",
      "constant": true
    },
    {
      "inputs": [
        {
          "internalType": "uint256",
          "name": "deadline",
          "type": "uint256"
        }
      ],
      "name": "newLottery",
      "outputs": [],
      "stateMutability": "nonpayable",
      "type": "function"
    },
    {
      "inputs": [
        {
          "internalType": "uint256",
          "name": "participantIndex",
          "type": "uint256"
        },
        {
          "internalType": "uint256",
          "name": "blockNumberIndex",
          "type": "uint256"
        }
      ],
      "name": "calculateWinner",
      "outputs": [],
      "stateMutability": "nonpayable",
      "type": "function"
    },
    {
      "inputs": [],
      "name": "isLotteryOver",
      "outputs": [
        {
          "internalType": "bool",
          "name": "",
          "type": "bool"
        }
      ],
      "stateMutability": "view",
      "type": "function",
      "constant": true
    },
    {
      "inputs": [
        {
          "internalType": "uint256",
          "name": "price",
          "type": "uint256"
        }
      ],
      "name": "setPrice",
      "outputs": [],
      "stateMutability": "nonpayable",
      "type": "function"
    },
    {
      "inputs": [
        {
          "internalType": "address payable",
          "name": "payee",
          "type": "address"
        }
      ],
      "name": "withdrawPayments",
      "outputs": [],
      "stateMutability": "nonpayable",
      "type": "function"
    }
  ],
  "bytecode": "0x60a06040523480156200001157600080fd5b5060405162002c6138038062002c61833981810160405281019062000037919062000252565b60405162000045906200022d565b604051809103906000f08015801562000062573d6000803e3d6000fd5b5073ffffffffffffffffffffffffffffffffffffffff1660808173ffffffffffffffffffffffffffffffffffffffff1660601b81525050620000b9620000ad6200016160201b60201c565b6200016960201b60201c565b600180819055506000600860000181905550670de0b6b3a764000082620000e1919062000293565b6007819055506000600660006101000a81548160ff0219169083600181111562000134577f4e487b7100000000000000000000000000000000000000000000000000000000600052602160045260246000fd5b02179055508060026000016000600860000154815260200190815260200160002081905550505062000347565b600033905090565b60008060009054906101000a900473ffffffffffffffffffffffffffffffffffffffff169050816000806101000a81548173ffffffffffffffffffffffffffffffffffffffff021916908373ffffffffffffffffffffffffffffffffffffffff1602179055508173ffffffffffffffffffffffffffffffffffffffff168173ffffffffffffffffffffffffffffffffffffffff167f8be0079c531659141344cd1fd0a4f28419497f9722a3daafe3b4186f6b6457e060405160405180910390a35050565b610d098062001f5883390190565b6000815190506200024c816200032d565b92915050565b600080604083850312156200026657600080fd5b600062000276858286016200023b565b925050602062000289858286016200023b565b9150509250929050565b6000620002a082620002f4565b9150620002ad83620002f4565b9250817fffffffffffffffffffffffffffffffffffffffffffffffffffffffffffffffff0483118215151615620002e957620002e8620002fe565b5b828202905092915050565b6000819050919050565b7f4e487b7100000000000000000000000000000000000000000000000000000000600052601160045260246000fd5b6200033881620002f4565b81146200034457600080fd5b50565b60805160601c611be46200037460003960008181610a3001528181610e2e015261101e0152611be46000f3fe6080604052600436106100a05760003560e01c80638da5cb5b116100645780638da5cb5b1461016657806391b7f5ed1461019157806398d5fdca146101ba578063e2982c21146101e5578063edca914c14610222578063f2fde38b1461022c576100a7565b806331b3eb94146100a957806348ed994c146100d257806352e4b395146100fb5780636572ae1314610126578063715018a61461014f576100a7565b366100a757005b005b3480156100b557600080fd5b506100d060048036038101906100cb9190611306565b610255565b005b3480156100de57600080fd5b506100f960048036038101906100f4919061132f565b6103ea565b005b34801561010757600080fd5b50610110610622565b60405161011d9190611625565b60405180910390f35b34801561013257600080fd5b5061014d60048036038101906101489190611381565b610672565b005b34801561015b57600080fd5b506101646108b4565b005b34801561017257600080fd5b5061017b61093c565b60405161018891906115c6565b60405180910390f35b34801561019d57600080fd5b506101b860048036038101906101b3919061132f565b610965565b005b3480156101c657600080fd5b506101cf610a22565b6040516101dc9190611760565b60405180910390f35b3480156101f157600080fd5b5061020c600480360381019061020791906112dd565b610a2c565b6040516102199190611760565b60405180910390f35b61022a610ade565b005b34801561023857600080fd5b50610253600480360381019061024e91906112dd565b610d34565b005b3373ffffffffffffffffffffffffffffffffffffffff1660026001016000600860000154815260200190815260200160002060009054906101000a900473ffffffffffffffffffffffffffffffffffffffff1673ffffffffffffffffffffffffffffffffffffffff16146102c857600080fd5b6002600154141561030e576040517f08c379a000000000000000000000000000000000000000000000000000000000815260040161030590611720565b60405180910390fd5b600260018190555060018081111561034f577f4e487b7100000000000000000000000000000000000000000000000000000000600052602160045260246000fd5b600660009054906101000a900460ff166001811115610397577f4e487b7100000000000000000000000000000000000000000000000000000000600052602160045260246000fd5b146103d7576040517f08c379a00000000000000000000000000000000000000000000000000000000081526004016103ce90611700565b60405180910390fd5b6103e081610e2c565b6001808190555050565b6103f2610eba565b73ffffffffffffffffffffffffffffffffffffffff1661041061093c565b73ffffffffffffffffffffffffffffffffffffffff1614610466576040517f08c379a000000000000000000000000000000000000000000000000000000000815260040161045d906116e0565b60405180910390fd5b60018081111561049f577f4e487b7100000000000000000000000000000000000000000000000000000000600052602160045260246000fd5b600660009054906101000a900460ff1660018111156104e7577f4e487b7100000000000000000000000000000000000000000000000000000000600052602160045260246000fd5b14610527576040517f08c379a000000000000000000000000000000000000000000000000000000000815260040161051e90611740565b60405180910390fd5b6000600660006101000a81548160ff02191690836001811115610573577f4e487b7100000000000000000000000000000000000000000000000000000000600052602160045260246000fd5b02179055506105826008610ec2565b806001436105909190611797565b61059a9190611797565b60026000016000600860000154815260200190815260200160002081905550600060018111156105f3577f4e487b7100000000000000000000000000000000000000000000000000000000600052602160045260246000fd5b7fb06d6f0857f3408d34057d77accbaea13492a39e477e30e5f410fef5cb55da5460405160405180910390a250565b60006103e86002600001600060086000015481526020019081526020016000205461064d91906117ed565b6103e84261065b91906117ed565b101561066a576000905061066f565b600190505b90565b600060018111156106ac577f4e487b7100000000000000000000000000000000000000000000000000000000600052602160045260246000fd5b600660009054906101000a900460ff1660018111156106f4577f4e487b7100000000000000000000000000000000000000000000000000000000600052602160045260246000fd5b14610734576040517f08c379a000000000000000000000000000000000000000000000000000000000815260040161072b90611680565b60405180910390fd5b60006107408383610ed8565b90506002600301600060086000015481526020019081526020016000208181548110610795577f4e487b7100000000000000000000000000000000000000000000000000000000600052603260045260246000fd5b9060005260206000200160009054906101000a900473ffffffffffffffffffffffffffffffffffffffff1660026001016000600860000154815260200190815260200160002060006101000a81548173ffffffffffffffffffffffffffffffffffffffff021916908373ffffffffffffffffffffffffffffffffffffffff1602179055506001600660006101000a81548160ff02191690836001811115610865577f4e487b7100000000000000000000000000000000000000000000000000000000600052602160045260246000fd5b02179055506108af60026001016000600860000154815260200190815260200160002060009054906101000a900473ffffffffffffffffffffffffffffffffffffffff164761101c565b505050565b6108bc610eba565b73ffffffffffffffffffffffffffffffffffffffff166108da61093c565b73ffffffffffffffffffffffffffffffffffffffff1614610930576040517f08c379a0000000000000000000000000000000000000000000000000000000008152600401610927906116e0565b60405180910390fd5b61093a60006110ac565b565b60008060009054906101000a900473ffffffffffffffffffffffffffffffffffffffff16905090565b61096d610eba565b73ffffffffffffffffffffffffffffffffffffffff1661098b61093c565b73ffffffffffffffffffffffffffffffffffffffff16146109e1576040517f08c379a00000000000000000000000000000000000000000000000000000000081526004016109d8906116e0565b60405180910390fd5b806007819055507f70aa15e700a2c874a0358150f8fed3716cb8c992634a5321dc6d9a54a161e0b681604051610a179190611760565b60405180910390a150565b6000600754905090565b60007f000000000000000000000000000000000000000000000000000000000000000073ffffffffffffffffffffffffffffffffffffffff1663e3a9db1a836040518263ffffffff1660e01b8152600401610a8791906115c6565b60206040518083038186803b158015610a9f57600080fd5b505afa158015610ab3573d6000803e3d6000fd5b505050506040513d601f19601f82011682018060405250810190610ad79190611358565b9050919050565b60006001811115610b18577f4e487b7100000000000000000000000000000000000000000000000000000000600052602160045260246000fd5b600660009054906101000a900460ff166001811115610b60577f4e487b7100000000000000000000000000000000000000000000000000000000600052602160045260246000fd5b14610ba0576040517f08c379a0000000000000000000000000000000000000000000000000000000008152600401610b9790611680565b60405180910390fd5b600754341015610be5576040517f08c379a0000000000000000000000000000000000000000000000000000000008152600401610bdc90611640565b60405180910390fd5b600260030160006008600001548152602001908152602001600020339080600181540180825580915050600190039060005260206000200160009091909190916101000a81548173ffffffffffffffffffffffffffffffffffffffff021916908373ffffffffffffffffffffffffffffffffffffffff1602179055506002800160006008600001548152602001908152602001600020600280016000600860000154815260200190815260200160002080549050600143610ca69190611797565b610cb09190611797565b9080600181540180825580915050600190039060005260206000200160009091909190915055600754341115610d32576000610ceb34611170565b9050610cf73382611187565b7fbb28353e4598c3b9199101a66e0989549b659a59a54d2c27fbb183f1932c8e6d3382604051610d289291906115fc565b60405180910390a1505b565b610d3c610eba565b73ffffffffffffffffffffffffffffffffffffffff16610d5a61093c565b73ffffffffffffffffffffffffffffffffffffffff1614610db0576040517f08c379a0000000000000000000000000000000000000000000000000000000008152600401610da7906116e0565b60405180910390fd5b600073ffffffffffffffffffffffffffffffffffffffff168173ffffffffffffffffffffffffffffffffffffffff161415610e20576040517f08c379a0000000000000000000000000000000000000000000000000000000008152600401610e1790611660565b60405180910390fd5b610e29816110ac565b50565b7f000000000000000000000000000000000000000000000000000000000000000073ffffffffffffffffffffffffffffffffffffffff166351cff8d9826040518263ffffffff1660e01b8152600401610e8591906115e1565b600060405180830381600087803b158015610e9f57600080fd5b505af1158015610eb3573d6000803e3d6000fd5b5050505050565b600033905090565b6001816000016000828254019250508190555050565b6000806002600301600060086000015481526020019081526020016000208481548110610f2e577f4e487b7100000000000000000000000000000000000000000000000000000000600052603260045260246000fd5b9060005260206000200160009054906101000a900473ffffffffffffffffffffffffffffffffffffffff169050600060028001600060086000015481526020019081526020016000208481548110610faf577f4e487b7100000000000000000000000000000000000000000000000000000000600052603260045260246000fd5b9060005260206000200154409050600260030160006008600001548152602001908152602001600020805490508282604051602001610fef929190611585565b6040516020818303038152906040528051906020012060001c611012919061190d565b9250505092915050565b7f000000000000000000000000000000000000000000000000000000000000000073ffffffffffffffffffffffffffffffffffffffff1663f340fa0182846040518363ffffffff1660e01b815260040161107691906115c6565b6000604051808303818588803b15801561108f57600080fd5b505af11580156110a3573d6000803e3d6000fd5b50505050505050565b60008060009054906101000a900473ffffffffffffffffffffffffffffffffffffffff169050816000806101000a81548173ffffffffffffffffffffffffffffffffffffffff021916908373ffffffffffffffffffffffffffffffffffffffff1602179055508173ffffffffffffffffffffffffffffffffffffffff168173ffffffffffffffffffffffffffffffffffffffff167f8be0079c531659141344cd1fd0a4f28419497f9722a3daafe3b4186f6b6457e060405160405180910390a35050565b6000600754826111809190611847565b9050919050565b6111918282611195565b5050565b804710156111d8576040517f08c379a00000000000000000000000000000000000000000000000000000000081526004016111cf906116c0565b60405180910390fd5b60008273ffffffffffffffffffffffffffffffffffffffff16826040516111fe906115b1565b60006040518083038185875af1925050503d806000811461123b576040519150601f19603f3d011682016040523d82523d6000602084013e611240565b606091505b5050905080611284576040517f08c379a000000000000000000000000000000000000000000000000000000000815260040161127b906116a0565b60405180910390fd5b505050565b60008135905061129881611b69565b92915050565b6000813590506112ad81611b80565b92915050565b6000813590506112c281611b97565b92915050565b6000815190506112d781611b97565b92915050565b6000602082840312156112ef57600080fd5b60006112fd84828501611289565b91505092915050565b60006020828403121561131857600080fd5b60006113268482850161129e565b91505092915050565b60006020828403121561134157600080fd5b600061134f848285016112b3565b91505092915050565b60006020828403121561136a57600080fd5b6000611378848285016112c8565b91505092915050565b6000806040838503121561139457600080fd5b60006113a2858286016112b3565b92505060206113b3858286016112b3565b9150509250929050565b6113c68161188d565b82525050565b6113d58161187b565b82525050565b6113ec6113e78261187b565b6118df565b82525050565b6113fb8161189f565b82525050565b61141261140d826118ab565b6118f1565b82525050565b6000611425601983611786565b9150611430826119a9565b602082019050919050565b6000611448602683611786565b9150611453826119d2565b604082019050919050565b600061146b601983611786565b915061147682611a21565b602082019050919050565b600061148e603a83611786565b915061149982611a4a565b604082019050919050565b60006114b1601d83611786565b91506114bc82611a99565b602082019050919050565b60006114d4602083611786565b91506114df82611ac2565b602082019050919050565b60006114f7601d83611786565b915061150282611aeb565b602082019050919050565b600061151a60008361177b565b915061152582611b14565b600082019050919050565b600061153d601f83611786565b915061154882611b17565b602082019050919050565b6000611560601d83611786565b915061156b82611b40565b602082019050919050565b61157f816118d5565b82525050565b600061159182856113db565b6014820191506115a18284611401565b6020820191508190509392505050565b60006115bc8261150d565b9150819050919050565b60006020820190506115db60008301846113cc565b92915050565b60006020820190506115f660008301846113bd565b92915050565b600060408201905061161160008301856113cc565b61161e6020830184611576565b9392505050565b600060208201905061163a60008301846113f2565b92915050565b6000602082019050818103600083015261165981611418565b9050919050565b600060208201905081810360008301526116798161143b565b9050919050565b600060208201905081810360008301526116998161145e565b9050919050565b600060208201905081810360008301526116b981611481565b9050919050565b600060208201905081810360008301526116d9816114a4565b9050919050565b600060208201905081810360008301526116f9816114c7565b9050919050565b60006020820190508181036000830152611719816114ea565b9050919050565b6000602082019050818103600083015261173981611530565b9050919050565b6000602082019050818103600083015261175981611553565b9050919050565b60006020820190506117756000830184611576565b92915050565b600081905092915050565b600082825260208201905092915050565b60006117a2826118d5565b91506117ad836118d5565b9250827fffffffffffffffffffffffffffffffffffffffffffffffffffffffffffffffff038211156117e2576117e161193e565b5b828201905092915050565b60006117f8826118d5565b9150611803836118d5565b9250817fffffffffffffffffffffffffffffffffffffffffffffffffffffffffffffffff048311821515161561183c5761183b61193e565b5b828202905092915050565b6000611852826118d5565b915061185d836118d5565b9250828210156118705761186f61193e565b5b828203905092915050565b6000611886826118b5565b9050919050565b6000611898826118b5565b9050919050565b60008115159050919050565b6000819050919050565b600073ffffffffffffffffffffffffffffffffffffffff82169050919050565b6000819050919050565b60006118ea826118fb565b9050919050565b6000819050919050565b60006119068261199c565b9050919050565b6000611918826118d5565b9150611923836118d5565b9250826119335761193261196d565b5b828206905092915050565b7f4e487b7100000000000000000000000000000000000000000000000000000000600052601160045260246000fd5b7f4e487b7100000000000000000000000000000000000000000000000000000000600052601260045260246000fd5b60008160601b9050919050565b7f4c6f74746572793a206e6f7420656e6f7567682066756e647300000000000000600082015250565b7f4f776e61626c653a206e6577206f776e657220697320746865207a65726f206160008201527f6464726573730000000000000000000000000000000000000000000000000000602082015250565b7f4c6f74746572793a20696e616374697665206c6f747465727900000000000000600082015250565b7f416464726573733a20756e61626c6520746f2073656e642076616c75652c207260008201527f6563697069656e74206d61792068617665207265766572746564000000000000602082015250565b7f416464726573733a20696e73756666696369656e742062616c616e6365000000600082015250565b7f4f776e61626c653a2063616c6c6572206973206e6f7420746865206f776e6572600082015250565b7f4c6f746572793a206c6f7474657279207374696c6c206f6e676f696e67000000600082015250565b50565b7f5265656e7472616e637947756172643a207265656e7472616e742063616c6c00600082015250565b7f4c6f74746572793a206c6f7474657279206e6f7420696e616374697665000000600082015250565b611b728161187b565b8114611b7d57600080fd5b50565b611b898161188d565b8114611b9457600080fd5b50565b611ba0816118d5565b8114611bab57600080fd5b5056fea26469706673582212208278a7281778ea43c3331baed83540a713def27800c3dbbca79a4f18df33c0cc64736f6c63430008020033608060405234801561001057600080fd5b5061002d61002261003260201b60201c565b61003a60201b60201c565b6100fe565b600033905090565b60008060009054906101000a900473ffffffffffffffffffffffffffffffffffffffff169050816000806101000a81548173ffffffffffffffffffffffffffffffffffffffff021916908373ffffffffffffffffffffffffffffffffffffffff1602179055508173ffffffffffffffffffffffffffffffffffffffff168173ffffffffffffffffffffffffffffffffffffffff167f8be0079c531659141344cd1fd0a4f28419497f9722a3daafe3b4186f6b6457e060405160405180910390a35050565b610bfc8061010d6000396000f3fe6080604052600436106100555760003560e01c806351cff8d91461005a578063715018a6146100835780638da5cb5b1461009a578063e3a9db1a146100c5578063f2fde38b14610102578063f340fa011461012b575b600080fd5b34801561006657600080fd5b50610081600480360381019061007c91906107f5565b610147565b005b34801561008f57600080fd5b506100986102c7565b005b3480156100a657600080fd5b506100af61034f565b6040516100bc9190610900565b60405180910390f35b3480156100d157600080fd5b506100ec60048036038101906100e791906107cc565b610378565b6040516100f9919061099b565b60405180910390f35b34801561010e57600080fd5b50610129600480360381019061012491906107cc565b6103c1565b005b610145600480360381019061014091906107cc565b6104b9565b005b61014f6105e2565b73ffffffffffffffffffffffffffffffffffffffff1661016d61034f565b73ffffffffffffffffffffffffffffffffffffffff16146101c3576040517f08c379a00000000000000000000000000000000000000000000000000000000081526004016101ba9061097b565b60405180910390fd5b6000600160008373ffffffffffffffffffffffffffffffffffffffff1673ffffffffffffffffffffffffffffffffffffffff1681526020019081526020016000205490506000600160008473ffffffffffffffffffffffffffffffffffffffff1673ffffffffffffffffffffffffffffffffffffffff16815260200190815260200160002081905550610275818373ffffffffffffffffffffffffffffffffffffffff166105ea90919063ffffffff16565b8173ffffffffffffffffffffffffffffffffffffffff167f7084f5476618d8e60b11ef0d7d3f06914655adb8793e28ff7f018d4c76d505d5826040516102bb919061099b565b60405180910390a25050565b6102cf6105e2565b73ffffffffffffffffffffffffffffffffffffffff166102ed61034f565b73ffffffffffffffffffffffffffffffffffffffff1614610343576040517f08c379a000000000000000000000000000000000000000000000000000000000815260040161033a9061097b565b60405180910390fd5b61034d60006106de565b565b60008060009054906101000a900473ffffffffffffffffffffffffffffffffffffffff16905090565b6000600160008373ffffffffffffffffffffffffffffffffffffffff1673ffffffffffffffffffffffffffffffffffffffff168152602001908152602001600020549050919050565b6103c96105e2565b73ffffffffffffffffffffffffffffffffffffffff166103e761034f565b73ffffffffffffffffffffffffffffffffffffffff161461043d576040517f08c379a00000000000000000000000000000000000000000000000000000000081526004016104349061097b565b60405180910390fd5b600073ffffffffffffffffffffffffffffffffffffffff168173ffffffffffffffffffffffffffffffffffffffff1614156104ad576040517f08c379a00000000000000000000000000000000000000000000000000000000081526004016104a49061091b565b60405180910390fd5b6104b6816106de565b50565b6104c16105e2565b73ffffffffffffffffffffffffffffffffffffffff166104df61034f565b73ffffffffffffffffffffffffffffffffffffffff1614610535576040517f08c379a000000000000000000000000000000000000000000000000000000000815260040161052c9061097b565b60405180910390fd5b600034905080600160008473ffffffffffffffffffffffffffffffffffffffff1673ffffffffffffffffffffffffffffffffffffffff168152602001908152602001600020600082825461058991906109d2565b925050819055508173ffffffffffffffffffffffffffffffffffffffff167f2da466a7b24304f47e87fa2e1e5a81b9831ce54fec19055ce277ca2f39ba42c4826040516105d6919061099b565b60405180910390a25050565b600033905090565b8047101561062d576040517f08c379a00000000000000000000000000000000000000000000000000000000081526004016106249061095b565b60405180910390fd5b60008273ffffffffffffffffffffffffffffffffffffffff1682604051610653906108eb565b60006040518083038185875af1925050503d8060008114610690576040519150601f19603f3d011682016040523d82523d6000602084013e610695565b606091505b50509050806106d9576040517f08c379a00000000000000000000000000000000000000000000000000000000081526004016106d09061093b565b60405180910390fd5b505050565b60008060009054906101000a900473ffffffffffffffffffffffffffffffffffffffff169050816000806101000a81548173ffffffffffffffffffffffffffffffffffffffff021916908373ffffffffffffffffffffffffffffffffffffffff1602179055508173ffffffffffffffffffffffffffffffffffffffff168173ffffffffffffffffffffffffffffffffffffffff167f8be0079c531659141344cd1fd0a4f28419497f9722a3daafe3b4186f6b6457e060405160405180910390a35050565b6000813590506107b181610b98565b92915050565b6000813590506107c681610baf565b92915050565b6000602082840312156107de57600080fd5b60006107ec848285016107a2565b91505092915050565b60006020828403121561080757600080fd5b6000610815848285016107b7565b91505092915050565b61082781610a28565b82525050565b600061083a6026836109c1565b915061084582610aa5565b604082019050919050565b600061085d603a836109c1565b915061086882610af4565b604082019050919050565b6000610880601d836109c1565b915061088b82610b43565b602082019050919050565b60006108a36020836109c1565b91506108ae82610b6c565b602082019050919050565b60006108c66000836109b6565b91506108d182610b95565b600082019050919050565b6108e581610a6c565b82525050565b60006108f6826108b9565b9150819050919050565b6000602082019050610915600083018461081e565b92915050565b600060208201905081810360008301526109348161082d565b9050919050565b6000602082019050818103600083015261095481610850565b9050919050565b6000602082019050818103600083015261097481610873565b9050919050565b6000602082019050818103600083015261099481610896565b9050919050565b60006020820190506109b060008301846108dc565b92915050565b600081905092915050565b600082825260208201905092915050565b60006109dd82610a6c565b91506109e883610a6c565b9250827fffffffffffffffffffffffffffffffffffffffffffffffffffffffffffffffff03821115610a1d57610a1c610a76565b5b828201905092915050565b6000610a3382610a4c565b9050919050565b6000610a4582610a4c565b9050919050565b600073ffffffffffffffffffffffffffffffffffffffff82169050919050565b6000819050919050565b7f4e487b7100000000000000000000000000000000000000000000000000000000600052601160045260246000fd5b7f4f776e61626c653a206e6577206f776e657220697320746865207a65726f206160008201527f6464726573730000000000000000000000000000000000000000000000000000602082015250565b7f416464726573733a20756e61626c6520746f2073656e642076616c75652c207260008201527f6563697069656e74206d61792068617665207265766572746564000000000000602082015250565b7f416464726573733a20696e73756666696369656e742062616c616e6365000000600082015250565b7f4f776e61626c653a2063616c6c6572206973206e6f7420746865206f776e6572600082015250565b50565b610ba181610a28565b8114610bac57600080fd5b50565b610bb881610a3a565b8114610bc357600080fd5b5056fea26469706673582212204b5cd46ad38eefbc91faa6b518e761643b3ded611b961de794825164ba61ad7864736f6c63430008020033",
  "immutableReferences": {
    "111": [
      {
        "length": 32,
        "start": 2608
      },
      {
        "length": 32,
        "start": 3630
      },
      {
        "length": 32,
        "start": 4126
      }
    ]
  },
  "source": "// SPDX-License-Identifier: MIT\npragma solidity 0.8.2;\n\nimport \"@openzeppelin/contracts/access/Ownable.sol\"; \nimport \"@openzeppelin/contracts/security/ReentrancyGuard.sol\";\nimport \"@openzeppelin/contracts/security/PullPayment.sol\";\nimport \"@openzeppelin/contracts/utils/Address.sol\"; \nimport \"@openzeppelin/contracts/utils/Counters.sol\";\nimport \"@openzeppelin/contracts/utils/structs/EnumerableSet.sol\";\n\ncontract GameLottery is PullPayment, Ownable, ReentrancyGuard {\n    \n    using Counters for Counters.Counter;\n    \n    struct Lottery {\n        mapping(uint256 => uint256) deadlines;\n        mapping(uint256 => address) winner;\n        mapping(uint256 => uint256 []) blockNumbers;\n        mapping(uint256 => address []) participants;\n    }  \n\n    enum LotteryStates { Active, Inactive }\n\n    Lottery private lottery; \n    LotteryStates lotteryState;\n    uint256 private ticketPrice;\n    Counters.Counter private lotteryId; \n\n    event ChangeLotteryState (LotteryStates indexed newState);\n    event AnnounceWinner (address indexed winner);\n    event Refund(address to, uint256 amount);\n    event TicketPriceChanged(uint256 price);\n\n    modifier onlyActiveLottery {\n        require(lotteryState == LotteryStates.Active, \"Lottery: inactive lottery\");\n        _;\n    }\n\n    modifier onlyCurrentWinner {\n        require(lottery.winner[lotteryId._value] == msg.sender);\n        _;\n    }\n    \n    /// @notice initialize the first loterry\n    constructor (uint256 _ticketPrice, uint256 _deadline){\n        lotteryId._value = 0;\n        ticketPrice = _ticketPrice * 10 ** 18;\n        lotteryState = LotteryStates.Active; \n        lottery.deadlines[lotteryId._value] = _deadline;\n    } \n\n    /// @dev buy a lottery ticket with this function \n    /// @notice lottery has to be Active for people to be able to ticket \n    function buyTicket() public payable onlyActiveLottery {\n        require(msg.value >= ticketPrice, \"Lottery: not enough funds\"); \n        lottery.participants[lotteryId._value].push(address(msg.sender));\n        lottery.blockNumbers[lotteryId._value].push(block.number + 1 + lottery.blockNumbers[lotteryId._value].length);\n        if (msg.value > ticketPrice){\n            uint256 rest = calculateRest(msg.value);\n            refundRest(msg.sender, rest);\n            emit Refund(msg.sender, rest);\n        }\n    }\n\n    /// @dev retrieves the ticket price \n    function getPrice() external view returns (uint256) {\n        return ticketPrice; \n    }\n\n    /// @dev actives the lottery \n    /// @param deadline blocknumber at which lottery should be closed\n    function newLottery(uint256 deadline) external onlyOwner {\n        require(lotteryState == LotteryStates.Inactive, \"Lottery: lottery not inactive\");\n        lotteryState = LotteryStates.Active;\n        lotteryId.increment();\n        lottery.deadlines[lotteryId._value] = block.number + 1 + deadline;\n        emit ChangeLotteryState(LotteryStates.Active);\n    } \n\n    /// @dev calculates the winner of the lottery\n    /// @param participantIndex index for blocknumbers list\n    /// @param blockNumberIndex index for partipants list\n    function calculateWinner(uint256 participantIndex, uint256 blockNumberIndex) public \n    onlyActiveLottery {\n        uint256 winnerIndex = generateRandomNumber(participantIndex, blockNumberIndex);\n        lottery.winner[lotteryId._value] = lottery.participants[lotteryId._value][winnerIndex];\n        lotteryState = LotteryStates.Inactive;\n        _asyncTransfer(lottery.winner[lotteryId._value], address(this).balance);\n    }\n\n    /// @dev checks whether lottery isOver\n    function isLotteryOver() public view returns (bool) {\n        if (block.timestamp * 1000 < lottery.deadlines[lotteryId._value] * 1000){\n            return false;\n        }\n        return true;\n    } \n\n    /// @dev allows owner of lottery to set price of the ticket\n    /// @param price new price of a ticket\n    function setPrice(uint256 price) external onlyOwner {\n        ticketPrice = price;\n        emit TicketPriceChanged(price); \n    } \n\n    /// @dev generates a pseudo random number \n    /// @param participantIndex index for the participant array\n    /// @param blockNumberIndex index for the blockNumber array\n    function generateRandomNumber(\n        uint256 participantIndex, \n        uint256 blockNumberIndex) \n    private view returns (uint indexWinner) {\n        address randomParticipant = lottery.participants[lotteryId._value][participantIndex];\n        bytes32 blHash = blockhash(lottery.blockNumbers[lotteryId._value][blockNumberIndex]); \n        indexWinner = uint(keccak256(abi.encodePacked(randomParticipant, blHash))) % lottery.participants[lotteryId._value].length; \n    }\n\n    /// @dev calculate rest amount of eth to send back to users\n    /// @param value amount the user will pay with\n    function calculateRest(uint256 value) private view returns(uint256 rest){\n        rest = (value - ticketPrice); \n    }\n\n    /// @dev refunds gas to a user if it exceeds lottery price\n    /// @param to address to do a redund\n    /// @param toRefund amount to refund \n    function refundRest(address to, uint256 toRefund) private {\n        Address.sendValue(payable(to), toRefund); \n    }\n\n    /// @dev allows winner of current lottery to withdraw payment\n    /// @param payee address of recipient to whom amount will be sent\n    function withdrawPayments(address payable payee) public override onlyCurrentWinner nonReentrant {\n        require(lotteryState == LotteryStates.Inactive, \"Lotery: lottery still ongoing\");\n        super.withdrawPayments(payee);\n    }\n\n    /// @dev if empty function calls to contract\n    fallback() external payable {}\n    receive() external payable {}\n}\n",
  "sourcePath": "/home/rasguy92/Documents/gameLoft/contracts/GameLottery.sol",
  "compiler": {
    "name": "solc",
    "version": "0.8.2+commit.661d1103.Emscripten.clang"
  },
  "schemaVersion": "3.4.4",
  "updatedAt": "2022-01-13T02:10:34.647Z",
  "networkType": "ethereum",
  "devdoc": {
    "kind": "dev",
    "methods": {
      "buyTicket()": {
        "details": "buy a lottery ticket with this function "
      },
      "calculateWinner(uint256,uint256)": {
        "details": "calculates the winner of the lottery",
        "params": {
          "blockNumberIndex": "index for partipants list",
          "participantIndex": "index for blocknumbers list"
        }
      },
      "getPrice()": {
        "details": "retrieves the ticket price "
      },
      "isLotteryOver()": {
        "details": "checks whether lottery isOver"
      },
      "newLottery(uint256)": {
        "details": "actives the lottery ",
        "params": {
          "deadline": "blocknumber at which lottery should be closed"
        }
      },
      "owner()": {
        "details": "Returns the address of the current owner."
      },
      "payments(address)": {
        "details": "Returns the payments owed to an address.",
        "params": {
          "dest": "The creditor's address."
        }
      },
      "renounceOwnership()": {
        "details": "Leaves the contract without owner. It will not be possible to call `onlyOwner` functions anymore. Can only be called by the current owner. NOTE: Renouncing ownership will leave the contract without an owner, thereby removing any functionality that is only available to the owner."
      },
      "setPrice(uint256)": {
        "details": "allows owner of lottery to set price of the ticket",
        "params": {
          "price": "new price of a ticket"
        }
      },
      "transferOwnership(address)": {
        "details": "Transfers ownership of the contract to a new account (`newOwner`). Can only be called by the current owner."
      },
      "withdrawPayments(address)": {
        "details": "allows winner of current lottery to withdraw payment",
        "params": {
          "payee": "address of recipient to whom amount will be sent"
        }
      }
    },
    "version": 1
  },
  "userdoc": {
    "kind": "user",
    "methods": {
      "buyTicket()": {
        "notice": "lottery has to be Active for people to be able to ticket "
      },
      "constructor": {
        "notice": "initialize the first loterry"
      }
    },
    "version": 1
  }
}