{
  "contractName": "GameLottery",
  "abi": [
    {
      "inputs": [],
      "stateMutability": "nonpayable",
      "type": "constructor"
    },
    {
      "anonymous": false,
      "inputs": [
        {
          "indexed": true,
          "internalType": "address",
          "name": "winner",
          "type": "address"
        }
      ],
      "name": "AnnounceWinner",
      "type": "event"
    },
    {
      "anonymous": false,
      "inputs": [
        {
          "indexed": false,
          "internalType": "address",
          "name": "buyer",
          "type": "address"
        },
        {
          "indexed": false,
          "internalType": "uint256",
          "name": "lotteryId",
          "type": "uint256"
        }
      ],
      "name": "BuyTicket",
      "type": "event"
    },
    {
      "anonymous": false,
      "inputs": [
        {
          "indexed": true,
          "internalType": "enum GameLottery.LotteryStates",
          "name": "newState",
          "type": "uint8"
        }
      ],
      "name": "ChangeLotteryState",
      "type": "event"
    },
    {
      "anonymous": false,
      "inputs": [
        {
          "indexed": false,
          "internalType": "uint256",
          "name": "lotteryId",
          "type": "uint256"
        }
      ],
      "name": "CreateLottery",
      "type": "event"
    },
    {
      "anonymous": false,
      "inputs": [
        {
          "indexed": true,
          "internalType": "address",
          "name": "previousOwner",
          "type": "address"
        },
        {
          "indexed": true,
          "internalType": "address",
          "name": "newOwner",
          "type": "address"
        }
      ],
      "name": "OwnershipTransferred",
      "type": "event"
    },
    {
      "anonymous": false,
      "inputs": [
        {
          "indexed": false,
          "internalType": "address",
          "name": "to",
          "type": "address"
        },
        {
          "indexed": false,
          "internalType": "uint256",
          "name": "amount",
          "type": "uint256"
        }
      ],
      "name": "Refund",
      "type": "event"
    },
    {
      "anonymous": false,
      "inputs": [
        {
          "indexed": false,
          "internalType": "uint256",
          "name": "price",
          "type": "uint256"
        }
      ],
      "name": "TicketPriceChanged",
      "type": "event"
    },
    {
      "stateMutability": "payable",
      "type": "fallback",
      "payable": true
    },
    {
      "inputs": [],
      "name": "lotteryId",
      "outputs": [
        {
          "internalType": "uint256",
          "name": "_value",
          "type": "uint256"
        }
      ],
      "stateMutability": "view",
      "type": "function",
      "constant": true
    },
    {
      "inputs": [],
      "name": "lotteryState",
      "outputs": [
        {
          "internalType": "enum GameLottery.LotteryStates",
          "name": "",
          "type": "uint8"
        }
      ],
      "stateMutability": "view",
      "type": "function",
      "constant": true
    },
    {
      "inputs": [],
      "name": "maxTickets",
      "outputs": [
        {
          "internalType": "uint256",
          "name": "",
          "type": "uint256"
        }
      ],
      "stateMutability": "view",
      "type": "function",
      "constant": true
    },
    {
      "inputs": [],
      "name": "maxUserTickets",
      "outputs": [
        {
          "internalType": "uint256",
          "name": "",
          "type": "uint256"
        }
      ],
      "stateMutability": "view",
      "type": "function",
      "constant": true
    },
    {
      "inputs": [],
      "name": "owner",
      "outputs": [
        {
          "internalType": "address",
          "name": "",
          "type": "address"
        }
      ],
      "stateMutability": "view",
      "type": "function",
      "constant": true
    },
    {
      "inputs": [
        {
          "internalType": "address",
          "name": "dest",
          "type": "address"
        }
      ],
      "name": "payments",
      "outputs": [
        {
          "internalType": "uint256",
          "name": "",
          "type": "uint256"
        }
      ],
      "stateMutability": "view",
      "type": "function",
      "constant": true
    },
    {
      "inputs": [],
      "name": "renounceOwnership",
      "outputs": [],
      "stateMutability": "nonpayable",
      "type": "function"
    },
    {
      "inputs": [],
      "name": "ticketPrice",
      "outputs": [
        {
          "internalType": "uint256",
          "name": "",
          "type": "uint256"
        }
      ],
      "stateMutability": "view",
      "type": "function",
      "constant": true
    },
    {
      "inputs": [],
      "name": "totalTickets",
      "outputs": [
        {
          "internalType": "uint256",
          "name": "_value",
          "type": "uint256"
        }
      ],
      "stateMutability": "view",
      "type": "function",
      "constant": true
    },
    {
      "inputs": [
        {
          "internalType": "address",
          "name": "newOwner",
          "type": "address"
        }
      ],
      "name": "transferOwnership",
      "outputs": [],
      "stateMutability": "nonpayable",
      "type": "function"
    },
    {
      "stateMutability": "payable",
      "type": "receive",
      "payable": true
    },
    {
      "inputs": [],
      "name": "buyTicket",
      "outputs": [],
      "stateMutability": "payable",
      "type": "function",
      "payable": true
    },
    {
      "inputs": [
        {
          "internalType": "uint256",
          "name": "_deadline",
          "type": "uint256"
        },
        {
          "internalType": "uint256",
          "name": "_ticketPrice",
          "type": "uint256"
        },
        {
          "internalType": "uint256",
          "name": "_maxTickets",
          "type": "uint256"
        },
        {
          "internalType": "uint256",
          "name": "_maxUserTickets",
          "type": "uint256"
        }
      ],
      "name": "newLottery",
      "outputs": [],
      "stateMutability": "nonpayable",
      "type": "function"
    },
    {
      "inputs": [],
      "name": "calculateWinner",
      "outputs": [
        {
          "internalType": "address",
          "name": "",
          "type": "address"
        }
      ],
      "stateMutability": "nonpayable",
      "type": "function"
    },
    {
      "inputs": [],
      "name": "getWinner",
      "outputs": [
        {
          "internalType": "address",
          "name": "_winner",
          "type": "address"
        }
      ],
      "stateMutability": "view",
      "type": "function",
      "constant": true
    },
    {
      "inputs": [
        {
          "internalType": "address",
          "name": "_participant",
          "type": "address"
        }
      ],
      "name": "ticketsOwned",
      "outputs": [
        {
          "internalType": "uint256",
          "name": "_ticketsOwned",
          "type": "uint256"
        }
      ],
      "stateMutability": "view",
      "type": "function",
      "constant": true
    },
    {
      "inputs": [
        {
          "internalType": "address",
          "name": "_participant",
          "type": "address"
        }
      ],
      "name": "lotteriesWon",
      "outputs": [
        {
          "internalType": "uint256",
          "name": "_lotteriesWon",
          "type": "uint256"
        }
      ],
      "stateMutability": "view",
      "type": "function",
      "constant": true
    },
    {
      "inputs": [],
      "name": "isLotteryOver",
      "outputs": [
        {
          "internalType": "bool",
          "name": "",
          "type": "bool"
        }
      ],
      "stateMutability": "view",
      "type": "function",
      "constant": true
    },
    {
      "inputs": [
        {
          "internalType": "uint256",
          "name": "price",
          "type": "uint256"
        }
      ],
      "name": "setPrice",
      "outputs": [],
      "stateMutability": "nonpayable",
      "type": "function"
    },
    {
      "inputs": [],
      "name": "deadline",
      "outputs": [
        {
          "internalType": "uint256",
          "name": "",
          "type": "uint256"
        }
      ],
      "stateMutability": "view",
      "type": "function",
      "constant": true
    },
    {
      "inputs": [],
      "name": "startBlock",
      "outputs": [
        {
          "internalType": "uint256",
          "name": "_startBlock",
          "type": "uint256"
        }
      ],
      "stateMutability": "view",
      "type": "function",
      "constant": true
    },
    {
      "inputs": [
        {
          "internalType": "address payable",
          "name": "payee",
          "type": "address"
        }
      ],
      "name": "withdrawPayments",
      "outputs": [],
      "stateMutability": "nonpayable",
      "type": "function"
    }
  ],
  "bytecode": "0x60a06040523480156200001157600080fd5b506040516200002090620001ca565b604051809103906000f0801580156200003d573d6000803e3d6000fd5b5073ffffffffffffffffffffffffffffffffffffffff1660808173ffffffffffffffffffffffffffffffffffffffff1660601b815250506200009462000088620000fe60201b60201c565b6200010660201b60201c565b600180819055506000600f600001819055506001600e60006101000a81548160ff02191690836001811115620000f3577f4e487b7100000000000000000000000000000000000000000000000000000000600052602160045260246000fd5b0217905550620001d8565b600033905090565b60008060009054906101000a900473ffffffffffffffffffffffffffffffffffffffff169050816000806101000a81548173ffffffffffffffffffffffffffffffffffffffff021916908373ffffffffffffffffffffffffffffffffffffffff1602179055508173ffffffffffffffffffffffffffffffffffffffff168173ffffffffffffffffffffffffffffffffffffffff167f8be0079c531659141344cd1fd0a4f28419497f9722a3daafe3b4186f6b6457e060405160405180910390a35050565b610d098062002ba983390190565b60805160601c6129a46200020560003960008181610d2f015281816118da0152611b8f01526129a46000f3fe60806040526004361061012e5760003560e01c80638e7ea5b2116100ab578063dd11247e1161006f578063dd11247e146103c6578063e2982c21146103f1578063e580f47b1461042e578063ea35e80514610459578063edca914c14610484578063f2fde38b1461048e57610135565b80638e7ea5b2146102df57806391b7f5ed1461030a578063951e2021146103335780639b89470314610370578063b0b949891461039b57610135565b806352e4b395116100f257806352e4b3951461021e578063582c4ebf146102495780636939864b14610272578063715018a61461029d5780638da5cb5b146102b457610135565b80631209b1f61461013757806329dcb0cf1461016257806331b3eb941461018d57806348cd4cb1146101b65780634fe6d49a146101e157610135565b3661013557005b005b34801561014357600080fd5b5061014c6104b7565b60405161015991906123ad565b60405180910390f35b34801561016e57600080fd5b506101776104bd565b60405161018491906123ad565b60405180910390f35b34801561019957600080fd5b506101b460048036038101906101af9190611db3565b6104e0565b005b3480156101c257600080fd5b506101cb6106aa565b6040516101d891906123ad565b60405180910390f35b3480156101ed57600080fd5b5061020860048036038101906102039190611d8a565b6106e2565b60405161021591906123ad565b60405180910390f35b34801561022a57600080fd5b50610233610731565b60405161024091906121b7565b60405180910390f35b34801561025557600080fd5b50610270600480360381019061026b9190611e2e565b610767565b005b34801561027e57600080fd5b50610287610a2a565b60405161029491906121d2565b60405180910390f35b3480156102a957600080fd5b506102b2610a3d565b005b3480156102c057600080fd5b506102c9610ac5565b6040516102d69190612158565b60405180910390f35b3480156102eb57600080fd5b506102f4610aee565b6040516103019190612158565b60405180910390f35b34801561031657600080fd5b50610331600480360381019061032c9190611ddc565b610b30565b005b34801561033f57600080fd5b5061035a60048036038101906103559190611d8a565b610cae565b60405161036791906123ad565b60405180910390f35b34801561037c57600080fd5b50610385610d13565b60405161039291906123ad565b60405180910390f35b3480156103a757600080fd5b506103b0610d19565b6040516103bd91906123ad565b60405180910390f35b3480156103d257600080fd5b506103db610d1f565b6040516103e891906123ad565b60405180910390f35b3480156103fd57600080fd5b5061041860048036038101906104139190611d8a565b610d2b565b60405161042591906123ad565b60405180910390f35b34801561043a57600080fd5b50610443610ddd565b60405161045091906123ad565b60405180910390f35b34801561046557600080fd5b5061046e610de9565b60405161047b9190612158565b60405180910390f35b61048c611328565b005b34801561049a57600080fd5b506104b560048036038101906104b09190611d8a565b6117e0565b005b600d5481565b600060026001016000600f60000154815260200190815260200160002054905090565b3373ffffffffffffffffffffffffffffffffffffffff16600280016000600f60000154815260200190815260200160002060009054906101000a900473ffffffffffffffffffffffffffffffffffffffff1673ffffffffffffffffffffffffffffffffffffffff1614610588576040517f08c379a000000000000000000000000000000000000000000000000000000000815260040161057f9061236d565b60405180910390fd5b600260015414156105ce576040517f08c379a00000000000000000000000000000000000000000000000000000000081526004016105c59061238d565b60405180910390fd5b600260018190555060018081111561060f577f4e487b7100000000000000000000000000000000000000000000000000000000600052602160045260246000fd5b600e60009054906101000a900460ff166001811115610657577f4e487b7100000000000000000000000000000000000000000000000000000000600052602160045260246000fd5b14610697576040517f08c379a000000000000000000000000000000000000000000000000000000000815260040161068e9061230d565b60405180910390fd5b6106a0816118d8565b6001808190555050565b600080600f6000015414156106c05760006106dd565b60026000016000600f600001548152602001908152602001600020545b905090565b6000600260030160008373ffffffffffffffffffffffffffffffffffffffff1673ffffffffffffffffffffffffffffffffffffffff168152602001908152602001600020600001549050919050565b600060026001016000600f6000015481526020019081526020016000205443101561075f5760009050610764565b600190505b90565b61076f611966565b73ffffffffffffffffffffffffffffffffffffffff1661078d610ac5565b73ffffffffffffffffffffffffffffffffffffffff16146107e3576040517f08c379a00000000000000000000000000000000000000000000000000000000081526004016107da906122ed565b60405180910390fd5b60018081111561081c577f4e487b7100000000000000000000000000000000000000000000000000000000600052602160045260246000fd5b600e60009054906101000a900460ff166001811115610864577f4e487b7100000000000000000000000000000000000000000000000000000000600052602160045260246000fd5b146108a4576040517f08c379a000000000000000000000000000000000000000000000000000000000815260040161089b9061220d565b60405180910390fd5b6000600e60006101000a81548160ff021916908360018111156108f0577f4e487b7100000000000000000000000000000000000000000000000000000000600052602160045260246000fd5b02179055506108ff600f61196e565b81600b8190555080600c81905550600060106000018190555082600d8190555060014361092c91906123e4565b60026000016000600f600001548152602001908152602001600020819055508360014361095991906123e4565b61096391906123e4565b60026001016000600f60000154815260200190815260200160002081905550600060018111156109bc577f4e487b7100000000000000000000000000000000000000000000000000000000600052602160045260246000fd5b7fb06d6f0857f3408d34057d77accbaea13492a39e477e30e5f410fef5cb55da5460405160405180910390a27f960f4fb18f2af9795686d97891dbd6534865353629cbda12afb278e618197662600f60000154604051610a1c91906123ad565b60405180910390a150505050565b600e60009054906101000a900460ff1681565b610a45611966565b73ffffffffffffffffffffffffffffffffffffffff16610a63610ac5565b73ffffffffffffffffffffffffffffffffffffffff1614610ab9576040517f08c379a0000000000000000000000000000000000000000000000000000000008152600401610ab0906122ed565b60405180910390fd5b610ac36000611984565b565b60008060009054906101000a900473ffffffffffffffffffffffffffffffffffffffff16905090565b6000600280016000600f60000154815260200190815260200160002060009054906101000a900473ffffffffffffffffffffffffffffffffffffffff16905090565b610b38611966565b73ffffffffffffffffffffffffffffffffffffffff16610b56610ac5565b73ffffffffffffffffffffffffffffffffffffffff1614610bac576040517f08c379a0000000000000000000000000000000000000000000000000000000008152600401610ba3906122ed565b60405180910390fd5b600180811115610be5577f4e487b7100000000000000000000000000000000000000000000000000000000600052602160045260246000fd5b600e60009054906101000a900460ff166001811115610c2d577f4e487b7100000000000000000000000000000000000000000000000000000000600052602160045260246000fd5b14610c6d576040517f08c379a0000000000000000000000000000000000000000000000000000000008152600401610c649061226d565b60405180910390fd5b80600d819055507f70aa15e700a2c874a0358150f8fed3716cb8c992634a5321dc6d9a54a161e0b681604051610ca391906123ad565b60405180910390a150565b600060026007016000600f60000154815260200190815260200160002060008373ffffffffffffffffffffffffffffffffffffffff1673ffffffffffffffffffffffffffffffffffffffff168152602001908152602001600020600001549050919050565b600b5481565b600c5481565b60108060000154905081565b60007f000000000000000000000000000000000000000000000000000000000000000073ffffffffffffffffffffffffffffffffffffffff1663e3a9db1a836040518263ffffffff1660e01b8152600401610d869190612158565b60206040518083038186803b158015610d9e57600080fd5b505afa158015610db2573d6000803e3d6000fd5b505050506040513d601f19601f82011682018060405250810190610dd69190611e05565b9050919050565b600f8060000154905081565b6000806001811115610e24577f4e487b7100000000000000000000000000000000000000000000000000000000600052602160045260246000fd5b600e60009054906101000a900460ff166001811115610e6c577f4e487b7100000000000000000000000000000000000000000000000000000000600052602160045260246000fd5b14610eac576040517f08c379a0000000000000000000000000000000000000000000000000000000008152600401610ea39061224d565b60405180910390fd5b610eb4610731565b610ef3576040517f08c379a0000000000000000000000000000000000000000000000000000000008152600401610eea9061234d565b60405180910390fd5b6000600160026005016000600f600001548152602001908152602001600020805490501015611016576000905080600280016000600f60000154815260200190815260200160002060006101000a81548173ffffffffffffffffffffffffffffffffffffffff021916908373ffffffffffffffffffffffffffffffffffffffff1602179055506001600e60006101000a81548160ff02191690836001811115610fc5577f4e487b7100000000000000000000000000000000000000000000000000000000600052602160045260246000fd5b02179055508073ffffffffffffffffffffffffffffffffffffffff167fcfa5d1877ae609f3a62e72e02e3fcf9d3da417038e82e660b155177beaa6b16560405160405180910390a280915050611325565b600060026005016000600f60000154815260200190815260200160002080549050436110429190612525565b9050600060026004016000600f60000154815260200190815260200160002080549050436110709190612525565b9050600061107e8383611a48565b905060026005016000600f60000154815260200190815260200160002081815481106110d3577f4e487b7100000000000000000000000000000000000000000000000000000000600052603260045260246000fd5b9060005260206000200160009054906101000a900473ffffffffffffffffffffffffffffffffffffffff16935083600280016000600f60000154815260200190815260200160002060006101000a81548173ffffffffffffffffffffffffffffffffffffffff021916908373ffffffffffffffffffffffffffffffffffffffff1602179055506111a3600260030160008673ffffffffffffffffffffffffffffffffffffffff1673ffffffffffffffffffffffffffffffffffffffff16815260200190815260200160002061196e565b6001600e60006101000a81548160ff021916908360018111156111ef577f4e487b7100000000000000000000000000000000000000000000000000000000600052602160045260246000fd5b021790555060106000015460026008016000600f6000015481526020019081526020016000208190555061125d600280016000600f60000154815260200190815260200160002060009054906101000a900473ffffffffffffffffffffffffffffffffffffffff1647611b8d565b60026005016000600f60000154815260200190815260200160002081815481106112b0577f4e487b7100000000000000000000000000000000000000000000000000000000600052603260045260246000fd5b9060005260206000200160009054906101000a900473ffffffffffffffffffffffffffffffffffffffff1673ffffffffffffffffffffffffffffffffffffffff167fcfa5d1877ae609f3a62e72e02e3fcf9d3da417038e82e660b155177beaa6b16560405160405180910390a2839450505050505b90565b60006001811115611362577f4e487b7100000000000000000000000000000000000000000000000000000000600052602160045260246000fd5b600e60009054906101000a900460ff1660018111156113aa577f4e487b7100000000000000000000000000000000000000000000000000000000600052602160045260246000fd5b146113ea576040517f08c379a00000000000000000000000000000000000000000000000000000000081526004016113e19061224d565b60405180910390fd5b60026001016000600f600001548152602001908152602001600020544310611447576040517f08c379a000000000000000000000000000000000000000000000000000000000815260040161143e9061228d565b60405180910390fd5b600d5434101561148c576040517f08c379a0000000000000000000000000000000000000000000000000000000008152600401611483906121ed565b60405180910390fd5b60026005016000600f600001548152602001908152602001600020339080600181540180825580915050600190039060005260206000200160009091909190916101000a81548173ffffffffffffffffffffffffffffffffffffffff021916908373ffffffffffffffffffffffffffffffffffffffff16021790555060026004016000600f60000154815260200190815260200160002060026004016000600f6000015481526020019081526020016000208054905060014361154f91906123e4565b61155991906123e4565b9080600181540180825580915050600190039060005260206000200160009091909190915055611589601061196e565b6115e960026007016000600f60000154815260200190815260200160002060003373ffffffffffffffffffffffffffffffffffffffff1673ffffffffffffffffffffffffffffffffffffffff16815260200190815260200160002061196e565b600160026006016000600f60000154815260200190815260200160002060003373ffffffffffffffffffffffffffffffffffffffff1673ffffffffffffffffffffffffffffffffffffffff16815260200190815260200160002060006101000a81548160ff021916908315150217905550600d543411156116b657600061166f34611c1d565b905061167b3382611c34565b7fbb28353e4598c3b9199101a66e0989549b659a59a54d2c27fbb183f1932c8e6d33826040516116ac92919061218e565b60405180910390a1505b7f2a3164428cba5dad15f5ffe47e10cbefdcbbe9e269fd482753982ee8b2648c3e33600f600001546040516116ec92919061218e565b60405180910390a1600c5460026007016000600f60000154815260200190815260200160002060003373ffffffffffffffffffffffffffffffffffffffff1673ffffffffffffffffffffffffffffffffffffffff168152602001908152602001600020600001541115611794576040517f08c379a000000000000000000000000000000000000000000000000000000000815260040161178b9061232d565b60405180910390fd5b600b5460106000015411156117de576040517f08c379a00000000000000000000000000000000000000000000000000000000081526004016117d59061232d565b60405180910390fd5b565b6117e8611966565b73ffffffffffffffffffffffffffffffffffffffff16611806610ac5565b73ffffffffffffffffffffffffffffffffffffffff161461185c576040517f08c379a0000000000000000000000000000000000000000000000000000000008152600401611853906122ed565b60405180910390fd5b600073ffffffffffffffffffffffffffffffffffffffff168173ffffffffffffffffffffffffffffffffffffffff1614156118cc576040517f08c379a00000000000000000000000000000000000000000000000000000000081526004016118c39061222d565b60405180910390fd5b6118d581611984565b50565b7f000000000000000000000000000000000000000000000000000000000000000073ffffffffffffffffffffffffffffffffffffffff166351cff8d9826040518263ffffffff1660e01b81526004016119319190612173565b600060405180830381600087803b15801561194b57600080fd5b505af115801561195f573d6000803e3d6000fd5b5050505050565b600033905090565b6001816000016000828254019250508190555050565b60008060009054906101000a900473ffffffffffffffffffffffffffffffffffffffff169050816000806101000a81548173ffffffffffffffffffffffffffffffffffffffff021916908373ffffffffffffffffffffffffffffffffffffffff1602179055508173ffffffffffffffffffffffffffffffffffffffff168173ffffffffffffffffffffffffffffffffffffffff167f8be0079c531659141344cd1fd0a4f28419497f9722a3daafe3b4186f6b6457e060405160405180910390a35050565b60008060026005016000600f6000015481526020019081526020016000208481548110611a9e577f4e487b7100000000000000000000000000000000000000000000000000000000600052603260045260246000fd5b9060005260206000200160009054906101000a900473ffffffffffffffffffffffffffffffffffffffff169050600060026004016000600f6000015481526020019081526020016000208481548110611b20577f4e487b7100000000000000000000000000000000000000000000000000000000600052603260045260246000fd5b906000526020600020015440905060026005016000600f600001548152602001908152602001600020805490508282604051602001611b60929190612117565b6040516020818303038152906040528051906020012060001c611b839190612525565b9250505092915050565b7f000000000000000000000000000000000000000000000000000000000000000073ffffffffffffffffffffffffffffffffffffffff1663f340fa0182846040518363ffffffff1660e01b8152600401611be79190612158565b6000604051808303818588803b158015611c0057600080fd5b505af1158015611c14573d6000803e3d6000fd5b50505050505050565b6000600d5482611c2d919061243a565b9050919050565b611c3e8282611c42565b5050565b80471015611c85576040517f08c379a0000000000000000000000000000000000000000000000000000000008152600401611c7c906122cd565b60405180910390fd5b60008273ffffffffffffffffffffffffffffffffffffffff1682604051611cab90612143565b60006040518083038185875af1925050503d8060008114611ce8576040519150601f19603f3d011682016040523d82523d6000602084013e611ced565b606091505b5050905080611d31576040517f08c379a0000000000000000000000000000000000000000000000000000000008152600401611d28906122ad565b60405180910390fd5b505050565b600081359050611d4581612929565b92915050565b600081359050611d5a81612940565b92915050565b600081359050611d6f81612957565b92915050565b600081519050611d8481612957565b92915050565b600060208284031215611d9c57600080fd5b6000611daa84828501611d36565b91505092915050565b600060208284031215611dc557600080fd5b6000611dd384828501611d4b565b91505092915050565b600060208284031215611dee57600080fd5b6000611dfc84828501611d60565b91505092915050565b600060208284031215611e1757600080fd5b6000611e2584828501611d75565b91505092915050565b60008060008060808587031215611e4457600080fd5b6000611e5287828801611d60565b9450506020611e6387828801611d60565b9350506040611e7487828801611d60565b9250506060611e8587828801611d60565b91505092959194509250565b611e9a81612480565b82525050565b611ea98161246e565b82525050565b611ec0611ebb8261246e565b6124f7565b82525050565b611ecf81612492565b82525050565b611ee6611ee18261249e565b612509565b82525050565b611ef5816124e5565b82525050565b6000611f086019836123d3565b9150611f13826125f0565b602082019050919050565b6000611f2b6020836123d3565b9150611f3682612619565b602082019050919050565b6000611f4e6026836123d3565b9150611f5982612642565b604082019050919050565b6000611f716019836123d3565b9150611f7c82612691565b602082019050919050565b6000611f946031836123d3565b9150611f9f826126ba565b604082019050919050565b6000611fb76021836123d3565b9150611fc282612709565b604082019050919050565b6000611fda603a836123d3565b9150611fe582612758565b604082019050919050565b6000611ffd601d836123d3565b9150612008826127a7565b602082019050919050565b60006120206020836123d3565b915061202b826127d0565b602082019050919050565b6000612043601d836123d3565b915061204e826127f9565b602082019050919050565b60006120666026836123d3565b915061207182612822565b604082019050919050565b60006120896000836123c8565b915061209482612871565b600082019050919050565b60006120ac601e836123d3565b91506120b782612874565b602082019050919050565b60006120cf6024836123d3565b91506120da8261289d565b604082019050919050565b60006120f2601f836123d3565b91506120fd826128ec565b602082019050919050565b612111816124db565b82525050565b60006121238285611eaf565b6014820191506121338284611ed5565b6020820191508190509392505050565b600061214e8261207c565b9150819050919050565b600060208201905061216d6000830184611ea0565b92915050565b60006020820190506121886000830184611e91565b92915050565b60006040820190506121a36000830185611ea0565b6121b06020830184612108565b9392505050565b60006020820190506121cc6000830184611ec6565b92915050565b60006020820190506121e76000830184611eec565b92915050565b6000602082019050818103600083015261220681611efb565b9050919050565b6000602082019050818103600083015261222681611f1e565b9050919050565b6000602082019050818103600083015261224681611f41565b9050919050565b6000602082019050818103600083015261226681611f64565b9050919050565b6000602082019050818103600083015261228681611f87565b9050919050565b600060208201905081810360008301526122a681611faa565b9050919050565b600060208201905081810360008301526122c681611fcd565b9050919050565b600060208201905081810360008301526122e681611ff0565b9050919050565b6000602082019050818103600083015261230681612013565b9050919050565b6000602082019050818103600083015261232681612036565b9050919050565b6000602082019050818103600083015261234681612059565b9050919050565b600060208201905081810360008301526123668161209f565b9050919050565b60006020820190508181036000830152612386816120c2565b9050919050565b600060208201905081810360008301526123a6816120e5565b9050919050565b60006020820190506123c26000830184612108565b92915050565b600081905092915050565b600082825260208201905092915050565b60006123ef826124db565b91506123fa836124db565b9250827fffffffffffffffffffffffffffffffffffffffffffffffffffffffffffffffff0382111561242f5761242e612556565b5b828201905092915050565b6000612445826124db565b9150612450836124db565b92508282101561246357612462612556565b5b828203905092915050565b6000612479826124bb565b9050919050565b600061248b826124bb565b9050919050565b60008115159050919050565b6000819050919050565b60008190506124b682612915565b919050565b600073ffffffffffffffffffffffffffffffffffffffff82169050919050565b6000819050919050565b60006124f0826124a8565b9050919050565b600061250282612513565b9050919050565b6000819050919050565b600061251e826125e3565b9050919050565b6000612530826124db565b915061253b836124db565b92508261254b5761254a612585565b5b828206905092915050565b7f4e487b7100000000000000000000000000000000000000000000000000000000600052601160045260246000fd5b7f4e487b7100000000000000000000000000000000000000000000000000000000600052601260045260246000fd5b7f4e487b7100000000000000000000000000000000000000000000000000000000600052602160045260246000fd5b60008160601b9050919050565b7f4c6f74746572793a206e6f7420656e6f7567682066756e647300000000000000600082015250565b7f4c6f74746572793a206c6f7474657279206973207374696c6c20616374697665600082015250565b7f4f776e61626c653a206e6577206f776e657220697320746865207a65726f206160008201527f6464726573730000000000000000000000000000000000000000000000000000602082015250565b7f4c6f74746572793a20696e616374697665206c6f747465727900000000000000600082015250565b7f4c6f74746572793a2063616e6e6f74206368616e6765207072696365206f662060008201527f616e20616374697665206c6f7474657279000000000000000000000000000000602082015250565b7f4c6f74746572793a206c6f7474657279207265616368656420646561646c696e60008201527f6500000000000000000000000000000000000000000000000000000000000000602082015250565b7f416464726573733a20756e61626c6520746f2073656e642076616c75652c207260008201527f6563697069656e74206d61792068617665207265766572746564000000000000602082015250565b7f416464726573733a20696e73756666696369656e742062616c616e6365000000600082015250565b7f4f776e61626c653a2063616c6c6572206973206e6f7420746865206f776e6572600082015250565b7f4c6f746572793a206c6f7474657279207374696c6c206f6e676f696e67000000600082015250565b7f4c6f74746572793a206d6178206e756d626572206f66207469636b657473207260008201527f6561636865640000000000000000000000000000000000000000000000000000602082015250565b50565b7f4c6f74746572793a206c6f7474657279207374696c6c2072756e6e696e670000600082015250565b7f4c6f74746572793a206f6e6c792077696e6e65722063616e20636c61696d207060008201527f72697a6500000000000000000000000000000000000000000000000000000000602082015250565b7f5265656e7472616e637947756172643a207265656e7472616e742063616c6c00600082015250565b60028110612926576129256125b4565b5b50565b6129328161246e565b811461293d57600080fd5b50565b61294981612480565b811461295457600080fd5b50565b612960816124db565b811461296b57600080fd5b5056fea2646970667358221220e479d3433173706ee1abab64419551188b6e033ffd28210fb77c676c3e9b8e7964736f6c63430008020033608060405234801561001057600080fd5b5061002d61002261003260201b60201c565b61003a60201b60201c565b6100fe565b600033905090565b60008060009054906101000a900473ffffffffffffffffffffffffffffffffffffffff169050816000806101000a81548173ffffffffffffffffffffffffffffffffffffffff021916908373ffffffffffffffffffffffffffffffffffffffff1602179055508173ffffffffffffffffffffffffffffffffffffffff168173ffffffffffffffffffffffffffffffffffffffff167f8be0079c531659141344cd1fd0a4f28419497f9722a3daafe3b4186f6b6457e060405160405180910390a35050565b610bfc8061010d6000396000f3fe6080604052600436106100555760003560e01c806351cff8d91461005a578063715018a6146100835780638da5cb5b1461009a578063e3a9db1a146100c5578063f2fde38b14610102578063f340fa011461012b575b600080fd5b34801561006657600080fd5b50610081600480360381019061007c91906107f5565b610147565b005b34801561008f57600080fd5b506100986102c7565b005b3480156100a657600080fd5b506100af61034f565b6040516100bc9190610900565b60405180910390f35b3480156100d157600080fd5b506100ec60048036038101906100e791906107cc565b610378565b6040516100f9919061099b565b60405180910390f35b34801561010e57600080fd5b50610129600480360381019061012491906107cc565b6103c1565b005b610145600480360381019061014091906107cc565b6104b9565b005b61014f6105e2565b73ffffffffffffffffffffffffffffffffffffffff1661016d61034f565b73ffffffffffffffffffffffffffffffffffffffff16146101c3576040517f08c379a00000000000000000000000000000000000000000000000000000000081526004016101ba9061097b565b60405180910390fd5b6000600160008373ffffffffffffffffffffffffffffffffffffffff1673ffffffffffffffffffffffffffffffffffffffff1681526020019081526020016000205490506000600160008473ffffffffffffffffffffffffffffffffffffffff1673ffffffffffffffffffffffffffffffffffffffff16815260200190815260200160002081905550610275818373ffffffffffffffffffffffffffffffffffffffff166105ea90919063ffffffff16565b8173ffffffffffffffffffffffffffffffffffffffff167f7084f5476618d8e60b11ef0d7d3f06914655adb8793e28ff7f018d4c76d505d5826040516102bb919061099b565b60405180910390a25050565b6102cf6105e2565b73ffffffffffffffffffffffffffffffffffffffff166102ed61034f565b73ffffffffffffffffffffffffffffffffffffffff1614610343576040517f08c379a000000000000000000000000000000000000000000000000000000000815260040161033a9061097b565b60405180910390fd5b61034d60006106de565b565b60008060009054906101000a900473ffffffffffffffffffffffffffffffffffffffff16905090565b6000600160008373ffffffffffffffffffffffffffffffffffffffff1673ffffffffffffffffffffffffffffffffffffffff168152602001908152602001600020549050919050565b6103c96105e2565b73ffffffffffffffffffffffffffffffffffffffff166103e761034f565b73ffffffffffffffffffffffffffffffffffffffff161461043d576040517f08c379a00000000000000000000000000000000000000000000000000000000081526004016104349061097b565b60405180910390fd5b600073ffffffffffffffffffffffffffffffffffffffff168173ffffffffffffffffffffffffffffffffffffffff1614156104ad576040517f08c379a00000000000000000000000000000000000000000000000000000000081526004016104a49061091b565b60405180910390fd5b6104b6816106de565b50565b6104c16105e2565b73ffffffffffffffffffffffffffffffffffffffff166104df61034f565b73ffffffffffffffffffffffffffffffffffffffff1614610535576040517f08c379a000000000000000000000000000000000000000000000000000000000815260040161052c9061097b565b60405180910390fd5b600034905080600160008473ffffffffffffffffffffffffffffffffffffffff1673ffffffffffffffffffffffffffffffffffffffff168152602001908152602001600020600082825461058991906109d2565b925050819055508173ffffffffffffffffffffffffffffffffffffffff167f2da466a7b24304f47e87fa2e1e5a81b9831ce54fec19055ce277ca2f39ba42c4826040516105d6919061099b565b60405180910390a25050565b600033905090565b8047101561062d576040517f08c379a00000000000000000000000000000000000000000000000000000000081526004016106249061095b565b60405180910390fd5b60008273ffffffffffffffffffffffffffffffffffffffff1682604051610653906108eb565b60006040518083038185875af1925050503d8060008114610690576040519150601f19603f3d011682016040523d82523d6000602084013e610695565b606091505b50509050806106d9576040517f08c379a00000000000000000000000000000000000000000000000000000000081526004016106d09061093b565b60405180910390fd5b505050565b60008060009054906101000a900473ffffffffffffffffffffffffffffffffffffffff169050816000806101000a81548173ffffffffffffffffffffffffffffffffffffffff021916908373ffffffffffffffffffffffffffffffffffffffff1602179055508173ffffffffffffffffffffffffffffffffffffffff168173ffffffffffffffffffffffffffffffffffffffff167f8be0079c531659141344cd1fd0a4f28419497f9722a3daafe3b4186f6b6457e060405160405180910390a35050565b6000813590506107b181610b98565b92915050565b6000813590506107c681610baf565b92915050565b6000602082840312156107de57600080fd5b60006107ec848285016107a2565b91505092915050565b60006020828403121561080757600080fd5b6000610815848285016107b7565b91505092915050565b61082781610a28565b82525050565b600061083a6026836109c1565b915061084582610aa5565b604082019050919050565b600061085d603a836109c1565b915061086882610af4565b604082019050919050565b6000610880601d836109c1565b915061088b82610b43565b602082019050919050565b60006108a36020836109c1565b91506108ae82610b6c565b602082019050919050565b60006108c66000836109b6565b91506108d182610b95565b600082019050919050565b6108e581610a6c565b82525050565b60006108f6826108b9565b9150819050919050565b6000602082019050610915600083018461081e565b92915050565b600060208201905081810360008301526109348161082d565b9050919050565b6000602082019050818103600083015261095481610850565b9050919050565b6000602082019050818103600083015261097481610873565b9050919050565b6000602082019050818103600083015261099481610896565b9050919050565b60006020820190506109b060008301846108dc565b92915050565b600081905092915050565b600082825260208201905092915050565b60006109dd82610a6c565b91506109e883610a6c565b9250827fffffffffffffffffffffffffffffffffffffffffffffffffffffffffffffffff03821115610a1d57610a1c610a76565b5b828201905092915050565b6000610a3382610a4c565b9050919050565b6000610a4582610a4c565b9050919050565b600073ffffffffffffffffffffffffffffffffffffffff82169050919050565b6000819050919050565b7f4e487b7100000000000000000000000000000000000000000000000000000000600052601160045260246000fd5b7f4f776e61626c653a206e6577206f776e657220697320746865207a65726f206160008201527f6464726573730000000000000000000000000000000000000000000000000000602082015250565b7f416464726573733a20756e61626c6520746f2073656e642076616c75652c207260008201527f6563697069656e74206d61792068617665207265766572746564000000000000602082015250565b7f416464726573733a20696e73756666696369656e742062616c616e6365000000600082015250565b7f4f776e61626c653a2063616c6c6572206973206e6f7420746865206f776e6572600082015250565b50565b610ba181610a28565b8114610bac57600080fd5b50565b610bb881610a3a565b8114610bc357600080fd5b5056fea26469706673582212204b5cd46ad38eefbc91faa6b518e761643b3ded611b961de794825164ba61ad7864736f6c63430008020033",
  "immutableReferences": {
    "111": [
      {
        "length": 32,
        "start": 3375
      },
      {
        "length": 32,
        "start": 6362
      },
      {
        "length": 32,
        "start": 7055
      }
    ]
  },
  "source": "// SPDX-License-Identifier: MIT\npragma solidity 0.8.2;\n\nimport \"@openzeppelin/contracts/access/Ownable.sol\"; \nimport \"@openzeppelin/contracts/security/ReentrancyGuard.sol\";\nimport \"@openzeppelin/contracts/security/PullPayment.sol\";\nimport \"@openzeppelin/contracts/utils/Address.sol\"; \nimport \"@openzeppelin/contracts/utils/Counters.sol\";\nimport \"@openzeppelin/contracts/utils/structs/EnumerableSet.sol\";\n\ncontract GameLottery is PullPayment, Ownable, ReentrancyGuard {\n    \n    using Counters for Counters.Counter;\n    \n    struct Lottery {\n        mapping(uint256 => uint256) startBlocks;\n        mapping(uint256 => uint256) deadlines;\n        mapping(uint256 => address) winner;\n        mapping(address => Counters.Counter) lotteriesWon; \n        mapping(uint256 => uint256 []) blockNumbers;\n        mapping(uint256 => address []) participants;\n        mapping(uint256 => mapping(address => bool)) isParticipant;\n        mapping(uint256 => mapping(address => Counters.Counter)) userTickets;\n        mapping(uint256 => uint256) totalTicketsBought;\n    }  \n\n    enum LotteryStates { Active, Inactive }\n\n    Lottery private lottery; \n    uint256 public maxTickets;\n    uint256 public maxUserTickets;  \n    uint256 public ticketPrice;\n    LotteryStates public lotteryState;\n    Counters.Counter public lotteryId;\n    Counters.Counter public totalTickets; \n\n    event ChangeLotteryState(LotteryStates indexed newState);\n    event AnnounceWinner(address indexed winner);\n    event BuyTicket(address buyer, uint256 lotteryId);\n    event Refund(address to, uint256 amount);\n    event TicketPriceChanged(uint256 price);\n    event CreateLottery(uint256 lotteryId);\n\n    modifier onlyActiveLottery {\n        require(lotteryState == LotteryStates.Active, \"Lottery: inactive lottery\");\n        _;\n    }\n\n    modifier onlyCurrentWinner {\n        require(lottery.winner[lotteryId._value] == msg.sender, \"Lottery: only winner can claim prize\");\n        _;\n    }\n\n    modifier respectMaxTickets {\n        _;\n        require(lottery.userTickets[lotteryId._value][msg.sender]._value <= maxUserTickets, \"Lottery: max number of tickets reached\"); \n        require(totalTickets._value <= maxTickets, \"Lottery: max number of tickets reached\");\n    }\n    \n    modifier onlyParticipant {\n        require(lottery.isParticipant[lotteryId._value][msg.sender], \"Lottery: caller not a participant\");\n        _;\n    }\n\n    modifier respectDeadline {\n        require(block.number < lottery.deadlines[lotteryId._value], \"Lottery: lottery reached deadline\");\n        _;\n    }\n\n    /// @notice initialize the first loterry\n    constructor() {\n        lotteryId._value = 0;\n        lotteryState = LotteryStates.Inactive; \n    }\n\n    /// @dev buy a lottery ticket with this function \n    /// @notice lottery has to be active for people to be able to ticket \n    function buyTicket() public payable onlyActiveLottery respectMaxTickets respectDeadline {\n        require(msg.value >= ticketPrice, \"Lottery: not enough funds\"); \n        lottery.participants[lotteryId._value].push(address(msg.sender));\n        lottery.blockNumbers[lotteryId._value].push(block.number + 1 + lottery.blockNumbers[lotteryId._value].length);\n        totalTickets.increment(); \n        lottery.userTickets[lotteryId._value][msg.sender].increment();\n        lottery.isParticipant[lotteryId._value][msg.sender] = true;\n        if (msg.value > ticketPrice){\n            uint256 rest = calculateRest(msg.value);\n            refundRest(msg.sender, rest);\n            emit Refund(msg.sender, rest);\n        }\n        emit BuyTicket(msg.sender, lotteryId._value);\n    }\n\n    /// @dev actives the lottery \n    /// @param _deadline time after lottery should be closed\n    /// @param _ticketPrice price of the a ticket during the lottery\n    /// @param _maxTickets maximum amount of tickets to be sold during this lottery\n    /// @param _maxUserTickets maximum amount of tickets a user can buy during this lottery\n    /// @notice _returns lottery Id \n    function newLottery (\n        uint256 _deadline, \n        uint256 _ticketPrice, \n        uint256 _maxTickets, \n        uint256 _maxUserTickets) external onlyOwner {\n        require(lotteryState == LotteryStates.Inactive, \"Lottery: lottery is still active\");\n        lotteryState = LotteryStates.Active;\n        lotteryId.increment();\n        maxTickets = _maxTickets;\n        maxUserTickets = _maxUserTickets;\n        totalTickets._value = 0;\n        ticketPrice = _ticketPrice;\n        lottery.startBlocks[lotteryId._value] = block.number + 1;\n        lottery.deadlines[lotteryId._value] = block.number + 1 + _deadline;\n        emit ChangeLotteryState(LotteryStates.Active);\n        emit CreateLottery(lotteryId._value);\n    } \n\n    /// @dev calculates the winner of the lottery\n    /// @notice generates random number from random block number and random user address\n    /// @notice increments lotteries of a participant\n    /// @notice deactivates current lottery\n    /// @notice stores total tickets bought during current lottery round\n    /// @notice transfers prize to escrow\n    function calculateWinner() external \n    onlyActiveLottery returns (address) {\n        require(isLotteryOver(), \"Lottery: lottery still running\");\n        address _winner;\n        \n        if(lottery.participants[lotteryId._value].length < 1){\n            _winner = address(0);\n            lottery.winner[lotteryId._value] = _winner;\n            lotteryState = LotteryStates.Inactive;        \n            emit AnnounceWinner(_winner);\n            return _winner; \n        }\n\n        uint256 participantIndex = block.number % lottery.participants[lotteryId._value].length;\n        uint256 blockNumberIndex = block.number % lottery.blockNumbers[lotteryId._value].length;\n        uint256 winnerIndex = generateRandomNumber(participantIndex, blockNumberIndex);\n        \n        _winner = lottery.participants[lotteryId._value][winnerIndex];\n        lottery.winner[lotteryId._value] = _winner; // winner\n        lottery.lotteriesWon[_winner].increment(); // increments winner count of lottery winner\n        lotteryState = LotteryStates.Inactive;\n        lottery.totalTicketsBought[lotteryId._value] = totalTickets._value; \n        _asyncTransfer(lottery.winner[lotteryId._value], address(this).balance);\n        emit AnnounceWinner(lottery.participants[lotteryId._value][winnerIndex]); \n        return _winner;\n    }\n\n    /// @dev returns the winner of the current lottery if there is one\n    function getWinner() external view returns (address _winner){\n        _winner = lottery.winner[lotteryId._value];\n    }\n\n    /// @dev returns the tickets owned by the caller of the function\n    function ticketsOwned(address _participant) external view returns (uint256 _ticketsOwned) {\n        _ticketsOwned = lottery.userTickets[lotteryId._value][_participant]._value;\n    }\n\n    /// @dev get lotteries won \n    function lotteriesWon(address _participant) external view returns (uint256 _lotteriesWon){\n        _lotteriesWon = lottery.lotteriesWon[_participant]._value;\n    }\n\n    /// @dev checks whether lottery isOver\n    function isLotteryOver() public view returns (bool) {\n        if (block.number < lottery.deadlines[lotteryId._value]) return false;\n        return true;\n    } \n\n    /// @dev allows owner of lottery to set price of the ticket\n    /// @param price new price of a ticket\n    function setPrice(uint256 price) external onlyOwner {\n        require(lotteryState == LotteryStates.Inactive, \"Lottery: cannot change price of an active lottery\");\n        ticketPrice = price;\n        emit TicketPriceChanged(price); \n    } \n\n    /// @dev retrieves lottery deadline\n    function deadline() public view returns(uint256) {\n        return lottery.deadlines[lotteryId._value];\n    }\n\n    /// @dev returns start block of current lottery if gameStarted\n    function startBlock() public view returns (uint256 _startBlock){\n        _startBlock = lotteryId._value != 0 ? lottery.startBlocks[lotteryId._value] : 0;\n    }\n    \n    /// @dev generates a pseudo random number \n    /// @param participantIndex index for the participant array\n    /// @param blockNumberIndex index for the blockNumber array\n    function generateRandomNumber(\n        uint256 participantIndex, \n        uint256 blockNumberIndex) \n    private view returns (uint indexWinner) {\n        address randomParticipant = lottery.participants[lotteryId._value][participantIndex];\n        bytes32 blHash = blockhash(lottery.blockNumbers[lotteryId._value][blockNumberIndex]); \n        indexWinner = uint(keccak256(abi.encodePacked(randomParticipant, blHash))) % lottery.participants[lotteryId._value].length; \n    }\n\n    /// @dev calculate rest amount of eth to send back to users\n    /// @param value amount the user will pay with\n    function calculateRest(uint256 value) private view returns(uint256 rest){\n        rest = value - ticketPrice; \n    }\n\n    /// @dev refunds gas to a user if it exceeds lottery price\n    /// @param to address to do a redund\n    /// @param toRefund amount to refund \n    function refundRest(address to, uint256 toRefund) private {\n        Address.sendValue(payable(to), toRefund); \n    }\n\n    /// @dev allows winner of current lottery to withdraw payment\n    /// @param payee address of recipient to whom amount will be sent\n    function withdrawPayments(address payable payee) public override onlyCurrentWinner nonReentrant {\n        require(lotteryState == LotteryStates.Inactive, \"Lotery: lottery still ongoing\");\n        super.withdrawPayments(payee);\n    }\n\n    /// @dev get participants and blocknumbers\n    /// @dev if empty function calls to contract\n    fallback() external payable {}\n    receive() external payable {}\n}\n",
  "sourcePath": "/home/rasguy92/Documents/gameLoft/contracts/GameLottery.sol",
  "compiler": {
    "name": "solc",
    "version": "0.8.2+commit.661d1103.Emscripten.clang"
  },
  "schemaVersion": "3.4.4",
  "updatedAt": "2022-01-16T03:58:56.432Z",
  "networkType": "ethereum",
  "devdoc": {
    "kind": "dev",
    "methods": {
      "buyTicket()": {
        "details": "buy a lottery ticket with this function "
      },
      "calculateWinner()": {
        "details": "calculates the winner of the lottery"
      },
      "deadline()": {
        "details": "retrieves lottery deadline"
      },
      "getWinner()": {
        "details": "returns the winner of the current lottery if there is one"
      },
      "isLotteryOver()": {
        "details": "checks whether lottery isOver"
      },
      "lotteriesWon(address)": {
        "details": "get lotteries won "
      },
      "newLottery(uint256,uint256,uint256,uint256)": {
        "details": "actives the lottery ",
        "params": {
          "_deadline": "time after lottery should be closed",
          "_maxTickets": "maximum amount of tickets to be sold during this lottery",
          "_maxUserTickets": "maximum amount of tickets a user can buy during this lottery",
          "_ticketPrice": "price of the a ticket during the lottery"
        }
      },
      "owner()": {
        "details": "Returns the address of the current owner."
      },
      "payments(address)": {
        "details": "Returns the payments owed to an address.",
        "params": {
          "dest": "The creditor's address."
        }
      },
      "renounceOwnership()": {
        "details": "Leaves the contract without owner. It will not be possible to call `onlyOwner` functions anymore. Can only be called by the current owner. NOTE: Renouncing ownership will leave the contract without an owner, thereby removing any functionality that is only available to the owner."
      },
      "setPrice(uint256)": {
        "details": "allows owner of lottery to set price of the ticket",
        "params": {
          "price": "new price of a ticket"
        }
      },
      "startBlock()": {
        "details": "returns start block of current lottery if gameStarted"
      },
      "ticketsOwned(address)": {
        "details": "returns the tickets owned by the caller of the function"
      },
      "transferOwnership(address)": {
        "details": "Transfers ownership of the contract to a new account (`newOwner`). Can only be called by the current owner."
      },
      "withdrawPayments(address)": {
        "details": "allows winner of current lottery to withdraw payment",
        "params": {
          "payee": "address of recipient to whom amount will be sent"
        }
      }
    },
    "version": 1
  },
  "userdoc": {
    "kind": "user",
    "methods": {
      "buyTicket()": {
        "notice": "lottery has to be active for people to be able to ticket "
      },
      "calculateWinner()": {
        "notice": "generates random number from random block number and random user addressincrements lotteries of a participantdeactivates current lotterystores total tickets bought during current lottery roundtransfers prize to escrow"
      },
      "constructor": {
        "notice": "initialize the first loterry"
      },
      "newLottery(uint256,uint256,uint256,uint256)": {
        "notice": "_returns lottery Id "
      }
    },
    "version": 1
  }
}