{
  "contractName": "GameLottery",
  "abi": [
    {
      "inputs": [
        {
          "internalType": "uint256",
          "name": "_ticketPrice",
          "type": "uint256"
        },
        {
          "internalType": "uint256",
          "name": "_deadline",
          "type": "uint256"
        },
        {
          "internalType": "uint256",
          "name": "_maxTickets",
          "type": "uint256"
        },
        {
          "internalType": "uint256",
          "name": "_maxUserTickets",
          "type": "uint256"
        }
      ],
      "stateMutability": "nonpayable",
      "type": "constructor"
    },
    {
      "anonymous": false,
      "inputs": [
        {
          "indexed": true,
          "internalType": "address",
          "name": "winner",
          "type": "address"
        }
      ],
      "name": "AnnounceWinner",
      "type": "event"
    },
    {
      "anonymous": false,
      "inputs": [
        {
          "indexed": true,
          "internalType": "enum GameLottery.LotteryStates",
          "name": "newState",
          "type": "uint8"
        }
      ],
      "name": "ChangeLotteryState",
      "type": "event"
    },
    {
      "anonymous": false,
      "inputs": [
        {
          "indexed": true,
          "internalType": "address",
          "name": "previousOwner",
          "type": "address"
        },
        {
          "indexed": true,
          "internalType": "address",
          "name": "newOwner",
          "type": "address"
        }
      ],
      "name": "OwnershipTransferred",
      "type": "event"
    },
    {
      "anonymous": false,
      "inputs": [
        {
          "indexed": false,
          "internalType": "address",
          "name": "to",
          "type": "address"
        },
        {
          "indexed": false,
          "internalType": "uint256",
          "name": "amount",
          "type": "uint256"
        }
      ],
      "name": "Refund",
      "type": "event"
    },
    {
      "anonymous": false,
      "inputs": [
        {
          "indexed": false,
          "internalType": "uint256",
          "name": "price",
          "type": "uint256"
        }
      ],
      "name": "TicketPriceChanged",
      "type": "event"
    },
    {
      "stateMutability": "payable",
      "type": "fallback"
    },
    {
      "inputs": [],
      "name": "lotteryId",
      "outputs": [
        {
          "internalType": "uint256",
          "name": "_value",
          "type": "uint256"
        }
      ],
      "stateMutability": "view",
      "type": "function"
    },
    {
      "inputs": [],
      "name": "lotteryState",
      "outputs": [
        {
          "internalType": "enum GameLottery.LotteryStates",
          "name": "",
          "type": "uint8"
        }
      ],
      "stateMutability": "view",
      "type": "function"
    },
    {
      "inputs": [],
      "name": "owner",
      "outputs": [
        {
          "internalType": "address",
          "name": "",
          "type": "address"
        }
      ],
      "stateMutability": "view",
      "type": "function"
    },
    {
      "inputs": [
        {
          "internalType": "address",
          "name": "dest",
          "type": "address"
        }
      ],
      "name": "payments",
      "outputs": [
        {
          "internalType": "uint256",
          "name": "",
          "type": "uint256"
        }
      ],
      "stateMutability": "view",
      "type": "function"
    },
    {
      "inputs": [],
      "name": "renounceOwnership",
      "outputs": [],
      "stateMutability": "nonpayable",
      "type": "function"
    },
    {
      "inputs": [],
      "name": "totalTickets",
      "outputs": [
        {
          "internalType": "uint256",
          "name": "_value",
          "type": "uint256"
        }
      ],
      "stateMutability": "view",
      "type": "function"
    },
    {
      "inputs": [
        {
          "internalType": "address",
          "name": "newOwner",
          "type": "address"
        }
      ],
      "name": "transferOwnership",
      "outputs": [],
      "stateMutability": "nonpayable",
      "type": "function"
    },
    {
      "stateMutability": "payable",
      "type": "receive"
    },
    {
      "inputs": [],
      "name": "buyTicket",
      "outputs": [],
      "stateMutability": "payable",
      "type": "function"
    },
    {
      "inputs": [],
      "name": "getPrice",
      "outputs": [
        {
          "internalType": "uint256",
          "name": "",
          "type": "uint256"
        }
      ],
      "stateMutability": "view",
      "type": "function"
    },
    {
      "inputs": [
        {
          "internalType": "uint256",
          "name": "deadline",
          "type": "uint256"
        },
        {
          "internalType": "uint256",
          "name": "_maxTickets",
          "type": "uint256"
        },
        {
          "internalType": "uint256",
          "name": "_maxUserTickets",
          "type": "uint256"
        }
      ],
      "name": "newLottery",
      "outputs": [],
      "stateMutability": "nonpayable",
      "type": "function"
    },
    {
      "inputs": [
        {
          "internalType": "uint256",
          "name": "participantIndex",
          "type": "uint256"
        },
        {
          "internalType": "uint256",
          "name": "blockNumberIndex",
          "type": "uint256"
        }
      ],
      "name": "calculateWinner",
      "outputs": [],
      "stateMutability": "nonpayable",
      "type": "function"
    },
    {
      "inputs": [],
      "name": "isLotteryOver",
      "outputs": [
        {
          "internalType": "bool",
          "name": "",
          "type": "bool"
        }
      ],
      "stateMutability": "view",
      "type": "function"
    },
    {
      "inputs": [
        {
          "internalType": "uint256",
          "name": "price",
          "type": "uint256"
        }
      ],
      "name": "setPrice",
      "outputs": [],
      "stateMutability": "nonpayable",
      "type": "function"
    },
    {
      "inputs": [
        {
          "internalType": "address payable",
          "name": "payee",
          "type": "address"
        }
      ],
      "name": "withdrawPayments",
      "outputs": [],
      "stateMutability": "nonpayable",
      "type": "function"
    }
  ],
  "bytecode": "0x60a06040523480156200001157600080fd5b506040516200309038038062003090833981810160405281019062000037919062000262565b60405162000045906200023d565b604051809103906000f08015801562000062573d6000803e3d6000fd5b5073ffffffffffffffffffffffffffffffffffffffff1660808173ffffffffffffffffffffffffffffffffffffffff1660601b81525050620000b9620000ad6200017160201b60201c565b6200017960201b60201c565b600180819055508160098190555080600a819055506000600c60000181905550670de0b6b3a764000084620000ef9190620002ce565b6008819055506000600b60006101000a81548160ff0219169083600181111562000142577f4e487b7100000000000000000000000000000000000000000000000000000000600052602160045260246000fd5b02179055508260026000016000600c600001548152602001908152602001600020819055505050505062000382565b600033905090565b60008060009054906101000a900473ffffffffffffffffffffffffffffffffffffffff169050816000806101000a81548173ffffffffffffffffffffffffffffffffffffffff021916908373ffffffffffffffffffffffffffffffffffffffff1602179055508173ffffffffffffffffffffffffffffffffffffffff168173ffffffffffffffffffffffffffffffffffffffff167f8be0079c531659141344cd1fd0a4f28419497f9722a3daafe3b4186f6b6457e060405160405180910390a35050565b610d09806200238783390190565b6000815190506200025c8162000368565b92915050565b600080600080608085870312156200027957600080fd5b600062000289878288016200024b565b94505060206200029c878288016200024b565b9350506040620002af878288016200024b565b9250506060620002c2878288016200024b565b91505092959194509250565b6000620002db826200032f565b9150620002e8836200032f565b9250817fffffffffffffffffffffffffffffffffffffffffffffffffffffffffffffffff048311821515161562000324576200032362000339565b5b828202905092915050565b6000819050919050565b7f4e487b7100000000000000000000000000000000000000000000000000000000600052601160045260246000fd5b62000373816200032f565b81146200037f57600080fd5b50565b60805160601c611fd8620003af600039600081816108fe015281816110af01526112810152611fd86000f3fe6080604052600436106100e15760003560e01c806398d5fdca1161007f578063e580f47b11610059578063e580f47b14610290578063edca914c146102bb578063f2fde38b146102c5578063f9afa1f9146102ee576100e8565b806398d5fdca146101fd578063dd11247e14610228578063e2982c2114610253576100e8565b80636939864b116100bb5780636939864b14610167578063715018a6146101925780638da5cb5b146101a957806391b7f5ed146101d4576100e8565b806331b3eb94146100ea57806352e4b395146101135780636572ae131461013e576100e8565b366100e857005b005b3480156100f657600080fd5b50610111600480360381019061010c9190611587565b610317565b005b34801561011f57600080fd5b506101286104ac565b6040516101359190611927565b60405180910390f35b34801561014a57600080fd5b5061016560048036038101906101609190611602565b6104fc565b005b34801561017357600080fd5b5061017c610763565b6040516101899190611942565b60405180910390f35b34801561019e57600080fd5b506101a7610776565b005b3480156101b557600080fd5b506101be6107fe565b6040516101cb91906118c8565b60405180910390f35b3480156101e057600080fd5b506101fb60048036038101906101f691906115b0565b610827565b005b34801561020957600080fd5b506102126108e4565b60405161021f9190611a9d565b60405180910390f35b34801561023457600080fd5b5061023d6108ee565b60405161024a9190611a9d565b60405180910390f35b34801561025f57600080fd5b5061027a6004803603810190610275919061155e565b6108fa565b6040516102879190611a9d565b60405180910390f35b34801561029c57600080fd5b506102a56109ac565b6040516102b29190611a9d565b60405180910390f35b6102c36109b8565b005b3480156102d157600080fd5b506102ec60048036038101906102e7919061155e565b610d62565b005b3480156102fa57600080fd5b506103156004803603810190610310919061163e565b610e5a565b005b3373ffffffffffffffffffffffffffffffffffffffff1660026001016000600c60000154815260200190815260200160002060009054906101000a900473ffffffffffffffffffffffffffffffffffffffff1673ffffffffffffffffffffffffffffffffffffffff161461038a57600080fd5b600260015414156103d0576040517f08c379a00000000000000000000000000000000000000000000000000000000081526004016103c790611a5d565b60405180910390fd5b6002600181905550600180811115610411577f4e487b7100000000000000000000000000000000000000000000000000000000600052602160045260246000fd5b600b60009054906101000a900460ff166001811115610459577f4e487b7100000000000000000000000000000000000000000000000000000000600052602160045260246000fd5b14610499576040517f08c379a000000000000000000000000000000000000000000000000000000000815260040161049090611a1d565b60405180910390fd5b6104a2816110ad565b6001808190555050565b60006103e860026000016000600c600001548152602001908152602001600020546104d79190611b2a565b6103e8426104e59190611b2a565b10156104f457600090506104f9565b600190505b90565b60006001811115610536577f4e487b7100000000000000000000000000000000000000000000000000000000600052602160045260246000fd5b600b60009054906101000a900460ff16600181111561057e577f4e487b7100000000000000000000000000000000000000000000000000000000600052602160045260246000fd5b146105be576040517f08c379a00000000000000000000000000000000000000000000000000000000081526004016105b59061199d565b60405180910390fd5b60006105ca838361113b565b905060026003016000600c600001548152602001908152602001600020818154811061061f577f4e487b7100000000000000000000000000000000000000000000000000000000600052603260045260246000fd5b9060005260206000200160009054906101000a900473ffffffffffffffffffffffffffffffffffffffff1660026001016000600c60000154815260200190815260200160002060006101000a81548173ffffffffffffffffffffffffffffffffffffffff021916908373ffffffffffffffffffffffffffffffffffffffff1602179055506001600b60006101000a81548160ff021916908360018111156106ef577f4e487b7100000000000000000000000000000000000000000000000000000000600052602160045260246000fd5b0217905550600d6000015460026005016000600c6000015481526020019081526020016000208190555061075e60026001016000600c60000154815260200190815260200160002060009054906101000a900473ffffffffffffffffffffffffffffffffffffffff164761127f565b505050565b600b60009054906101000a900460ff1681565b61077e61130f565b73ffffffffffffffffffffffffffffffffffffffff1661079c6107fe565b73ffffffffffffffffffffffffffffffffffffffff16146107f2576040517f08c379a00000000000000000000000000000000000000000000000000000000081526004016107e9906119fd565b60405180910390fd5b6107fc6000611317565b565b60008060009054906101000a900473ffffffffffffffffffffffffffffffffffffffff16905090565b61082f61130f565b73ffffffffffffffffffffffffffffffffffffffff1661084d6107fe565b73ffffffffffffffffffffffffffffffffffffffff16146108a3576040517f08c379a000000000000000000000000000000000000000000000000000000000815260040161089a906119fd565b60405180910390fd5b806008819055507f70aa15e700a2c874a0358150f8fed3716cb8c992634a5321dc6d9a54a161e0b6816040516108d99190611a9d565b60405180910390a150565b6000600854905090565b600d8060000154905081565b60007f000000000000000000000000000000000000000000000000000000000000000073ffffffffffffffffffffffffffffffffffffffff1663e3a9db1a836040518263ffffffff1660e01b815260040161095591906118c8565b60206040518083038186803b15801561096d57600080fd5b505afa158015610981573d6000803e3d6000fd5b505050506040513d601f19601f820116820180604052508101906109a591906115d9565b9050919050565b600c8060000154905081565b600060018111156109f2577f4e487b7100000000000000000000000000000000000000000000000000000000600052602160045260246000fd5b600b60009054906101000a900460ff166001811115610a3a577f4e487b7100000000000000000000000000000000000000000000000000000000600052602160045260246000fd5b14610a7a576040517f08c379a0000000000000000000000000000000000000000000000000000000008152600401610a719061199d565b60405180910390fd5b600854341015610abf576040517f08c379a0000000000000000000000000000000000000000000000000000000008152600401610ab69061195d565b60405180910390fd5b60026003016000600c600001548152602001908152602001600020339080600181540180825580915050600190039060005260206000200160009091909190916101000a81548173ffffffffffffffffffffffffffffffffffffffff021916908373ffffffffffffffffffffffffffffffffffffffff160217905550600280016000600c600001548152602001908152602001600020600280016000600c60000154815260200190815260200160002080549050600143610b809190611ad4565b610b8a9190611ad4565b9080600181540180825580915050600190039060005260206000200160009091909190915055610bba600d6113db565b610c1a60026004016000600c60000154815260200190815260200160002060003373ffffffffffffffffffffffffffffffffffffffff1673ffffffffffffffffffffffffffffffffffffffff1681526020019081526020016000206113db565b600854341115610c76576000610c2f346113f1565b9050610c3b3382611408565b7fbb28353e4598c3b9199101a66e0989549b659a59a54d2c27fbb183f1932c8e6d3382604051610c6c9291906118fe565b60405180910390a1505b600a5460026004016000600c60000154815260200190815260200160002060003373ffffffffffffffffffffffffffffffffffffffff1673ffffffffffffffffffffffffffffffffffffffff168152602001908152602001600020600001541115610d16576040517f08c379a0000000000000000000000000000000000000000000000000000000008152600401610d0d90611a3d565b60405180910390fd5b600954600d600001541115610d60576040517f08c379a0000000000000000000000000000000000000000000000000000000008152600401610d5790611a3d565b60405180910390fd5b565b610d6a61130f565b73ffffffffffffffffffffffffffffffffffffffff16610d886107fe565b73ffffffffffffffffffffffffffffffffffffffff1614610dde576040517f08c379a0000000000000000000000000000000000000000000000000000000008152600401610dd5906119fd565b60405180910390fd5b600073ffffffffffffffffffffffffffffffffffffffff168173ffffffffffffffffffffffffffffffffffffffff161415610e4e576040517f08c379a0000000000000000000000000000000000000000000000000000000008152600401610e459061197d565b60405180910390fd5b610e5781611317565b50565b610e6261130f565b73ffffffffffffffffffffffffffffffffffffffff16610e806107fe565b73ffffffffffffffffffffffffffffffffffffffff1614610ed6576040517f08c379a0000000000000000000000000000000000000000000000000000000008152600401610ecd906119fd565b60405180910390fd5b600180811115610f0f577f4e487b7100000000000000000000000000000000000000000000000000000000600052602160045260246000fd5b600b60009054906101000a900460ff166001811115610f57577f4e487b7100000000000000000000000000000000000000000000000000000000600052602160045260246000fd5b14610f97576040517f08c379a0000000000000000000000000000000000000000000000000000000008152600401610f8e90611a7d565b60405180910390fd5b6000600b60006101000a81548160ff02191690836001811115610fe3577f4e487b7100000000000000000000000000000000000000000000000000000000600052602160045260246000fd5b0217905550610ff2600c6113db565b8160098190555080600a819055506000600d60000181905550826001436110199190611ad4565b6110239190611ad4565b60026000016000600c600001548152602001908152602001600020819055506000600181111561107c577f4e487b7100000000000000000000000000000000000000000000000000000000600052602160045260246000fd5b7fb06d6f0857f3408d34057d77accbaea13492a39e477e30e5f410fef5cb55da5460405160405180910390a2505050565b7f000000000000000000000000000000000000000000000000000000000000000073ffffffffffffffffffffffffffffffffffffffff166351cff8d9826040518263ffffffff1660e01b815260040161110691906118e3565b600060405180830381600087803b15801561112057600080fd5b505af1158015611134573d6000803e3d6000fd5b5050505050565b60008060026003016000600c6000015481526020019081526020016000208481548110611191577f4e487b7100000000000000000000000000000000000000000000000000000000600052603260045260246000fd5b9060005260206000200160009054906101000a900473ffffffffffffffffffffffffffffffffffffffff1690506000600280016000600c6000015481526020019081526020016000208481548110611212577f4e487b7100000000000000000000000000000000000000000000000000000000600052603260045260246000fd5b906000526020600020015440905060026003016000600c600001548152602001908152602001600020805490508282604051602001611252929190611887565b6040516020818303038152906040528051906020012060001c6112759190611c6f565b9250505092915050565b7f000000000000000000000000000000000000000000000000000000000000000073ffffffffffffffffffffffffffffffffffffffff1663f340fa0182846040518363ffffffff1660e01b81526004016112d991906118c8565b6000604051808303818588803b1580156112f257600080fd5b505af1158015611306573d6000803e3d6000fd5b50505050505050565b600033905090565b60008060009054906101000a900473ffffffffffffffffffffffffffffffffffffffff169050816000806101000a81548173ffffffffffffffffffffffffffffffffffffffff021916908373ffffffffffffffffffffffffffffffffffffffff1602179055508173ffffffffffffffffffffffffffffffffffffffff168173ffffffffffffffffffffffffffffffffffffffff167f8be0079c531659141344cd1fd0a4f28419497f9722a3daafe3b4186f6b6457e060405160405180910390a35050565b6001816000016000828254019250508190555050565b6000600854826114019190611b84565b9050919050565b6114128282611416565b5050565b80471015611459576040517f08c379a0000000000000000000000000000000000000000000000000000000008152600401611450906119dd565b60405180910390fd5b60008273ffffffffffffffffffffffffffffffffffffffff168260405161147f906118b3565b60006040518083038185875af1925050503d80600081146114bc576040519150601f19603f3d011682016040523d82523d6000602084013e6114c1565b606091505b5050905080611505576040517f08c379a00000000000000000000000000000000000000000000000000000000081526004016114fc906119bd565b60405180910390fd5b505050565b60008135905061151981611f5d565b92915050565b60008135905061152e81611f74565b92915050565b60008135905061154381611f8b565b92915050565b60008151905061155881611f8b565b92915050565b60006020828403121561157057600080fd5b600061157e8482850161150a565b91505092915050565b60006020828403121561159957600080fd5b60006115a78482850161151f565b91505092915050565b6000602082840312156115c257600080fd5b60006115d084828501611534565b91505092915050565b6000602082840312156115eb57600080fd5b60006115f984828501611549565b91505092915050565b6000806040838503121561161557600080fd5b600061162385828601611534565b925050602061163485828601611534565b9150509250929050565b60008060006060848603121561165357600080fd5b600061166186828701611534565b935050602061167286828701611534565b925050604061168386828701611534565b9150509250925092565b61169681611bca565b82525050565b6116a581611bb8565b82525050565b6116bc6116b782611bb8565b611c41565b82525050565b6116cb81611bdc565b82525050565b6116e26116dd82611be8565b611c53565b82525050565b6116f181611c2f565b82525050565b6000611704601983611ac3565b915061170f82611d3a565b602082019050919050565b6000611727602683611ac3565b915061173282611d63565b604082019050919050565b600061174a601983611ac3565b915061175582611db2565b602082019050919050565b600061176d603a83611ac3565b915061177882611ddb565b604082019050919050565b6000611790601d83611ac3565b915061179b82611e2a565b602082019050919050565b60006117b3602083611ac3565b91506117be82611e53565b602082019050919050565b60006117d6601d83611ac3565b91506117e182611e7c565b602082019050919050565b60006117f9602683611ac3565b915061180482611ea5565b604082019050919050565b600061181c600083611ab8565b915061182782611ef4565b600082019050919050565b600061183f601f83611ac3565b915061184a82611ef7565b602082019050919050565b6000611862601d83611ac3565b915061186d82611f20565b602082019050919050565b61188181611c25565b82525050565b600061189382856116ab565b6014820191506118a382846116d1565b6020820191508190509392505050565b60006118be8261180f565b9150819050919050565b60006020820190506118dd600083018461169c565b92915050565b60006020820190506118f8600083018461168d565b92915050565b6000604082019050611913600083018561169c565b6119206020830184611878565b9392505050565b600060208201905061193c60008301846116c2565b92915050565b600060208201905061195760008301846116e8565b92915050565b60006020820190508181036000830152611976816116f7565b9050919050565b600060208201905081810360008301526119968161171a565b9050919050565b600060208201905081810360008301526119b68161173d565b9050919050565b600060208201905081810360008301526119d681611760565b9050919050565b600060208201905081810360008301526119f681611783565b9050919050565b60006020820190508181036000830152611a16816117a6565b9050919050565b60006020820190508181036000830152611a36816117c9565b9050919050565b60006020820190508181036000830152611a56816117ec565b9050919050565b60006020820190508181036000830152611a7681611832565b9050919050565b60006020820190508181036000830152611a9681611855565b9050919050565b6000602082019050611ab26000830184611878565b92915050565b600081905092915050565b600082825260208201905092915050565b6000611adf82611c25565b9150611aea83611c25565b9250827fffffffffffffffffffffffffffffffffffffffffffffffffffffffffffffffff03821115611b1f57611b1e611ca0565b5b828201905092915050565b6000611b3582611c25565b9150611b4083611c25565b9250817fffffffffffffffffffffffffffffffffffffffffffffffffffffffffffffffff0483118215151615611b7957611b78611ca0565b5b828202905092915050565b6000611b8f82611c25565b9150611b9a83611c25565b925082821015611bad57611bac611ca0565b5b828203905092915050565b6000611bc382611c05565b9050919050565b6000611bd582611c05565b9050919050565b60008115159050919050565b6000819050919050565b6000819050611c0082611f49565b919050565b600073ffffffffffffffffffffffffffffffffffffffff82169050919050565b6000819050919050565b6000611c3a82611bf2565b9050919050565b6000611c4c82611c5d565b9050919050565b6000819050919050565b6000611c6882611d2d565b9050919050565b6000611c7a82611c25565b9150611c8583611c25565b925082611c9557611c94611ccf565b5b828206905092915050565b7f4e487b7100000000000000000000000000000000000000000000000000000000600052601160045260246000fd5b7f4e487b7100000000000000000000000000000000000000000000000000000000600052601260045260246000fd5b7f4e487b7100000000000000000000000000000000000000000000000000000000600052602160045260246000fd5b60008160601b9050919050565b7f4c6f74746572793a206e6f7420656e6f7567682066756e647300000000000000600082015250565b7f4f776e61626c653a206e6577206f776e657220697320746865207a65726f206160008201527f6464726573730000000000000000000000000000000000000000000000000000602082015250565b7f4c6f74746572793a20696e616374697665206c6f747465727900000000000000600082015250565b7f416464726573733a20756e61626c6520746f2073656e642076616c75652c207260008201527f6563697069656e74206d61792068617665207265766572746564000000000000602082015250565b7f416464726573733a20696e73756666696369656e742062616c616e6365000000600082015250565b7f4f776e61626c653a2063616c6c6572206973206e6f7420746865206f776e6572600082015250565b7f4c6f746572793a206c6f7474657279207374696c6c206f6e676f696e67000000600082015250565b7f4c6f74746572793a206d6178206e756d626572206f66207469636b657473207260008201527f6561636865640000000000000000000000000000000000000000000000000000602082015250565b50565b7f5265656e7472616e637947756172643a207265656e7472616e742063616c6c00600082015250565b7f4c6f74746572793a206c6f7474657279206e6f7420696e616374697665000000600082015250565b60028110611f5a57611f59611cfe565b5b50565b611f6681611bb8565b8114611f7157600080fd5b50565b611f7d81611bca565b8114611f8857600080fd5b50565b611f9481611c25565b8114611f9f57600080fd5b5056fea2646970667358221220cae888b8e40cabef5edd079323b28442e3da641b551a609de03c01fa3bd3f90c64736f6c63430008020033608060405234801561001057600080fd5b5061002d61002261003260201b60201c565b61003a60201b60201c565b6100fe565b600033905090565b60008060009054906101000a900473ffffffffffffffffffffffffffffffffffffffff169050816000806101000a81548173ffffffffffffffffffffffffffffffffffffffff021916908373ffffffffffffffffffffffffffffffffffffffff1602179055508173ffffffffffffffffffffffffffffffffffffffff168173ffffffffffffffffffffffffffffffffffffffff167f8be0079c531659141344cd1fd0a4f28419497f9722a3daafe3b4186f6b6457e060405160405180910390a35050565b610bfc8061010d6000396000f3fe6080604052600436106100555760003560e01c806351cff8d91461005a578063715018a6146100835780638da5cb5b1461009a578063e3a9db1a146100c5578063f2fde38b14610102578063f340fa011461012b575b600080fd5b34801561006657600080fd5b50610081600480360381019061007c91906107f5565b610147565b005b34801561008f57600080fd5b506100986102c7565b005b3480156100a657600080fd5b506100af61034f565b6040516100bc9190610900565b60405180910390f35b3480156100d157600080fd5b506100ec60048036038101906100e791906107cc565b610378565b6040516100f9919061099b565b60405180910390f35b34801561010e57600080fd5b50610129600480360381019061012491906107cc565b6103c1565b005b610145600480360381019061014091906107cc565b6104b9565b005b61014f6105e2565b73ffffffffffffffffffffffffffffffffffffffff1661016d61034f565b73ffffffffffffffffffffffffffffffffffffffff16146101c3576040517f08c379a00000000000000000000000000000000000000000000000000000000081526004016101ba9061097b565b60405180910390fd5b6000600160008373ffffffffffffffffffffffffffffffffffffffff1673ffffffffffffffffffffffffffffffffffffffff1681526020019081526020016000205490506000600160008473ffffffffffffffffffffffffffffffffffffffff1673ffffffffffffffffffffffffffffffffffffffff16815260200190815260200160002081905550610275818373ffffffffffffffffffffffffffffffffffffffff166105ea90919063ffffffff16565b8173ffffffffffffffffffffffffffffffffffffffff167f7084f5476618d8e60b11ef0d7d3f06914655adb8793e28ff7f018d4c76d505d5826040516102bb919061099b565b60405180910390a25050565b6102cf6105e2565b73ffffffffffffffffffffffffffffffffffffffff166102ed61034f565b73ffffffffffffffffffffffffffffffffffffffff1614610343576040517f08c379a000000000000000000000000000000000000000000000000000000000815260040161033a9061097b565b60405180910390fd5b61034d60006106de565b565b60008060009054906101000a900473ffffffffffffffffffffffffffffffffffffffff16905090565b6000600160008373ffffffffffffffffffffffffffffffffffffffff1673ffffffffffffffffffffffffffffffffffffffff168152602001908152602001600020549050919050565b6103c96105e2565b73ffffffffffffffffffffffffffffffffffffffff166103e761034f565b73ffffffffffffffffffffffffffffffffffffffff161461043d576040517f08c379a00000000000000000000000000000000000000000000000000000000081526004016104349061097b565b60405180910390fd5b600073ffffffffffffffffffffffffffffffffffffffff168173ffffffffffffffffffffffffffffffffffffffff1614156104ad576040517f08c379a00000000000000000000000000000000000000000000000000000000081526004016104a49061091b565b60405180910390fd5b6104b6816106de565b50565b6104c16105e2565b73ffffffffffffffffffffffffffffffffffffffff166104df61034f565b73ffffffffffffffffffffffffffffffffffffffff1614610535576040517f08c379a000000000000000000000000000000000000000000000000000000000815260040161052c9061097b565b60405180910390fd5b600034905080600160008473ffffffffffffffffffffffffffffffffffffffff1673ffffffffffffffffffffffffffffffffffffffff168152602001908152602001600020600082825461058991906109d2565b925050819055508173ffffffffffffffffffffffffffffffffffffffff167f2da466a7b24304f47e87fa2e1e5a81b9831ce54fec19055ce277ca2f39ba42c4826040516105d6919061099b565b60405180910390a25050565b600033905090565b8047101561062d576040517f08c379a00000000000000000000000000000000000000000000000000000000081526004016106249061095b565b60405180910390fd5b60008273ffffffffffffffffffffffffffffffffffffffff1682604051610653906108eb565b60006040518083038185875af1925050503d8060008114610690576040519150601f19603f3d011682016040523d82523d6000602084013e610695565b606091505b50509050806106d9576040517f08c379a00000000000000000000000000000000000000000000000000000000081526004016106d09061093b565b60405180910390fd5b505050565b60008060009054906101000a900473ffffffffffffffffffffffffffffffffffffffff169050816000806101000a81548173ffffffffffffffffffffffffffffffffffffffff021916908373ffffffffffffffffffffffffffffffffffffffff1602179055508173ffffffffffffffffffffffffffffffffffffffff168173ffffffffffffffffffffffffffffffffffffffff167f8be0079c531659141344cd1fd0a4f28419497f9722a3daafe3b4186f6b6457e060405160405180910390a35050565b6000813590506107b181610b98565b92915050565b6000813590506107c681610baf565b92915050565b6000602082840312156107de57600080fd5b60006107ec848285016107a2565b91505092915050565b60006020828403121561080757600080fd5b6000610815848285016107b7565b91505092915050565b61082781610a28565b82525050565b600061083a6026836109c1565b915061084582610aa5565b604082019050919050565b600061085d603a836109c1565b915061086882610af4565b604082019050919050565b6000610880601d836109c1565b915061088b82610b43565b602082019050919050565b60006108a36020836109c1565b91506108ae82610b6c565b602082019050919050565b60006108c66000836109b6565b91506108d182610b95565b600082019050919050565b6108e581610a6c565b82525050565b60006108f6826108b9565b9150819050919050565b6000602082019050610915600083018461081e565b92915050565b600060208201905081810360008301526109348161082d565b9050919050565b6000602082019050818103600083015261095481610850565b9050919050565b6000602082019050818103600083015261097481610873565b9050919050565b6000602082019050818103600083015261099481610896565b9050919050565b60006020820190506109b060008301846108dc565b92915050565b600081905092915050565b600082825260208201905092915050565b60006109dd82610a6c565b91506109e883610a6c565b9250827fffffffffffffffffffffffffffffffffffffffffffffffffffffffffffffffff03821115610a1d57610a1c610a76565b5b828201905092915050565b6000610a3382610a4c565b9050919050565b6000610a4582610a4c565b9050919050565b600073ffffffffffffffffffffffffffffffffffffffff82169050919050565b6000819050919050565b7f4e487b7100000000000000000000000000000000000000000000000000000000600052601160045260246000fd5b7f4f776e61626c653a206e6577206f776e657220697320746865207a65726f206160008201527f6464726573730000000000000000000000000000000000000000000000000000602082015250565b7f416464726573733a20756e61626c6520746f2073656e642076616c75652c207260008201527f6563697069656e74206d61792068617665207265766572746564000000000000602082015250565b7f416464726573733a20696e73756666696369656e742062616c616e6365000000600082015250565b7f4f776e61626c653a2063616c6c6572206973206e6f7420746865206f776e6572600082015250565b50565b610ba181610a28565b8114610bac57600080fd5b50565b610bb881610a3a565b8114610bc357600080fd5b5056fea26469706673582212204b5cd46ad38eefbc91faa6b518e761643b3ded611b961de794825164ba61ad7864736f6c63430008020033",
  "immutableReferences": {
    "111": [
      {
        "length": 32,
        "start": 2302
      },
      {
        "length": 32,
        "start": 4271
      },
      {
        "length": 32,
        "start": 4737
      }
    ]
  },
  "source": "// SPDX-License-Identifier: MIT\npragma solidity 0.8.2;\n\nimport \"@openzeppelin/contracts/access/Ownable.sol\"; \nimport \"@openzeppelin/contracts/security/ReentrancyGuard.sol\";\nimport \"@openzeppelin/contracts/security/PullPayment.sol\";\nimport \"@openzeppelin/contracts/utils/Address.sol\"; \nimport \"@openzeppelin/contracts/utils/Counters.sol\";\nimport \"@openzeppelin/contracts/utils/structs/EnumerableSet.sol\";\n\ncontract GameLottery is PullPayment, Ownable, ReentrancyGuard {\n    \n    using Counters for Counters.Counter;\n    \n    struct Lottery {\n        mapping(uint256 => uint256) deadlines;\n        mapping(uint256 => address) winner;\n        mapping(uint256 => uint256 []) blockNumbers;\n        mapping(uint256 => address []) participants;\n        mapping(uint256 => mapping(address => Counters.Counter)) userTickets;\n        mapping(uint256 => uint256) totalTicketsBought;\n    }  \n\n    enum LotteryStates { Active, Inactive }\n\n    Lottery private lottery; \n    uint256 private ticketPrice;\n    uint256 private maxTickets;\n    uint256 private maxUserTickets;  \n    \n    LotteryStates public lotteryState;\n    Counters.Counter public lotteryId;\n    Counters.Counter public totalTickets; \n\n    event ChangeLotteryState (LotteryStates indexed newState);\n    event AnnounceWinner (address indexed winner);\n    event Refund(address to, uint256 amount);\n    event TicketPriceChanged(uint256 price);\n\n    modifier onlyActiveLottery {\n        require(lotteryState == LotteryStates.Active, \"Lottery: inactive lottery\");\n        _;\n    }\n\n    modifier onlyCurrentWinner {\n        require(lottery.winner[lotteryId._value] == msg.sender);\n        _;\n    }\n\n    modifier respectMaxTickets {\n        _;\n        require(lottery.userTickets[lotteryId._value][msg.sender]._value <= maxUserTickets, \"Lottery: max number of tickets reached\"); \n        require(totalTickets._value <= maxTickets, \"Lottery: max number of tickets reached\");\n    }\n    \n    /// @notice initialize the first loterry\n    constructor (uint256 _ticketPrice, uint256 _deadline, uint256 _maxTickets, uint256 _maxUserTickets){\n        maxTickets = _maxTickets;\n        maxUserTickets = _maxUserTickets; \n        lotteryId._value = 0;\n        ticketPrice = _ticketPrice * 10 ** 18;\n        lotteryState = LotteryStates.Active; \n        lottery.deadlines[lotteryId._value] = _deadline;\n    } \n\n    /// @dev buy a lottery ticket with this function \n    /// @notice lottery has to be active for people to be able to ticket \n    function buyTicket() public payable onlyActiveLottery respectMaxTickets {\n        require(msg.value >= ticketPrice, \"Lottery: not enough funds\"); \n        lottery.participants[lotteryId._value].push(address(msg.sender));\n        lottery.blockNumbers[lotteryId._value].push(block.number + 1 + lottery.blockNumbers[lotteryId._value].length);\n        totalTickets.increment(); \n        lottery.userTickets[lotteryId._value][msg.sender].increment();\n        if (msg.value > ticketPrice){\n            uint256 rest = calculateRest(msg.value);\n            refundRest(msg.sender, rest);\n            emit Refund(msg.sender, rest);\n        }\n    }\n\n    /// @dev retrieves the ticket price \n    function getPrice() external view returns (uint256) {\n        return ticketPrice; \n    }\n\n    /// @dev actives the lottery \n    /// @param deadline time after lottery should be closed\n    function newLottery(uint256 deadline, uint256 _maxTickets, uint256 _maxUserTickets) external onlyOwner {\n        require(lotteryState == LotteryStates.Inactive, \"Lottery: lottery not inactive\");\n        lotteryState = LotteryStates.Active;\n        lotteryId.increment();\n        maxTickets = _maxTickets;\n        maxUserTickets = _maxUserTickets;\n        totalTickets._value = 0;\n        lottery.deadlines[lotteryId._value] = block.number + 1 + deadline;\n        emit ChangeLotteryState(LotteryStates.Active);\n    } \n\n    /// @dev calculates the winner of the lottery\n    /// @param participantIndex index for blocknumbers list\n    /// @param blockNumberIndex index for partipants list\n    function calculateWinner(uint256 participantIndex, uint256 blockNumberIndex) public \n    onlyActiveLottery {\n        uint256 winnerIndex = generateRandomNumber(participantIndex, blockNumberIndex);\n        lottery.winner[lotteryId._value] = lottery.participants[lotteryId._value][winnerIndex];\n        lotteryState = LotteryStates.Inactive;\n        lottery.totalTicketsBought[lotteryId._value] = totalTickets._value; \n        _asyncTransfer(lottery.winner[lotteryId._value], address(this).balance);\n    }\n\n    /// @dev checks whether lottery isOver\n    function isLotteryOver() public view returns (bool) {\n        if (block.timestamp * 1000 < lottery.deadlines[lotteryId._value] * 1000){\n            return false;\n        }\n        return true;\n    } \n\n    /// @dev allows owner of lottery to set price of the ticket\n    /// @param price new price of a ticket\n    function setPrice(uint256 price) external onlyOwner {\n        ticketPrice = price;\n        emit TicketPriceChanged(price); \n    } \n\n    /// @dev generates a pseudo random number \n    /// @param participantIndex index for the participant array\n    /// @param blockNumberIndex index for the blockNumber array\n    function generateRandomNumber(\n        uint256 participantIndex, \n        uint256 blockNumberIndex) \n    private view returns (uint indexWinner) {\n        address randomParticipant = lottery.participants[lotteryId._value][participantIndex];\n        bytes32 blHash = blockhash(lottery.blockNumbers[lotteryId._value][blockNumberIndex]); \n        indexWinner = uint(keccak256(abi.encodePacked(randomParticipant, blHash))) % lottery.participants[lotteryId._value].length; \n    }\n\n    /// @dev calculate rest amount of eth to send back to users\n    /// @param value amount the user will pay with\n    function calculateRest(uint256 value) private view returns(uint256 rest){\n        rest = (value - ticketPrice); \n    }\n\n    /// @dev refunds gas to a user if it exceeds lottery price\n    /// @param to address to do a redund\n    /// @param toRefund amount to refund \n    function refundRest(address to, uint256 toRefund) private {\n        Address.sendValue(payable(to), toRefund); \n    }\n\n    /// @dev allows winner of current lottery to withdraw payment\n    /// @param payee address of recipient to whom amount will be sent\n    function withdrawPayments(address payable payee) public override onlyCurrentWinner nonReentrant {\n        require(lotteryState == LotteryStates.Inactive, \"Lotery: lottery still ongoing\");\n        super.withdrawPayments(payee);\n    }\n\n    /// @dev if empty function calls to contract\n    fallback() external payable {}\n    receive() external payable {}\n}\n",
  "sourcePath": "/home/rasguy92/Documents/gameLoft/contracts/GameLottery.sol",
  "compiler": {
    "name": "solc",
    "version": "0.8.2+commit.661d1103.Emscripten.clang"
  },
  "schemaVersion": "3.4.4",
  "updatedAt": "2022-01-13T04:52:02.678Z",
  "devdoc": {
    "kind": "dev",
    "methods": {
      "buyTicket()": {
        "details": "buy a lottery ticket with this function "
      },
      "calculateWinner(uint256,uint256)": {
        "details": "calculates the winner of the lottery",
        "params": {
          "blockNumberIndex": "index for partipants list",
          "participantIndex": "index for blocknumbers list"
        }
      },
      "getPrice()": {
        "details": "retrieves the ticket price "
      },
      "isLotteryOver()": {
        "details": "checks whether lottery isOver"
      },
      "newLottery(uint256,uint256,uint256)": {
        "details": "actives the lottery ",
        "params": {
          "deadline": "time after lottery should be closed"
        }
      },
      "owner()": {
        "details": "Returns the address of the current owner."
      },
      "payments(address)": {
        "details": "Returns the payments owed to an address.",
        "params": {
          "dest": "The creditor's address."
        }
      },
      "renounceOwnership()": {
        "details": "Leaves the contract without owner. It will not be possible to call `onlyOwner` functions anymore. Can only be called by the current owner. NOTE: Renouncing ownership will leave the contract without an owner, thereby removing any functionality that is only available to the owner."
      },
      "setPrice(uint256)": {
        "details": "allows owner of lottery to set price of the ticket",
        "params": {
          "price": "new price of a ticket"
        }
      },
      "transferOwnership(address)": {
        "details": "Transfers ownership of the contract to a new account (`newOwner`). Can only be called by the current owner."
      },
      "withdrawPayments(address)": {
        "details": "allows winner of current lottery to withdraw payment",
        "params": {
          "payee": "address of recipient to whom amount will be sent"
        }
      }
    },
    "version": 1
  },
  "userdoc": {
    "kind": "user",
    "methods": {
      "buyTicket()": {
        "notice": "lottery has to be active for people to be able to ticket "
      },
      "constructor": {
        "notice": "initialize the first loterry"
      }
    },
    "version": 1
  }
}